{"contracts/Arbitrage.sol":{"Arbitrage":{"abi":[{"inputs":[{"internalType":"address","name":"_provider","type":"address"},{"internalType":"address","name":"_uniV2Router","type":"address"},{"internalType":"address","name":"_uniV3Router","type":"address"},{"internalType":"address","name":"_sushiRouter","type":"address"},{"internalType":"address","name":"_balancerVault","type":"address"}],"stateMutability":"nonpayable","type":"constructor"},{"anonymous":false,"inputs":[{"indexed":true,"internalType":"address","name":"previousOwner","type":"address"},{"indexed":true,"internalType":"address","name":"newOwner","type":"address"}],"name":"OwnershipTransferred","type":"event"},{"inputs":[],"name":"ADDRESSES_PROVIDER","outputs":[{"internalType":"contract IPoolAddressesProvider","name":"","type":"address"}],"stateMutability":"view","type":"function"},{"inputs":[],"name":"BASIS_POINTS","outputs":[{"internalType":"uint256","name":"","type":"uint256"}],"stateMutability":"view","type":"function"},{"inputs":[],"name":"POOL","outputs":[{"internalType":"contract IPool","name":"","type":"address"}],"stateMutability":"view","type":"function"},{"inputs":[],"name":"aavePool","outputs":[{"internalType":"contract IPool","name":"","type":"address"}],"stateMutability":"view","type":"function"},{"inputs":[],"name":"balancerVault","outputs":[{"internalType":"contract IBalancerVault","name":"","type":"address"}],"stateMutability":"view","type":"function"},{"inputs":[{"internalType":"address","name":"asset","type":"address"},{"internalType":"uint256","name":"amount","type":"uint256"},{"components":[{"internalType":"enum Arbitrage.DEX","name":"dex","type":"uint8"},{"internalType":"address","name":"tokenIn","type":"address"},{"internalType":"address","name":"tokenOut","type":"address"},{"internalType":"uint256","name":"amountIn","type":"uint256"},{"internalType":"uint256","name":"amountOutMin","type":"uint256"},{"internalType":"bytes32","name":"poolId","type":"bytes32"},{"internalType":"uint24","name":"fee","type":"uint24"},{"internalType":"int128","name":"i","type":"int128"},{"internalType":"int128","name":"j","type":"int128"},{"internalType":"bytes","name":"extraData","type":"bytes"}],"internalType":"struct Arbitrage.SwapParams","name":"firstSwap","type":"tuple"},{"components":[{"internalType":"enum Arbitrage.DEX","name":"dex","type":"uint8"},{"internalType":"address","name":"tokenIn","type":"address"},{"internalType":"address","name":"tokenOut","type":"address"},{"internalType":"uint256","name":"amountIn","type":"uint256"},{"internalType":"uint256","name":"amountOutMin","type":"uint256"},{"internalType":"bytes32","name":"poolId","type":"bytes32"},{"internalType":"uint24","name":"fee","type":"uint24"},{"internalType":"int128","name":"i","type":"int128"},{"internalType":"int128","name":"j","type":"int128"},{"internalType":"bytes","name":"extraData","type":"bytes"}],"internalType":"struct Arbitrage.SwapParams","name":"secondSwap","type":"tuple"},{"internalType":"address","name":"recipient","type":"address"}],"name":"executeArbitrage","outputs":[],"stateMutability":"nonpayable","type":"function"},{"inputs":[{"internalType":"address","name":"asset","type":"address"},{"internalType":"uint256","name":"amount","type":"uint256"},{"internalType":"uint256","name":"premium","type":"uint256"},{"internalType":"address","name":"initiator","type":"address"},{"internalType":"bytes","name":"params","type":"bytes"}],"name":"executeOperation","outputs":[{"internalType":"bool","name":"","type":"bool"}],"stateMutability":"nonpayable","type":"function"},{"inputs":[],"name":"owner","outputs":[{"internalType":"address","name":"","type":"address"}],"stateMutability":"view","type":"function"},{"inputs":[],"name":"profitRecipient","outputs":[{"internalType":"address","name":"","type":"address"}],"stateMutability":"view","type":"function"},{"inputs":[],"name":"renounceOwnership","outputs":[],"stateMutability":"nonpayable","type":"function"},{"inputs":[{"internalType":"address","name":"_profitRecipient","type":"address"}],"name":"setProfitRecipient","outputs":[],"stateMutability":"nonpayable","type":"function"},{"inputs":[{"internalType":"uint256","name":"_slippageTolerance","type":"uint256"}],"name":"setSlippageTolerance","outputs":[],"stateMutability":"nonpayable","type":"function"},{"inputs":[],"name":"slippageTolerance","outputs":[{"internalType":"uint256","name":"","type":"uint256"}],"stateMutability":"view","type":"function"},{"inputs":[],"name":"sushiswapRouter","outputs":[{"internalType":"contract IUniswapV2Router02","name":"","type":"address"}],"stateMutability":"view","type":"function"},{"inputs":[{"internalType":"address","name":"newOwner","type":"address"}],"name":"transferOwnership","outputs":[],"stateMutability":"nonpayable","type":"function"},{"inputs":[],"name":"uniswapV2Router","outputs":[{"internalType":"contract IUniswapV2Router02","name":"","type":"address"}],"stateMutability":"view","type":"function"},{"inputs":[],"name":"uniswapV3Router","outputs":[{"internalType":"contract IUniswapV3Router","name":"","type":"address"}],"stateMutability":"view","type":"function"},{"stateMutability":"payable","type":"receive"}],"evm":{"bytecode":{"linkReferences":{},"object":"6101606040818152346200028b5760a08262002a6a803803809162000025828562000290565b8339810103126200028b576200003b82620002ca565b906020906200004c828501620002ca565b926200005a828601620002ca565b906200007760806200006f60608901620002ca565b9701620002ca565b6001600160a01b039182166080819052845163026b1d5f60e01b80825292979291908781600481855afa90811562000280579188939186959360009162000233575b509085600493921660a052600054918660018060a01b031999338b8616176000558b519889978896823391167f8be0079c531659141344cd1fd0a4f28419497f9722a3daafe3b4186f6b6457e0600080a360c86001551660c0521660e052876101009d168d52876101209c168c5282525afa9485156200022857600095620001e4575b50506101409316835233906002541617600255519161278a9384620002e0853960805184610a26015260a0518481816102e20152610626015260c05184818161092d015281816110410152612506015260e05184818161058701528181611587015281816118d701526124d80152518381816101c9015281816114c801526124aa01525182818161097101528181611cca015261247c01525181818161024d015261042f0152f35b8181969293963d831162000220575b620001ff818362000290565b810103126200021d57506200021490620002ca565b9238806200013c565b80fd5b503d620001f3565b84513d6000823e3d90fd5b8581949692939597503d831162000278575b62000251818362000290565b810103126200021d57508792859492856200026e600494620002ca565b91929350620000b9565b503d62000245565b87513d6000823e3d90fd5b600080fd5b601f909101601f19168101906001600160401b03821190821017620002b457604052565b634e487b7160e01b600052604160045260246000fd5b51906001600160a01b03821682036200028b5756fe60806040818152600480361015610021575b505050361561001f57600080fd5b005b600092833560e01c9081630542975c14610a1257508063117da1ee146109a0578063158274a51461095c5780631694505e146109185780631b11d0ff146105b65780632c76d7a6146105725780634795084f146104e05780636a1351901461036e578063715018a6146103115780637535d246146102cd5780637e2bad1e146102a45780638da5cb5b1461027c578063a03e4bc314610238578063d03153aa14610219578063e1f1c4a7146101fc578063e9240c2d146101b45763f2fde38b0361001157346101b05760203660031901126101b0576100fe610a55565b90610107610a84565b6001600160a01b0391821692831561015e575050600054826bffffffffffffffffffffffff60a01b821617600055167f8be0079c531659141344cd1fd0a4f28419497f9722a3daafe3b4186f6b6457e0600080a380f35b906020608492519162461bcd60e51b8352820152602660248201527f4f776e61626c653a206e6577206f776e657220697320746865207a65726f206160448201526564647265737360d01b6064820152fd5b8280fd5b5050346101f857816003193601126101f857517f00000000000000000000000000000000000000000000000000000000000000006001600160a01b03168152602090f35b5080fd5b5050346101f857816003193601126101f857602090516127108152f35b5050346101f857816003193601126101f8576020906001549051908152f35b5050346101f857816003193601126101f857517f00000000000000000000000000000000000000000000000000000000000000006001600160a01b03168152602090f35b5050346101f857816003193601126101f857905490516001600160a01b039091168152602090f35b5050346101f857816003193601126101f85760025490516001600160a01b039091168152602090f35b5050346101f857816003193601126101f857517f00000000000000000000000000000000000000000000000000000000000000006001600160a01b03168152602090f35b833461036b578060031936011261036b5761032a610a84565b600080546001600160a01b0319811682556001600160a01b03167f8be0079c531659141344cd1fd0a4f28419497f9722a3daafe3b4186f6b6457e08280a380f35b80fd5b5090346101b0576003199160a0368401126104d85761038b610a55565b928460443567ffffffffffffffff928382116101b057610140808284360301126104d857606435918583116104dc5782360301126101b0576001600160a01b039060843582811691908290036104dc576104069361042c926103eb610a84565b61041a8a519687936060602086015260808501908c01612531565b601f199485858303018d8601528b01612531565b90606083015203908101845283610b2a565b807f00000000000000000000000000000000000000000000000000000000000000001690813b156104d85783610493988851998a95869485936310ac2ddf60e21b8552308c860152166024840152602435604484015260a0606484015260a4830190610c8d565b82608483015203925af180156104ce576104ab578480f35b83116104bb575052388080808480f35b634e487b7160e01b845260419052602483fd5b83513d87823e3d90fd5b8380fd5b8480fd5b50346101b05760203660031901126101b0576104fa610a55565b610502610a84565b6001600160a01b031691821561052f5750506bffffffffffffffffffffffff60a01b600254161760025580f35b906020606492519162461bcd60e51b8352820152601760248201527f43616e6e6f7420736574207a65726f20616464726573730000000000000000006044820152fd5b5050346101f857816003193601126101f857517f00000000000000000000000000000000000000000000000000000000000000006001600160a01b03168152602090f35b50913461036b5760a036600319011261036b576105d1610a55565b60248035946001600160a01b039190606435838116036104dc576084359167ffffffffffffffff9788841161091457366023850112156109145783830135898111610910578401948286013681116108c657817f000000000000000000000000000000000000000000000000000000000000000016968733036108ce578660609103126108c657838601358b81116108ca57818561067192890101610b6a565b9a60448701359081116108ca576064918561068e92890101610b6a565b9501358181168091036108c65780156108ba57945b89519a6106af8c610adc565b60118c5260209b878d820170283937b334ba103932b1b4b834b2b73a1d60791b90526106da91612704565b6106e390610d83565b5060443583018093116108a8576106f990610d83565b9682881061086657895163095ea7b360e01b81526001600160a01b0390971685880190815260208101849052911695908a908290819060400103818b8a5af1801561085c5761083f575b50808611610755575b88885160018152f35b850394851161082e57509183918588946107a66107da98978a5161077881610adc565b601d81527f53656e64696e672070726f66697420746f20726563697069656e743a2000000089820152612678565b885163a9059cbb60e01b81526001600160a01b03909316908301908152602081019490945290958693849291839160400190565b03925af190811561082357506107f6575b80808080808061074c565b61081590833d851161081c575b61080d8183610b2a565b810190610c75565b50386107eb565b503d610803565b8351903d90823e3d90fd5b634e487b7160e01b86526011825285fd5b610855908a3d8c1161081c5761080d8183610b2a565b5038610743565b89513d8a823e3d90fd5b895162461bcd60e51b81528086018c9052601a818601527f496e73756666696369656e742072657475726e20616d6f756e740000000000006044820152606490fd5b634e487b7160e01b8952601185528389fd5b508060025416946106a3565b8880fd5b8980fd5b8a5162461bcd60e51b81526020818801526017818701527f43616c6c6261636b206f6e6c792066726f6d20504f4f4c0000000000000000006044820152606490fd5b8780fd5b8680fd5b5050346101f857816003193601126101f857517f00000000000000000000000000000000000000000000000000000000000000006001600160a01b03168152602090f35b5050346101f857816003193601126101f857517f00000000000000000000000000000000000000000000000000000000000000006001600160a01b03168152602090f35b50346101b05760203660031901126101b0578035916109bd610a84565b6127108310156109cf57505060015580f35b906020606492519162461bcd60e51b8352820152601a60248201527f496e76616c696420736c69707061676520746f6c6572616e63650000000000006044820152fd5b8490346101f857816003193601126101f8577f00000000000000000000000000000000000000000000000000000000000000006001600160a01b03168152602090f35b600435906001600160a01b0382168203610a6b57565b600080fd5b35906001600160a01b0382168203610a6b57565b6000546001600160a01b03163303610a9857565b606460405162461bcd60e51b815260206004820152602060248201527f4f776e61626c653a2063616c6c6572206973206e6f7420746865206f776e65726044820152fd5b6040810190811067ffffffffffffffff821117610af857604052565b634e487b7160e01b600052604160045260246000fd5b6060810190811067ffffffffffffffff821117610af857604052565b90601f8019910116810190811067ffffffffffffffff821117610af857604052565b359062ffffff82168203610a6b57565b359081600f0b8203610a6b57565b9190610140928381830312610a6b5760405167ffffffffffffffff94810185811182821017610af857604052809482356006811015610a6b5782526020610bb2818501610a70565b81840152610bc260408501610a70565b6040840152606084013560608401526080840135608084015260a084013560a0840152610bf160c08501610b4c565b60c0840152610c0260e08501610b5c565b60e0840152610100610c15818601610b5c565b90840152610120938481013590838211610a6b57019185601f84011215610a6b578235908111610af85760405195610c56601f8301601f1916840188610b2a565b818752828285010111610a6b5780826000940183880137850101520152565b90816020910312610a6b57518015158103610a6b5790565b919082519283825260005b848110610cb9575050826000602080949584010152601f8019910116010190565b602081830181015184830182015201610c98565b60009060033d11610cda57565b905060046000803e60005160e01c90565b600060443d10610d4957604051600319913d83016004833e815167ffffffffffffffff918282113d602484011117610d4c57818401948551938411610d54573d85010160208487010111610d4c5750610d4992910160200190610b2a565b90565b949350505050565b50949350505050565b805160011015610d6d5760400190565b634e487b7160e01b600052603260045260246000fd5b610dba604051610d9281610adc565b60168152753d3d3d20457865637574696e672053776170203d3d3d60501b6020820152612629565b805160068110156114ec57610df190604051610dd581610adc565b600a8152692222ac1034b73232bc1d60b11b6020820152612678565b602081018051604051610e2c916001600160a01b031690610e1181610adc565b60098152682a37b5b2b71024b71d60b91b6020820152612704565b6040820190610e6660018060a01b03835116604051610e4a81610adc565b600a8152692a37b5b2b71027baba1d60b11b6020820152612704565b6060830190610e988251604051610e7c81610adc565b600a81526920b6b7bab73a1024b71d60b11b6020820152612678565b610ecd6080850151604051610eac81610adc565b600f81526e20b6b7bab73a1027baba1026b4b71d60891b6020820152612678565b835160068110156114ec57600114612352575b60018060a01b03815116845160068110156114ec57610f3a91610f0460209261241d565b855160405163095ea7b360e01b81526001600160a01b039092166004830152602482015292839190829060009082906044820190565b03925af1801561234657612327575b50610f88604051610f5981610adc565b601b81527f417070726f766564207370656e64696e67206f6620746f6b656e7300000000006020820152612629565b6000845160068110156114ec57158015612313575b156115025750610feb604051610fb281610b0e565b602181527f5573696e6720556e69737761702056322f53757368697377617020726f7574656020820152603960f91b6040820152612629565b60405192610ff884610b0e565b60028452602084019160403684375184516001600160a01b039091169015610d6d578252516001600160a01b031661102f84610d5d565b52835160068110156114ec576114c6577f00000000000000000000000000000000000000000000000000000000000000005b60018060a01b03169161109b8360405161107a81610adc565b600f81526e2937baba32b91030b2323932b9b99d60891b6020820152612704565b519260808501519361012c4201918242116114b0576040516338ed173960e01b81526004810192909252602482019590955260a06044820152935160a48501819052849260c48401929160005b81811061148e575050506000838195938193306064840152608483015203925af1600091816113f9575b506112275761111f610ccd565b6308c379a0146111ad575b61116860405161113981610adc565b601e81527f56322053776170204661696c65642077697468206e6f20726561736f6e2100006020820152612629565b60405162461bcd60e51b815260206004820152601d60248201527f56322073776170206661696c65642077697468206e6f20726561736f6e0000006044820152606490fd5b6111b5610ceb565b806111c0575061112a565b80611203611223926040516111d481610adc565b601781527f56322053776170204661696c65642120526561736f6e3a00000000000000000060208201526126bd565b60405162461bcd60e51b8152602060048201529182916024830190610c8d565b0390fd5b611232608091610d5d565b51916112738360405161124481610adc565b601c81527f5632205377617020537563636573732120416d6f756e74204f75743a000000006020820152612678565b6112a68360405161128381610adc565b60118152702334b730b61030b6b7bab73a1037baba1d60791b6020820152612678565b6112dc828201516040516112b981610adc565b601181527026b4b734b6bab6903932b8bab4b932b21d60791b6020820152612678565b01518082106112e9575090565b60008091836113a3604051926112fe84610adc565b601884527f494e53554646494349454e54204f55545055543a20476f74000000000000000060208501526040519061133582610adc565b600a825269189d5d081b995959195960b21b602083015261138f604051948593611378602086019863c67ea9d160e01b8a526080602488015260a4870190610c8d565b916044860152602319858303016064860152610c8d565b90608483015203601f198101835282610b2a565b51906a636f6e736f6c652e6c6f675afa5060405162461bcd60e51b815260206004820152601a60248201527f496e73756666696369656e74206f757470757420616d6f756e740000000000006044820152606490fd5b9091503d806000833e61140c8183610b2a565b8101602082820312610a6b57815167ffffffffffffffff92838211610a6b570181601f82011215610a6b578051928311610af8578260051b90604051936114566020840186610b2a565b8452602080850192820101928311610a6b57602001905b82821061147e575050509038611112565b815181526020918201910161146d565b82516001600160a01b03168552879550602094850194909201916001016110e8565b634e487b7160e01b600052601160045260246000fd5b7f0000000000000000000000000000000000000000000000000000000000000000611061565b634e487b7160e01b600052602160045260246000fd5b84939192945160068110156114ec57600103611af8575061155760405161152881610adc565b601781527f5573696e6720556e697377617020563320726f757465720000000000000000006020820152612629565b6115b560405161156681610adc565b60128152712b19902937baba32b91030b2323932b9b99d60711b60208201527f00000000000000000000000000000000000000000000000000000000000000006001600160a01b031690612704565b62ffffff60c084016115ff828251166040516115d081610adc565b601c81527f4372656174696e6720563320706172616d732077697468206665653a000000006020820152612678565b511660648103611a6e57506064915b61164860405161161d81610adc565b60128152712334b730b6102b19903332b2903a34b2b91d60711b602082015262ffffff851690612678565b5190516001600160a01b03908116949116904261012c8101106114b0575190608084015192604051958661010081011067ffffffffffffffff61010089011117610af85762ffffff9261010088016040528752602087015216604085015230606085015261012c4201608085015260a084015260c0830152600060e08301526117166040516116d681610b0e565b602881527f563320706172616d7320636f6e666967757265642c20617474656d7074696e676020820152671039bbb0b817171760c11b6040820152612629565b8151604051611758916001600160a01b03169061173281610adc565b60148152732b19903830b930b6b99016903a37b5b2b724b71d60611b6020820152612704565b602082015160405161179e916001600160a01b03169061177781610adc565b60158152742b19903830b930b6b99016903a37b5b2b727baba1d60591b6020820152612704565b6117d962ffffff6040840151166040516117b781610adc565b601081526f2b19903830b930b6b99016903332b29d60811b6020820152612678565b61181460a08301516040516117ed81610adc565b60158152742b19903830b930b6b990169030b6b7bab73a24b71d60591b6020820152612678565b61185760c083015160405161182881610adc565b601d81527f563320706172616d73202d20616d6f756e744f75744d696e696d756d3a0000006020820152612678565b6040805163414bf38960e01b815283516001600160a01b039081166004830152602080860151821660248401529285015162ffffff1660448301526060850151811660648301526080850151608483015260a085015160a483015260c085015160c483015260e090940151841660e48201529283906101049082906000907f0000000000000000000000000000000000000000000000000000000000000000165af160009281611a3a575b506119f35761190f610ccd565b6308c379a01461199d575b61195860405161192981610adc565b601e81527f56332053776170204661696c65642077697468206e6f20726561736f6e2100006020820152612629565b60405162461bcd60e51b815260206004820152601d60248201527f56332073776170206661696c65642077697468206e6f20726561736f6e0000006044820152606490fd5b6119a5610ceb565b806119b0575061191a565b80611203611223926040516119c481610adc565b601781527f56332053776170204661696c65642120526561736f6e3a00000000000000000060208201526126bd565b608090611a3583604051611a0681610adc565b601c81527f5633205377617020537563636573732120416d6f756e74204f75743a000000006020820152612678565b611273565b9092506020813d602011611a66575b81611a5660209383610b2a565b81010312610a6b57519138611902565b3d9150611a49565b6101f490808203611a8057509161160e565b610bb89150818103611a9357509161160e565b61271091908203611aa557509161160e565b9050611af2604051611ab681610b0e565b602481527f496e76616c69642066656520746965722c207573696e672064656661756c74206020820152630333030360e41b6040820152612629565b9161160e565b839491945160068110156114ec57600303611e805750611b44604051611b1d81610adc565b60158152742ab9b4b733902130b630b731b2b9103937baba32b960591b6020820152612629565b60a08301519151935190516040519467ffffffffffffffff9391926001600160a01b039081169291169060c0870185811188821017610af8576040528652600060208701526040860152606085015260808401526040516020810181811083821117610af8576040526000815260a084015260405190608082019082821090821117610af857604052308152600060208201523060408201526000606082015260808201519061012c420142116114b057604051936352bbbe2960e01b855260e06004860152805160e486015260208101519160028310156114ec576020936060611c7860a08996958796610104880152600180831b03604082015116610124880152600180831b0384820151166101448801526080810151610164880152015160c06101848701526101a4860190610c8d565b83516001600160a01b039081166024870152878501511515604487015260408501518116606487015291909301511515608485015260a48401919091524261012c0160c48401529190039082906000907f0000000000000000000000000000000000000000000000000000000000000000165af160009281611e4c575b50611dff57611d02610ccd565b6308c379a014611da9575b611d58604051611d1c81610b0e565b602481527f42616c616e6365722053776170204661696c65642077697468206e6f20726561602082015263736f6e2160e01b6040820152612629565b60405162461bcd60e51b815260206004820152602360248201527f42616c616e6365722073776170206661696c65642077697468206e6f2072656160448201526239b7b760e91b6064820152608490fd5b611db1610ceb565b80611dbc5750611d0d565b8061120361122392604051611dd081610adc565b601d81527f42616c616e6365722053776170204661696c65642120526561736f6e3a00000060208201526126bd565b608090611a3583604051611e1281610b0e565b602281527f42616c616e636572205377617020537563636573732120416d6f756e74204f756020820152613a1d60f11b6040820152612678565b9092506020813d602011611e78575b81611e6860209383610b2a565b81010312610a6b57519138611cf5565b3d9150611e5b565b91509250815160068110156114ec576004036120ca5750611ec8604051611ea681610adc565b601081526f155cda5b99c810dd5c9d99481c1bdbdb60821b6020820152612629565b602060018060a01b0360a08301511692611f0c84604051611ee881610adc565b601381527221bab93b32903837b7b61030b2323932b9b99d60691b85820152612704565b608460e0840151600f0b6000610100860151600f0b93519660808701516040519889968795630f7c084960e21b875260048701526024860152604485015260648401525af160009281612096575b5061205457611f67610ccd565b6308c379a014611ffe575b611fba604051611f8181610b0e565b602181527f43757276652053776170204661696c65642077697468206e6f20726561736f6e6020820152602160f81b6040820152612629565b606460405162461bcd60e51b815260206004820152602060248201527f43757276652073776170206661696c65642077697468206e6f20726561736f6e6044820152fd5b612006610ceb565b806120115750611f72565b806112036112239260405161202581610adc565b601a81527f43757276652053776170204661696c65642120526561736f6e3a00000000000060208201526126bd565b608090611a358360405161206781610adc565b601f81527f4375727665205377617020537563636573732120416d6f756e74204f75743a006020820152612678565b9092506020813d6020116120c2575b816120b260209383610b2a565b81010312610a6b57519138611f5a565b3d91506120a5565b91815160068110156114ec576005146120e7575b50608090611273565b612199925060209061211e6040516120fe81610adc565b600f81526e155cda5b99c81113d113c81c1bdbdb608a1b84820152612629565b60018060a01b0360a0840151169061215f8260405161213c81610adc565b60128152712227a227903837b7b61030b2323932b9b99d60711b86820152612704565b51906101208401519160006040518097819582946350dbce0d60e01b84523060048501526024840152606060448401526064830190610c8d565b03925af1600092816122df575b50612297576121b3610ccd565b6308c379a014612241575b6121fc6040516121cd81610adc565b602081527f444f444f2053776170204661696c65642077697468206e6f20726561736f6e216020820152612629565b60405162461bcd60e51b815260206004820152601f60248201527f444f444f2073776170206661696c65642077697468206e6f20726561736f6e006044820152606490fd5b612249610ceb565b8061225457506121be565b806112036112239260405161226881610adc565b601981527f444f444f2053776170204661696c65642120526561736f6e3a0000000000000060208201526126bd565b6080906122d9836040516122aa81610adc565b601e81527f444f444f205377617020537563636573732120416d6f756e74204f75743a00006020820152612678565b906120de565b9092506020813d60201161230b575b816122fb60209383610b2a565b81010312610a6b575191386121a6565b3d91506122ee565b50845160068110156114ec57600214610f9d565b61233f9060203d60201161081c5761080d8183610b2a565b5038610f49565b6040513d6000823e3d90fd5b60c0840162ffffff906123938282511660405161236e81610adc565b60138152722ab734b9bbb0b82b19902332b2902a34b2b91d60691b6020820152612678565b511660648114908115612411575b8115612405575b81156123f9575b50610ee05760405162461bcd60e51b815260206004820152601b60248201527f496e76616c696420556e697377617020563320666565207469657200000000006044820152606490fd5b612710915014386123af565b610bb8811491506123a8565b6101f4811491506123a1565b60068110156114ec57801561250357600181146124d557600281146124a75760031461247a5760405162461bcd60e51b815260206004820152600f60248201526e0aadce6eae0e0dee4e8cac840888ab608b1b6044820152606490fd5b7f00000000000000000000000000000000000000000000000000000000000000006001600160a01b031690565b507f00000000000000000000000000000000000000000000000000000000000000006001600160a01b031690565b507f00000000000000000000000000000000000000000000000000000000000000006001600160a01b031690565b507f00000000000000000000000000000000000000000000000000000000000000006001600160a01b031690565b9081356006811015610a6b5781526001600160a01b038061255460208501610a70565b16602083015261256660408401610a70565b166040820152606082013560608201526080820135608082015260a082013560a082015262ffffff61259a60c08401610b4c565b1660c08201526125ac60e08301610b5c565b600f0b60e08201526101006125c2818401610b5c565b600f0b908201526101209182810135601e1982360301811215610a6b57016020813591019267ffffffffffffffff8211610a6b578136038413610a6b57819061014080918501528301528061016093848401376000828201840152601f01601f1916010190565b6000809160405161266581612657602082019463104c13eb60e21b8652602060248401526044830190610c8d565b03601f198101835282610b2a565b51906a636f6e736f6c652e6c6f675afa50565b60009190829161266560405180926126a96020830195632d839cb360e21b8752604060248501526064840190610c8d565b90604483015203601f198101835282610b2a565b6000919061265761266584936040519283916126f26020840196634b5c427760e01b8852604060248601526064850190610c8d565b83810360231901604485015290610c8d565b6000919082916126656040518092612735602083019563319af33360e01b8752604060248501526064840190610c8d565b6001600160a01b0391909116604483015203601f198101835282610b2a56fea2646970667358221220e37b0cdf3c164184c4b7bedea5d9f792e363958fad56ca6e82f89c7fa1429f1364736f6c63430008140033","opcodes":"PUSH2 0x160 PUSH1 0x40 DUP2 DUP2 MSTORE CALLVALUE PUSH3 0x28B JUMPI PUSH1 0xA0 DUP3 PUSH3 0x2A6A DUP1 CODESIZE SUB DUP1 SWAP2 PUSH3 0x25 DUP3 DUP6 PUSH3 0x290 JUMP JUMPDEST DUP4 CODECOPY DUP2 ADD SUB SLT PUSH3 0x28B JUMPI PUSH3 0x3B DUP3 PUSH3 0x2CA JUMP JUMPDEST SWAP1 PUSH1 0x20 SWAP1 PUSH3 0x4C DUP3 DUP6 ADD PUSH3 0x2CA JUMP JUMPDEST SWAP3 PUSH3 0x5A DUP3 DUP7 ADD PUSH3 0x2CA JUMP JUMPDEST SWAP1 PUSH3 0x77 PUSH1 0x80 PUSH3 0x6F PUSH1 0x60 DUP10 ADD PUSH3 0x2CA JUMP JUMPDEST SWAP8 ADD PUSH3 0x2CA JUMP JUMPDEST PUSH1 0x1 PUSH1 0x1 PUSH1 0xA0 SHL SUB SWAP2 DUP3 AND PUSH1 0x80 DUP2 SWAP1 MSTORE DUP5 MLOAD PUSH4 0x26B1D5F PUSH1 0xE0 SHL DUP1 DUP3 MSTORE SWAP3 SWAP8 SWAP3 SWAP2 SWAP1 DUP8 DUP2 PUSH1 0x4 DUP2 DUP6 GAS STATICCALL SWAP1 DUP2 ISZERO PUSH3 0x280 JUMPI SWAP2 DUP9 SWAP4 SWAP2 DUP7 SWAP6 SWAP4 PUSH1 0x0 SWAP2 PUSH3 0x233 JUMPI JUMPDEST POP SWAP1 DUP6 PUSH1 0x4 SWAP4 SWAP3 AND PUSH1 0xA0 MSTORE PUSH1 0x0 SLOAD SWAP2 DUP7 PUSH1 0x1 DUP1 PUSH1 0xA0 SHL SUB NOT SWAP10 CALLER DUP12 DUP7 AND OR PUSH1 0x0 SSTORE DUP12 MLOAD SWAP9 DUP10 SWAP8 DUP9 SWAP7 DUP3 CALLER SWAP2 AND PUSH32 0x8BE0079C531659141344CD1FD0A4F28419497F9722A3DAAFE3B4186F6B6457E0 PUSH1 0x0 DUP1 LOG3 PUSH1 0xC8 PUSH1 0x1 SSTORE AND PUSH1 0xC0 MSTORE AND PUSH1 0xE0 MSTORE DUP8 PUSH2 0x100 SWAP14 AND DUP14 MSTORE DUP8 PUSH2 0x120 SWAP13 AND DUP13 MSTORE DUP3 MSTORE GAS STATICCALL SWAP5 DUP6 ISZERO PUSH3 0x228 JUMPI PUSH1 0x0 SWAP6 PUSH3 0x1E4 JUMPI JUMPDEST POP POP PUSH2 0x140 SWAP4 AND DUP4 MSTORE CALLER SWAP1 PUSH1 0x2 SLOAD AND OR PUSH1 0x2 SSTORE MLOAD SWAP2 PUSH2 0x278A SWAP4 DUP5 PUSH3 0x2E0 DUP6 CODECOPY PUSH1 0x80 MLOAD DUP5 PUSH2 0xA26 ADD MSTORE PUSH1 0xA0 MLOAD DUP5 DUP2 DUP2 PUSH2 0x2E2 ADD MSTORE PUSH2 0x626 ADD MSTORE PUSH1 0xC0 MLOAD DUP5 DUP2 DUP2 PUSH2 0x92D ADD MSTORE DUP2 DUP2 PUSH2 0x1041 ADD MSTORE PUSH2 0x2506 ADD MSTORE PUSH1 0xE0 MLOAD DUP5 DUP2 DUP2 PUSH2 0x587 ADD MSTORE DUP2 DUP2 PUSH2 0x1587 ADD MSTORE DUP2 DUP2 PUSH2 0x18D7 ADD MSTORE PUSH2 0x24D8 ADD MSTORE MLOAD DUP4 DUP2 DUP2 PUSH2 0x1C9 ADD MSTORE DUP2 DUP2 PUSH2 0x14C8 ADD MSTORE PUSH2 0x24AA ADD MSTORE MLOAD DUP3 DUP2 DUP2 PUSH2 0x971 ADD MSTORE DUP2 DUP2 PUSH2 0x1CCA ADD MSTORE PUSH2 0x247C ADD MSTORE MLOAD DUP2 DUP2 DUP2 PUSH2 0x24D ADD MSTORE PUSH2 0x42F ADD MSTORE RETURN JUMPDEST DUP2 DUP2 SWAP7 SWAP3 SWAP4 SWAP7 RETURNDATASIZE DUP4 GT PUSH3 0x220 JUMPI JUMPDEST PUSH3 0x1FF DUP2 DUP4 PUSH3 0x290 JUMP JUMPDEST DUP2 ADD SUB SLT PUSH3 0x21D JUMPI POP PUSH3 0x214 SWAP1 PUSH3 0x2CA JUMP JUMPDEST SWAP3 CODESIZE DUP1 PUSH3 0x13C JUMP JUMPDEST DUP1 REVERT JUMPDEST POP RETURNDATASIZE PUSH3 0x1F3 JUMP JUMPDEST DUP5 MLOAD RETURNDATASIZE PUSH1 0x0 DUP3 RETURNDATACOPY RETURNDATASIZE SWAP1 REVERT JUMPDEST DUP6 DUP2 SWAP5 SWAP7 SWAP3 SWAP4 SWAP6 SWAP8 POP RETURNDATASIZE DUP4 GT PUSH3 0x278 JUMPI JUMPDEST PUSH3 0x251 DUP2 DUP4 PUSH3 0x290 JUMP JUMPDEST DUP2 ADD SUB SLT PUSH3 0x21D JUMPI POP DUP8 SWAP3 DUP6 SWAP5 SWAP3 DUP6 PUSH3 0x26E PUSH1 0x4 SWAP5 PUSH3 0x2CA JUMP JUMPDEST SWAP2 SWAP3 SWAP4 POP PUSH3 0xB9 JUMP JUMPDEST POP RETURNDATASIZE PUSH3 0x245 JUMP JUMPDEST DUP8 MLOAD RETURNDATASIZE PUSH1 0x0 DUP3 RETURNDATACOPY RETURNDATASIZE SWAP1 REVERT JUMPDEST PUSH1 0x0 DUP1 REVERT JUMPDEST PUSH1 0x1F SWAP1 SWAP2 ADD PUSH1 0x1F NOT AND DUP2 ADD SWAP1 PUSH1 0x1 PUSH1 0x1 PUSH1 0x40 SHL SUB DUP3 GT SWAP1 DUP3 LT OR PUSH3 0x2B4 JUMPI PUSH1 0x40 MSTORE JUMP JUMPDEST PUSH4 0x4E487B71 PUSH1 0xE0 SHL PUSH1 0x0 MSTORE PUSH1 0x41 PUSH1 0x4 MSTORE PUSH1 0x24 PUSH1 0x0 REVERT JUMPDEST MLOAD SWAP1 PUSH1 0x1 PUSH1 0x1 PUSH1 0xA0 SHL SUB DUP3 AND DUP3 SUB PUSH3 0x28B JUMPI JUMP INVALID PUSH1 0x80 PUSH1 0x40 DUP2 DUP2 MSTORE PUSH1 0x4 DUP1 CALLDATASIZE LT ISZERO PUSH2 0x21 JUMPI JUMPDEST POP POP POP CALLDATASIZE ISZERO PUSH2 0x1F JUMPI PUSH1 0x0 DUP1 REVERT JUMPDEST STOP JUMPDEST PUSH1 0x0 SWAP3 DUP4 CALLDATALOAD PUSH1 0xE0 SHR SWAP1 DUP2 PUSH4 0x542975C EQ PUSH2 0xA12 JUMPI POP DUP1 PUSH4 0x117DA1EE EQ PUSH2 0x9A0 JUMPI DUP1 PUSH4 0x158274A5 EQ PUSH2 0x95C JUMPI DUP1 PUSH4 0x1694505E EQ PUSH2 0x918 JUMPI DUP1 PUSH4 0x1B11D0FF EQ PUSH2 0x5B6 JUMPI DUP1 PUSH4 0x2C76D7A6 EQ PUSH2 0x572 JUMPI DUP1 PUSH4 0x4795084F EQ PUSH2 0x4E0 JUMPI DUP1 PUSH4 0x6A135190 EQ PUSH2 0x36E JUMPI DUP1 PUSH4 0x715018A6 EQ PUSH2 0x311 JUMPI DUP1 PUSH4 0x7535D246 EQ PUSH2 0x2CD JUMPI DUP1 PUSH4 0x7E2BAD1E EQ PUSH2 0x2A4 JUMPI DUP1 PUSH4 0x8DA5CB5B EQ PUSH2 0x27C JUMPI DUP1 PUSH4 0xA03E4BC3 EQ PUSH2 0x238 JUMPI DUP1 PUSH4 0xD03153AA EQ PUSH2 0x219 JUMPI DUP1 PUSH4 0xE1F1C4A7 EQ PUSH2 0x1FC JUMPI DUP1 PUSH4 0xE9240C2D EQ PUSH2 0x1B4 JUMPI PUSH4 0xF2FDE38B SUB PUSH2 0x11 JUMPI CALLVALUE PUSH2 0x1B0 JUMPI PUSH1 0x20 CALLDATASIZE PUSH1 0x3 NOT ADD SLT PUSH2 0x1B0 JUMPI PUSH2 0xFE PUSH2 0xA55 JUMP JUMPDEST SWAP1 PUSH2 0x107 PUSH2 0xA84 JUMP JUMPDEST PUSH1 0x1 PUSH1 0x1 PUSH1 0xA0 SHL SUB SWAP2 DUP3 AND SWAP3 DUP4 ISZERO PUSH2 0x15E JUMPI POP POP PUSH1 0x0 SLOAD DUP3 PUSH12 0xFFFFFFFFFFFFFFFFFFFFFFFF PUSH1 0xA0 SHL DUP3 AND OR PUSH1 0x0 SSTORE AND PUSH32 0x8BE0079C531659141344CD1FD0A4F28419497F9722A3DAAFE3B4186F6B6457E0 PUSH1 0x0 DUP1 LOG3 DUP1 RETURN JUMPDEST SWAP1 PUSH1 0x20 PUSH1 0x84 SWAP3 MLOAD SWAP2 PUSH3 0x461BCD PUSH1 0xE5 SHL DUP4 MSTORE DUP3 ADD MSTORE PUSH1 0x26 PUSH1 0x24 DUP3 ADD MSTORE PUSH32 0x4F776E61626C653A206E6577206F776E657220697320746865207A65726F2061 PUSH1 0x44 DUP3 ADD MSTORE PUSH6 0x646472657373 PUSH1 0xD0 SHL PUSH1 0x64 DUP3 ADD MSTORE REVERT JUMPDEST DUP3 DUP1 REVERT JUMPDEST POP POP CALLVALUE PUSH2 0x1F8 JUMPI DUP2 PUSH1 0x3 NOT CALLDATASIZE ADD SLT PUSH2 0x1F8 JUMPI MLOAD PUSH32 0x0 PUSH1 0x1 PUSH1 0x1 PUSH1 0xA0 SHL SUB AND DUP2 MSTORE PUSH1 0x20 SWAP1 RETURN JUMPDEST POP DUP1 REVERT JUMPDEST POP POP CALLVALUE PUSH2 0x1F8 JUMPI DUP2 PUSH1 0x3 NOT CALLDATASIZE ADD SLT PUSH2 0x1F8 JUMPI PUSH1 0x20 SWAP1 MLOAD PUSH2 0x2710 DUP2 MSTORE RETURN JUMPDEST POP POP CALLVALUE PUSH2 0x1F8 JUMPI DUP2 PUSH1 0x3 NOT CALLDATASIZE ADD SLT PUSH2 0x1F8 JUMPI PUSH1 0x20 SWAP1 PUSH1 0x1 SLOAD SWAP1 MLOAD SWAP1 DUP2 MSTORE RETURN JUMPDEST POP POP CALLVALUE PUSH2 0x1F8 JUMPI DUP2 PUSH1 0x3 NOT CALLDATASIZE ADD SLT PUSH2 0x1F8 JUMPI MLOAD PUSH32 0x0 PUSH1 0x1 PUSH1 0x1 PUSH1 0xA0 SHL SUB AND DUP2 MSTORE PUSH1 0x20 SWAP1 RETURN JUMPDEST POP POP CALLVALUE PUSH2 0x1F8 JUMPI DUP2 PUSH1 0x3 NOT CALLDATASIZE ADD SLT PUSH2 0x1F8 JUMPI SWAP1 SLOAD SWAP1 MLOAD PUSH1 0x1 PUSH1 0x1 PUSH1 0xA0 SHL SUB SWAP1 SWAP2 AND DUP2 MSTORE PUSH1 0x20 SWAP1 RETURN JUMPDEST POP POP CALLVALUE PUSH2 0x1F8 JUMPI DUP2 PUSH1 0x3 NOT CALLDATASIZE ADD SLT PUSH2 0x1F8 JUMPI PUSH1 0x2 SLOAD SWAP1 MLOAD PUSH1 0x1 PUSH1 0x1 PUSH1 0xA0 SHL SUB SWAP1 SWAP2 AND DUP2 MSTORE PUSH1 0x20 SWAP1 RETURN JUMPDEST POP POP CALLVALUE PUSH2 0x1F8 JUMPI DUP2 PUSH1 0x3 NOT CALLDATASIZE ADD SLT PUSH2 0x1F8 JUMPI MLOAD PUSH32 0x0 PUSH1 0x1 PUSH1 0x1 PUSH1 0xA0 SHL SUB AND DUP2 MSTORE PUSH1 0x20 SWAP1 RETURN JUMPDEST DUP4 CALLVALUE PUSH2 0x36B JUMPI DUP1 PUSH1 0x3 NOT CALLDATASIZE ADD SLT PUSH2 0x36B JUMPI PUSH2 0x32A PUSH2 0xA84 JUMP JUMPDEST PUSH1 0x0 DUP1 SLOAD PUSH1 0x1 PUSH1 0x1 PUSH1 0xA0 SHL SUB NOT DUP2 AND DUP3 SSTORE PUSH1 0x1 PUSH1 0x1 PUSH1 0xA0 SHL SUB AND PUSH32 0x8BE0079C531659141344CD1FD0A4F28419497F9722A3DAAFE3B4186F6B6457E0 DUP3 DUP1 LOG3 DUP1 RETURN JUMPDEST DUP1 REVERT JUMPDEST POP SWAP1 CALLVALUE PUSH2 0x1B0 JUMPI PUSH1 0x3 NOT SWAP2 PUSH1 0xA0 CALLDATASIZE DUP5 ADD SLT PUSH2 0x4D8 JUMPI PUSH2 0x38B PUSH2 0xA55 JUMP JUMPDEST SWAP3 DUP5 PUSH1 0x44 CALLDATALOAD PUSH8 0xFFFFFFFFFFFFFFFF SWAP3 DUP4 DUP3 GT PUSH2 0x1B0 JUMPI PUSH2 0x140 DUP1 DUP3 DUP5 CALLDATASIZE SUB ADD SLT PUSH2 0x4D8 JUMPI PUSH1 0x64 CALLDATALOAD SWAP2 DUP6 DUP4 GT PUSH2 0x4DC JUMPI DUP3 CALLDATASIZE SUB ADD SLT PUSH2 0x1B0 JUMPI PUSH1 0x1 PUSH1 0x1 PUSH1 0xA0 SHL SUB SWAP1 PUSH1 0x84 CALLDATALOAD DUP3 DUP2 AND SWAP2 SWAP1 DUP3 SWAP1 SUB PUSH2 0x4DC JUMPI PUSH2 0x406 SWAP4 PUSH2 0x42C SWAP3 PUSH2 0x3EB PUSH2 0xA84 JUMP JUMPDEST PUSH2 0x41A DUP11 MLOAD SWAP7 DUP8 SWAP4 PUSH1 0x60 PUSH1 0x20 DUP7 ADD MSTORE PUSH1 0x80 DUP6 ADD SWAP1 DUP13 ADD PUSH2 0x2531 JUMP JUMPDEST PUSH1 0x1F NOT SWAP5 DUP6 DUP6 DUP4 SUB ADD DUP14 DUP7 ADD MSTORE DUP12 ADD PUSH2 0x2531 JUMP JUMPDEST SWAP1 PUSH1 0x60 DUP4 ADD MSTORE SUB SWAP1 DUP2 ADD DUP5 MSTORE DUP4 PUSH2 0xB2A JUMP JUMPDEST DUP1 PUSH32 0x0 AND SWAP1 DUP2 EXTCODESIZE ISZERO PUSH2 0x4D8 JUMPI DUP4 PUSH2 0x493 SWAP9 DUP9 MLOAD SWAP10 DUP11 SWAP6 DUP7 SWAP5 DUP6 SWAP4 PUSH4 0x10AC2DDF PUSH1 0xE2 SHL DUP6 MSTORE ADDRESS DUP13 DUP7 ADD MSTORE AND PUSH1 0x24 DUP5 ADD MSTORE PUSH1 0x24 CALLDATALOAD PUSH1 0x44 DUP5 ADD MSTORE PUSH1 0xA0 PUSH1 0x64 DUP5 ADD MSTORE PUSH1 0xA4 DUP4 ADD SWAP1 PUSH2 0xC8D JUMP JUMPDEST DUP3 PUSH1 0x84 DUP4 ADD MSTORE SUB SWAP3 GAS CALL DUP1 ISZERO PUSH2 0x4CE JUMPI PUSH2 0x4AB JUMPI DUP5 DUP1 RETURN JUMPDEST DUP4 GT PUSH2 0x4BB JUMPI POP MSTORE CODESIZE DUP1 DUP1 DUP1 DUP5 DUP1 RETURN JUMPDEST PUSH4 0x4E487B71 PUSH1 0xE0 SHL DUP5 MSTORE PUSH1 0x41 SWAP1 MSTORE PUSH1 0x24 DUP4 REVERT JUMPDEST DUP4 MLOAD RETURNDATASIZE DUP8 DUP3 RETURNDATACOPY RETURNDATASIZE SWAP1 REVERT JUMPDEST DUP4 DUP1 REVERT JUMPDEST DUP5 DUP1 REVERT JUMPDEST POP CALLVALUE PUSH2 0x1B0 JUMPI PUSH1 0x20 CALLDATASIZE PUSH1 0x3 NOT ADD SLT PUSH2 0x1B0 JUMPI PUSH2 0x4FA PUSH2 0xA55 JUMP JUMPDEST PUSH2 0x502 PUSH2 0xA84 JUMP JUMPDEST PUSH1 0x1 PUSH1 0x1 PUSH1 0xA0 SHL SUB AND SWAP2 DUP3 ISZERO PUSH2 0x52F JUMPI POP POP PUSH12 0xFFFFFFFFFFFFFFFFFFFFFFFF PUSH1 0xA0 SHL PUSH1 0x2 SLOAD AND OR PUSH1 0x2 SSTORE DUP1 RETURN JUMPDEST SWAP1 PUSH1 0x20 PUSH1 0x64 SWAP3 MLOAD SWAP2 PUSH3 0x461BCD PUSH1 0xE5 SHL DUP4 MSTORE DUP3 ADD MSTORE PUSH1 0x17 PUSH1 0x24 DUP3 ADD MSTORE PUSH32 0x43616E6E6F7420736574207A65726F2061646472657373000000000000000000 PUSH1 0x44 DUP3 ADD MSTORE REVERT JUMPDEST POP POP CALLVALUE PUSH2 0x1F8 JUMPI DUP2 PUSH1 0x3 NOT CALLDATASIZE ADD SLT PUSH2 0x1F8 JUMPI MLOAD PUSH32 0x0 PUSH1 0x1 PUSH1 0x1 PUSH1 0xA0 SHL SUB AND DUP2 MSTORE PUSH1 0x20 SWAP1 RETURN JUMPDEST POP SWAP2 CALLVALUE PUSH2 0x36B JUMPI PUSH1 0xA0 CALLDATASIZE PUSH1 0x3 NOT ADD SLT PUSH2 0x36B JUMPI PUSH2 0x5D1 PUSH2 0xA55 JUMP JUMPDEST PUSH1 0x24 DUP1 CALLDATALOAD SWAP5 PUSH1 0x1 PUSH1 0x1 PUSH1 0xA0 SHL SUB SWAP2 SWAP1 PUSH1 0x64 CALLDATALOAD DUP4 DUP2 AND SUB PUSH2 0x4DC JUMPI PUSH1 0x84 CALLDATALOAD SWAP2 PUSH8 0xFFFFFFFFFFFFFFFF SWAP8 DUP9 DUP5 GT PUSH2 0x914 JUMPI CALLDATASIZE PUSH1 0x23 DUP6 ADD SLT ISZERO PUSH2 0x914 JUMPI DUP4 DUP4 ADD CALLDATALOAD DUP10 DUP2 GT PUSH2 0x910 JUMPI DUP5 ADD SWAP5 DUP3 DUP7 ADD CALLDATASIZE DUP2 GT PUSH2 0x8C6 JUMPI DUP2 PUSH32 0x0 AND SWAP7 DUP8 CALLER SUB PUSH2 0x8CE JUMPI DUP7 PUSH1 0x60 SWAP2 SUB SLT PUSH2 0x8C6 JUMPI DUP4 DUP7 ADD CALLDATALOAD DUP12 DUP2 GT PUSH2 0x8CA JUMPI DUP2 DUP6 PUSH2 0x671 SWAP3 DUP10 ADD ADD PUSH2 0xB6A JUMP JUMPDEST SWAP11 PUSH1 0x44 DUP8 ADD CALLDATALOAD SWAP1 DUP2 GT PUSH2 0x8CA JUMPI PUSH1 0x64 SWAP2 DUP6 PUSH2 0x68E SWAP3 DUP10 ADD ADD PUSH2 0xB6A JUMP JUMPDEST SWAP6 ADD CALLDATALOAD DUP2 DUP2 AND DUP1 SWAP2 SUB PUSH2 0x8C6 JUMPI DUP1 ISZERO PUSH2 0x8BA JUMPI SWAP5 JUMPDEST DUP10 MLOAD SWAP11 PUSH2 0x6AF DUP13 PUSH2 0xADC JUMP JUMPDEST PUSH1 0x11 DUP13 MSTORE PUSH1 0x20 SWAP12 DUP8 DUP14 DUP3 ADD PUSH17 0x283937B334BA103932B1B4B834B2B73A1D PUSH1 0x79 SHL SWAP1 MSTORE PUSH2 0x6DA SWAP2 PUSH2 0x2704 JUMP JUMPDEST PUSH2 0x6E3 SWAP1 PUSH2 0xD83 JUMP JUMPDEST POP PUSH1 0x44 CALLDATALOAD DUP4 ADD DUP1 SWAP4 GT PUSH2 0x8A8 JUMPI PUSH2 0x6F9 SWAP1 PUSH2 0xD83 JUMP JUMPDEST SWAP7 DUP3 DUP9 LT PUSH2 0x866 JUMPI DUP10 MLOAD PUSH4 0x95EA7B3 PUSH1 0xE0 SHL DUP2 MSTORE PUSH1 0x1 PUSH1 0x1 PUSH1 0xA0 SHL SUB SWAP1 SWAP8 AND DUP6 DUP9 ADD SWAP1 DUP2 MSTORE PUSH1 0x20 DUP2 ADD DUP5 SWAP1 MSTORE SWAP2 AND SWAP6 SWAP1 DUP11 SWAP1 DUP3 SWAP1 DUP2 SWAP1 PUSH1 0x40 ADD SUB DUP2 DUP12 DUP11 GAS CALL DUP1 ISZERO PUSH2 0x85C JUMPI PUSH2 0x83F JUMPI JUMPDEST POP DUP1 DUP7 GT PUSH2 0x755 JUMPI JUMPDEST DUP9 DUP9 MLOAD PUSH1 0x1 DUP2 MSTORE RETURN JUMPDEST DUP6 SUB SWAP5 DUP6 GT PUSH2 0x82E JUMPI POP SWAP2 DUP4 SWAP2 DUP6 DUP9 SWAP5 PUSH2 0x7A6 PUSH2 0x7DA SWAP9 SWAP8 DUP11 MLOAD PUSH2 0x778 DUP2 PUSH2 0xADC JUMP JUMPDEST PUSH1 0x1D DUP2 MSTORE PUSH32 0x53656E64696E672070726F66697420746F20726563697069656E743A20000000 DUP10 DUP3 ADD MSTORE PUSH2 0x2678 JUMP JUMPDEST DUP9 MLOAD PUSH4 0xA9059CBB PUSH1 0xE0 SHL DUP2 MSTORE PUSH1 0x1 PUSH1 0x1 PUSH1 0xA0 SHL SUB SWAP1 SWAP4 AND SWAP1 DUP4 ADD SWAP1 DUP2 MSTORE PUSH1 0x20 DUP2 ADD SWAP5 SWAP1 SWAP5 MSTORE SWAP1 SWAP6 DUP7 SWAP4 DUP5 SWAP3 SWAP2 DUP4 SWAP2 PUSH1 0x40 ADD SWAP1 JUMP JUMPDEST SUB SWAP3 GAS CALL SWAP1 DUP2 ISZERO PUSH2 0x823 JUMPI POP PUSH2 0x7F6 JUMPI JUMPDEST DUP1 DUP1 DUP1 DUP1 DUP1 DUP1 PUSH2 0x74C JUMP JUMPDEST PUSH2 0x815 SWAP1 DUP4 RETURNDATASIZE DUP6 GT PUSH2 0x81C JUMPI JUMPDEST PUSH2 0x80D DUP2 DUP4 PUSH2 0xB2A JUMP JUMPDEST DUP2 ADD SWAP1 PUSH2 0xC75 JUMP JUMPDEST POP CODESIZE PUSH2 0x7EB JUMP JUMPDEST POP RETURNDATASIZE PUSH2 0x803 JUMP JUMPDEST DUP4 MLOAD SWAP1 RETURNDATASIZE SWAP1 DUP3 RETURNDATACOPY RETURNDATASIZE SWAP1 REVERT JUMPDEST PUSH4 0x4E487B71 PUSH1 0xE0 SHL DUP7 MSTORE PUSH1 0x11 DUP3 MSTORE DUP6 REVERT JUMPDEST PUSH2 0x855 SWAP1 DUP11 RETURNDATASIZE DUP13 GT PUSH2 0x81C JUMPI PUSH2 0x80D DUP2 DUP4 PUSH2 0xB2A JUMP JUMPDEST POP CODESIZE PUSH2 0x743 JUMP JUMPDEST DUP10 MLOAD RETURNDATASIZE DUP11 DUP3 RETURNDATACOPY RETURNDATASIZE SWAP1 REVERT JUMPDEST DUP10 MLOAD PUSH3 0x461BCD PUSH1 0xE5 SHL DUP2 MSTORE DUP1 DUP7 ADD DUP13 SWAP1 MSTORE PUSH1 0x1A DUP2 DUP7 ADD MSTORE PUSH32 0x496E73756666696369656E742072657475726E20616D6F756E74000000000000 PUSH1 0x44 DUP3 ADD MSTORE PUSH1 0x64 SWAP1 REVERT JUMPDEST PUSH4 0x4E487B71 PUSH1 0xE0 SHL DUP10 MSTORE PUSH1 0x11 DUP6 MSTORE DUP4 DUP10 REVERT JUMPDEST POP DUP1 PUSH1 0x2 SLOAD AND SWAP5 PUSH2 0x6A3 JUMP JUMPDEST DUP9 DUP1 REVERT JUMPDEST DUP10 DUP1 REVERT JUMPDEST DUP11 MLOAD PUSH3 0x461BCD PUSH1 0xE5 SHL DUP2 MSTORE PUSH1 0x20 DUP2 DUP9 ADD MSTORE PUSH1 0x17 DUP2 DUP8 ADD MSTORE PUSH32 0x43616C6C6261636B206F6E6C792066726F6D20504F4F4C000000000000000000 PUSH1 0x44 DUP3 ADD MSTORE PUSH1 0x64 SWAP1 REVERT JUMPDEST DUP8 DUP1 REVERT JUMPDEST DUP7 DUP1 REVERT JUMPDEST POP POP CALLVALUE PUSH2 0x1F8 JUMPI DUP2 PUSH1 0x3 NOT CALLDATASIZE ADD SLT PUSH2 0x1F8 JUMPI MLOAD PUSH32 0x0 PUSH1 0x1 PUSH1 0x1 PUSH1 0xA0 SHL SUB AND DUP2 MSTORE PUSH1 0x20 SWAP1 RETURN JUMPDEST POP POP CALLVALUE PUSH2 0x1F8 JUMPI DUP2 PUSH1 0x3 NOT CALLDATASIZE ADD SLT PUSH2 0x1F8 JUMPI MLOAD PUSH32 0x0 PUSH1 0x1 PUSH1 0x1 PUSH1 0xA0 SHL SUB AND DUP2 MSTORE PUSH1 0x20 SWAP1 RETURN JUMPDEST POP CALLVALUE PUSH2 0x1B0 JUMPI PUSH1 0x20 CALLDATASIZE PUSH1 0x3 NOT ADD SLT PUSH2 0x1B0 JUMPI DUP1 CALLDATALOAD SWAP2 PUSH2 0x9BD PUSH2 0xA84 JUMP JUMPDEST PUSH2 0x2710 DUP4 LT ISZERO PUSH2 0x9CF JUMPI POP POP PUSH1 0x1 SSTORE DUP1 RETURN JUMPDEST SWAP1 PUSH1 0x20 PUSH1 0x64 SWAP3 MLOAD SWAP2 PUSH3 0x461BCD PUSH1 0xE5 SHL DUP4 MSTORE DUP3 ADD MSTORE PUSH1 0x1A PUSH1 0x24 DUP3 ADD MSTORE PUSH32 0x496E76616C696420736C69707061676520746F6C6572616E6365000000000000 PUSH1 0x44 DUP3 ADD MSTORE REVERT JUMPDEST DUP5 SWAP1 CALLVALUE PUSH2 0x1F8 JUMPI DUP2 PUSH1 0x3 NOT CALLDATASIZE ADD SLT PUSH2 0x1F8 JUMPI PUSH32 0x0 PUSH1 0x1 PUSH1 0x1 PUSH1 0xA0 SHL SUB AND DUP2 MSTORE PUSH1 0x20 SWAP1 RETURN JUMPDEST PUSH1 0x4 CALLDATALOAD SWAP1 PUSH1 0x1 PUSH1 0x1 PUSH1 0xA0 SHL SUB DUP3 AND DUP3 SUB PUSH2 0xA6B JUMPI JUMP JUMPDEST PUSH1 0x0 DUP1 REVERT JUMPDEST CALLDATALOAD SWAP1 PUSH1 0x1 PUSH1 0x1 PUSH1 0xA0 SHL SUB DUP3 AND DUP3 SUB PUSH2 0xA6B JUMPI JUMP JUMPDEST PUSH1 0x0 SLOAD PUSH1 0x1 PUSH1 0x1 PUSH1 0xA0 SHL SUB AND CALLER SUB PUSH2 0xA98 JUMPI JUMP JUMPDEST PUSH1 0x64 PUSH1 0x40 MLOAD PUSH3 0x461BCD PUSH1 0xE5 SHL DUP2 MSTORE PUSH1 0x20 PUSH1 0x4 DUP3 ADD MSTORE PUSH1 0x20 PUSH1 0x24 DUP3 ADD MSTORE PUSH32 0x4F776E61626C653A2063616C6C6572206973206E6F7420746865206F776E6572 PUSH1 0x44 DUP3 ADD MSTORE REVERT JUMPDEST PUSH1 0x40 DUP2 ADD SWAP1 DUP2 LT PUSH8 0xFFFFFFFFFFFFFFFF DUP3 GT OR PUSH2 0xAF8 JUMPI PUSH1 0x40 MSTORE JUMP JUMPDEST PUSH4 0x4E487B71 PUSH1 0xE0 SHL PUSH1 0x0 MSTORE PUSH1 0x41 PUSH1 0x4 MSTORE PUSH1 0x24 PUSH1 0x0 REVERT JUMPDEST PUSH1 0x60 DUP2 ADD SWAP1 DUP2 LT PUSH8 0xFFFFFFFFFFFFFFFF DUP3 GT OR PUSH2 0xAF8 JUMPI PUSH1 0x40 MSTORE JUMP JUMPDEST SWAP1 PUSH1 0x1F DUP1 NOT SWAP2 ADD AND DUP2 ADD SWAP1 DUP2 LT PUSH8 0xFFFFFFFFFFFFFFFF DUP3 GT OR PUSH2 0xAF8 JUMPI PUSH1 0x40 MSTORE JUMP JUMPDEST CALLDATALOAD SWAP1 PUSH3 0xFFFFFF DUP3 AND DUP3 SUB PUSH2 0xA6B JUMPI JUMP JUMPDEST CALLDATALOAD SWAP1 DUP2 PUSH1 0xF SIGNEXTEND DUP3 SUB PUSH2 0xA6B JUMPI JUMP JUMPDEST SWAP2 SWAP1 PUSH2 0x140 SWAP3 DUP4 DUP2 DUP4 SUB SLT PUSH2 0xA6B JUMPI PUSH1 0x40 MLOAD PUSH8 0xFFFFFFFFFFFFFFFF SWAP5 DUP2 ADD DUP6 DUP2 GT DUP3 DUP3 LT OR PUSH2 0xAF8 JUMPI PUSH1 0x40 MSTORE DUP1 SWAP5 DUP3 CALLDATALOAD PUSH1 0x6 DUP2 LT ISZERO PUSH2 0xA6B JUMPI DUP3 MSTORE PUSH1 0x20 PUSH2 0xBB2 DUP2 DUP6 ADD PUSH2 0xA70 JUMP JUMPDEST DUP2 DUP5 ADD MSTORE PUSH2 0xBC2 PUSH1 0x40 DUP6 ADD PUSH2 0xA70 JUMP JUMPDEST PUSH1 0x40 DUP5 ADD MSTORE PUSH1 0x60 DUP5 ADD CALLDATALOAD PUSH1 0x60 DUP5 ADD MSTORE PUSH1 0x80 DUP5 ADD CALLDATALOAD PUSH1 0x80 DUP5 ADD MSTORE PUSH1 0xA0 DUP5 ADD CALLDATALOAD PUSH1 0xA0 DUP5 ADD MSTORE PUSH2 0xBF1 PUSH1 0xC0 DUP6 ADD PUSH2 0xB4C JUMP JUMPDEST PUSH1 0xC0 DUP5 ADD MSTORE PUSH2 0xC02 PUSH1 0xE0 DUP6 ADD PUSH2 0xB5C JUMP JUMPDEST PUSH1 0xE0 DUP5 ADD MSTORE PUSH2 0x100 PUSH2 0xC15 DUP2 DUP7 ADD PUSH2 0xB5C JUMP JUMPDEST SWAP1 DUP5 ADD MSTORE PUSH2 0x120 SWAP4 DUP5 DUP2 ADD CALLDATALOAD SWAP1 DUP4 DUP3 GT PUSH2 0xA6B JUMPI ADD SWAP2 DUP6 PUSH1 0x1F DUP5 ADD SLT ISZERO PUSH2 0xA6B JUMPI DUP3 CALLDATALOAD SWAP1 DUP2 GT PUSH2 0xAF8 JUMPI PUSH1 0x40 MLOAD SWAP6 PUSH2 0xC56 PUSH1 0x1F DUP4 ADD PUSH1 0x1F NOT AND DUP5 ADD DUP9 PUSH2 0xB2A JUMP JUMPDEST DUP2 DUP8 MSTORE DUP3 DUP3 DUP6 ADD ADD GT PUSH2 0xA6B JUMPI DUP1 DUP3 PUSH1 0x0 SWAP5 ADD DUP4 DUP9 ADD CALLDATACOPY DUP6 ADD ADD MSTORE ADD MSTORE JUMP JUMPDEST SWAP1 DUP2 PUSH1 0x20 SWAP2 SUB SLT PUSH2 0xA6B JUMPI MLOAD DUP1 ISZERO ISZERO DUP2 SUB PUSH2 0xA6B JUMPI SWAP1 JUMP JUMPDEST SWAP2 SWAP1 DUP3 MLOAD SWAP3 DUP4 DUP3 MSTORE PUSH1 0x0 JUMPDEST DUP5 DUP2 LT PUSH2 0xCB9 JUMPI POP POP DUP3 PUSH1 0x0 PUSH1 0x20 DUP1 SWAP5 SWAP6 DUP5 ADD ADD MSTORE PUSH1 0x1F DUP1 NOT SWAP2 ADD AND ADD ADD SWAP1 JUMP JUMPDEST PUSH1 0x20 DUP2 DUP4 ADD DUP2 ADD MLOAD DUP5 DUP4 ADD DUP3 ADD MSTORE ADD PUSH2 0xC98 JUMP JUMPDEST PUSH1 0x0 SWAP1 PUSH1 0x3 RETURNDATASIZE GT PUSH2 0xCDA JUMPI JUMP JUMPDEST SWAP1 POP PUSH1 0x4 PUSH1 0x0 DUP1 RETURNDATACOPY PUSH1 0x0 MLOAD PUSH1 0xE0 SHR SWAP1 JUMP JUMPDEST PUSH1 0x0 PUSH1 0x44 RETURNDATASIZE LT PUSH2 0xD49 JUMPI PUSH1 0x40 MLOAD PUSH1 0x3 NOT SWAP2 RETURNDATASIZE DUP4 ADD PUSH1 0x4 DUP4 RETURNDATACOPY DUP2 MLOAD PUSH8 0xFFFFFFFFFFFFFFFF SWAP2 DUP3 DUP3 GT RETURNDATASIZE PUSH1 0x24 DUP5 ADD GT OR PUSH2 0xD4C JUMPI DUP2 DUP5 ADD SWAP5 DUP6 MLOAD SWAP4 DUP5 GT PUSH2 0xD54 JUMPI RETURNDATASIZE DUP6 ADD ADD PUSH1 0x20 DUP5 DUP8 ADD ADD GT PUSH2 0xD4C JUMPI POP PUSH2 0xD49 SWAP3 SWAP2 ADD PUSH1 0x20 ADD SWAP1 PUSH2 0xB2A JUMP JUMPDEST SWAP1 JUMP JUMPDEST SWAP5 SWAP4 POP POP POP POP JUMP JUMPDEST POP SWAP5 SWAP4 POP POP POP POP JUMP JUMPDEST DUP1 MLOAD PUSH1 0x1 LT ISZERO PUSH2 0xD6D JUMPI PUSH1 0x40 ADD SWAP1 JUMP JUMPDEST PUSH4 0x4E487B71 PUSH1 0xE0 SHL PUSH1 0x0 MSTORE PUSH1 0x32 PUSH1 0x4 MSTORE PUSH1 0x24 PUSH1 0x0 REVERT JUMPDEST PUSH2 0xDBA PUSH1 0x40 MLOAD PUSH2 0xD92 DUP2 PUSH2 0xADC JUMP JUMPDEST PUSH1 0x16 DUP2 MSTORE PUSH22 0x3D3D3D20457865637574696E672053776170203D3D3D PUSH1 0x50 SHL PUSH1 0x20 DUP3 ADD MSTORE PUSH2 0x2629 JUMP JUMPDEST DUP1 MLOAD PUSH1 0x6 DUP2 LT ISZERO PUSH2 0x14EC JUMPI PUSH2 0xDF1 SWAP1 PUSH1 0x40 MLOAD PUSH2 0xDD5 DUP2 PUSH2 0xADC JUMP JUMPDEST PUSH1 0xA DUP2 MSTORE PUSH10 0x2222AC1034B73232BC1D PUSH1 0xB1 SHL PUSH1 0x20 DUP3 ADD MSTORE PUSH2 0x2678 JUMP JUMPDEST PUSH1 0x20 DUP2 ADD DUP1 MLOAD PUSH1 0x40 MLOAD PUSH2 0xE2C SWAP2 PUSH1 0x1 PUSH1 0x1 PUSH1 0xA0 SHL SUB AND SWAP1 PUSH2 0xE11 DUP2 PUSH2 0xADC JUMP JUMPDEST PUSH1 0x9 DUP2 MSTORE PUSH9 0x2A37B5B2B71024B71D PUSH1 0xB9 SHL PUSH1 0x20 DUP3 ADD MSTORE PUSH2 0x2704 JUMP JUMPDEST PUSH1 0x40 DUP3 ADD SWAP1 PUSH2 0xE66 PUSH1 0x1 DUP1 PUSH1 0xA0 SHL SUB DUP4 MLOAD AND PUSH1 0x40 MLOAD PUSH2 0xE4A DUP2 PUSH2 0xADC JUMP JUMPDEST PUSH1 0xA DUP2 MSTORE PUSH10 0x2A37B5B2B71027BABA1D PUSH1 0xB1 SHL PUSH1 0x20 DUP3 ADD MSTORE PUSH2 0x2704 JUMP JUMPDEST PUSH1 0x60 DUP4 ADD SWAP1 PUSH2 0xE98 DUP3 MLOAD PUSH1 0x40 MLOAD PUSH2 0xE7C DUP2 PUSH2 0xADC JUMP JUMPDEST PUSH1 0xA DUP2 MSTORE PUSH10 0x20B6B7BAB73A1024B71D PUSH1 0xB1 SHL PUSH1 0x20 DUP3 ADD MSTORE PUSH2 0x2678 JUMP JUMPDEST PUSH2 0xECD PUSH1 0x80 DUP6 ADD MLOAD PUSH1 0x40 MLOAD PUSH2 0xEAC DUP2 PUSH2 0xADC JUMP JUMPDEST PUSH1 0xF DUP2 MSTORE PUSH15 0x20B6B7BAB73A1027BABA1026B4B71D PUSH1 0x89 SHL PUSH1 0x20 DUP3 ADD MSTORE PUSH2 0x2678 JUMP JUMPDEST DUP4 MLOAD PUSH1 0x6 DUP2 LT ISZERO PUSH2 0x14EC JUMPI PUSH1 0x1 EQ PUSH2 0x2352 JUMPI JUMPDEST PUSH1 0x1 DUP1 PUSH1 0xA0 SHL SUB DUP2 MLOAD AND DUP5 MLOAD PUSH1 0x6 DUP2 LT ISZERO PUSH2 0x14EC JUMPI PUSH2 0xF3A SWAP2 PUSH2 0xF04 PUSH1 0x20 SWAP3 PUSH2 0x241D JUMP JUMPDEST DUP6 MLOAD PUSH1 0x40 MLOAD PUSH4 0x95EA7B3 PUSH1 0xE0 SHL DUP2 MSTORE PUSH1 0x1 PUSH1 0x1 PUSH1 0xA0 SHL SUB SWAP1 SWAP3 AND PUSH1 0x4 DUP4 ADD MSTORE PUSH1 0x24 DUP3 ADD MSTORE SWAP3 DUP4 SWAP2 SWAP1 DUP3 SWAP1 PUSH1 0x0 SWAP1 DUP3 SWAP1 PUSH1 0x44 DUP3 ADD SWAP1 JUMP JUMPDEST SUB SWAP3 GAS CALL DUP1 ISZERO PUSH2 0x2346 JUMPI PUSH2 0x2327 JUMPI JUMPDEST POP PUSH2 0xF88 PUSH1 0x40 MLOAD PUSH2 0xF59 DUP2 PUSH2 0xADC JUMP JUMPDEST PUSH1 0x1B DUP2 MSTORE PUSH32 0x417070726F766564207370656E64696E67206F6620746F6B656E730000000000 PUSH1 0x20 DUP3 ADD MSTORE PUSH2 0x2629 JUMP JUMPDEST PUSH1 0x0 DUP5 MLOAD PUSH1 0x6 DUP2 LT ISZERO PUSH2 0x14EC JUMPI ISZERO DUP1 ISZERO PUSH2 0x2313 JUMPI JUMPDEST ISZERO PUSH2 0x1502 JUMPI POP PUSH2 0xFEB PUSH1 0x40 MLOAD PUSH2 0xFB2 DUP2 PUSH2 0xB0E JUMP JUMPDEST PUSH1 0x21 DUP2 MSTORE PUSH32 0x5573696E6720556E69737761702056322F53757368697377617020726F757465 PUSH1 0x20 DUP3 ADD MSTORE PUSH1 0x39 PUSH1 0xF9 SHL PUSH1 0x40 DUP3 ADD MSTORE PUSH2 0x2629 JUMP JUMPDEST PUSH1 0x40 MLOAD SWAP3 PUSH2 0xFF8 DUP5 PUSH2 0xB0E JUMP JUMPDEST PUSH1 0x2 DUP5 MSTORE PUSH1 0x20 DUP5 ADD SWAP2 PUSH1 0x40 CALLDATASIZE DUP5 CALLDATACOPY MLOAD DUP5 MLOAD PUSH1 0x1 PUSH1 0x1 PUSH1 0xA0 SHL SUB SWAP1 SWAP2 AND SWAP1 ISZERO PUSH2 0xD6D JUMPI DUP3 MSTORE MLOAD PUSH1 0x1 PUSH1 0x1 PUSH1 0xA0 SHL SUB AND PUSH2 0x102F DUP5 PUSH2 0xD5D JUMP JUMPDEST MSTORE DUP4 MLOAD PUSH1 0x6 DUP2 LT ISZERO PUSH2 0x14EC JUMPI PUSH2 0x14C6 JUMPI PUSH32 0x0 JUMPDEST PUSH1 0x1 DUP1 PUSH1 0xA0 SHL SUB AND SWAP2 PUSH2 0x109B DUP4 PUSH1 0x40 MLOAD PUSH2 0x107A DUP2 PUSH2 0xADC JUMP JUMPDEST PUSH1 0xF DUP2 MSTORE PUSH15 0x2937BABA32B91030B2323932B9B99D PUSH1 0x89 SHL PUSH1 0x20 DUP3 ADD MSTORE PUSH2 0x2704 JUMP JUMPDEST MLOAD SWAP3 PUSH1 0x80 DUP6 ADD MLOAD SWAP4 PUSH2 0x12C TIMESTAMP ADD SWAP2 DUP3 TIMESTAMP GT PUSH2 0x14B0 JUMPI PUSH1 0x40 MLOAD PUSH4 0x38ED1739 PUSH1 0xE0 SHL DUP2 MSTORE PUSH1 0x4 DUP2 ADD SWAP3 SWAP1 SWAP3 MSTORE PUSH1 0x24 DUP3 ADD SWAP6 SWAP1 SWAP6 MSTORE PUSH1 0xA0 PUSH1 0x44 DUP3 ADD MSTORE SWAP4 MLOAD PUSH1 0xA4 DUP6 ADD DUP2 SWAP1 MSTORE DUP5 SWAP3 PUSH1 0xC4 DUP5 ADD SWAP3 SWAP2 PUSH1 0x0 JUMPDEST DUP2 DUP2 LT PUSH2 0x148E JUMPI POP POP POP PUSH1 0x0 DUP4 DUP2 SWAP6 SWAP4 DUP2 SWAP4 ADDRESS PUSH1 0x64 DUP5 ADD MSTORE PUSH1 0x84 DUP4 ADD MSTORE SUB SWAP3 GAS CALL PUSH1 0x0 SWAP2 DUP2 PUSH2 0x13F9 JUMPI JUMPDEST POP PUSH2 0x1227 JUMPI PUSH2 0x111F PUSH2 0xCCD JUMP JUMPDEST PUSH4 0x8C379A0 EQ PUSH2 0x11AD JUMPI JUMPDEST PUSH2 0x1168 PUSH1 0x40 MLOAD PUSH2 0x1139 DUP2 PUSH2 0xADC JUMP JUMPDEST PUSH1 0x1E DUP2 MSTORE PUSH32 0x56322053776170204661696C65642077697468206E6F20726561736F6E210000 PUSH1 0x20 DUP3 ADD MSTORE PUSH2 0x2629 JUMP JUMPDEST PUSH1 0x40 MLOAD PUSH3 0x461BCD PUSH1 0xE5 SHL DUP2 MSTORE PUSH1 0x20 PUSH1 0x4 DUP3 ADD MSTORE PUSH1 0x1D PUSH1 0x24 DUP3 ADD MSTORE PUSH32 0x56322073776170206661696C65642077697468206E6F20726561736F6E000000 PUSH1 0x44 DUP3 ADD MSTORE PUSH1 0x64 SWAP1 REVERT JUMPDEST PUSH2 0x11B5 PUSH2 0xCEB JUMP JUMPDEST DUP1 PUSH2 0x11C0 JUMPI POP PUSH2 0x112A JUMP JUMPDEST DUP1 PUSH2 0x1203 PUSH2 0x1223 SWAP3 PUSH1 0x40 MLOAD PUSH2 0x11D4 DUP2 PUSH2 0xADC JUMP JUMPDEST PUSH1 0x17 DUP2 MSTORE PUSH32 0x56322053776170204661696C65642120526561736F6E3A000000000000000000 PUSH1 0x20 DUP3 ADD MSTORE PUSH2 0x26BD JUMP JUMPDEST PUSH1 0x40 MLOAD PUSH3 0x461BCD PUSH1 0xE5 SHL DUP2 MSTORE PUSH1 0x20 PUSH1 0x4 DUP3 ADD MSTORE SWAP2 DUP3 SWAP2 PUSH1 0x24 DUP4 ADD SWAP1 PUSH2 0xC8D JUMP JUMPDEST SUB SWAP1 REVERT JUMPDEST PUSH2 0x1232 PUSH1 0x80 SWAP2 PUSH2 0xD5D JUMP JUMPDEST MLOAD SWAP2 PUSH2 0x1273 DUP4 PUSH1 0x40 MLOAD PUSH2 0x1244 DUP2 PUSH2 0xADC JUMP JUMPDEST PUSH1 0x1C DUP2 MSTORE PUSH32 0x5632205377617020537563636573732120416D6F756E74204F75743A00000000 PUSH1 0x20 DUP3 ADD MSTORE PUSH2 0x2678 JUMP JUMPDEST PUSH2 0x12A6 DUP4 PUSH1 0x40 MLOAD PUSH2 0x1283 DUP2 PUSH2 0xADC JUMP JUMPDEST PUSH1 0x11 DUP2 MSTORE PUSH17 0x2334B730B61030B6B7BAB73A1037BABA1D PUSH1 0x79 SHL PUSH1 0x20 DUP3 ADD MSTORE PUSH2 0x2678 JUMP JUMPDEST PUSH2 0x12DC DUP3 DUP3 ADD MLOAD PUSH1 0x40 MLOAD PUSH2 0x12B9 DUP2 PUSH2 0xADC JUMP JUMPDEST PUSH1 0x11 DUP2 MSTORE PUSH17 0x26B4B734B6BAB6903932B8BAB4B932B21D PUSH1 0x79 SHL PUSH1 0x20 DUP3 ADD MSTORE PUSH2 0x2678 JUMP JUMPDEST ADD MLOAD DUP1 DUP3 LT PUSH2 0x12E9 JUMPI POP SWAP1 JUMP JUMPDEST PUSH1 0x0 DUP1 SWAP2 DUP4 PUSH2 0x13A3 PUSH1 0x40 MLOAD SWAP3 PUSH2 0x12FE DUP5 PUSH2 0xADC JUMP JUMPDEST PUSH1 0x18 DUP5 MSTORE PUSH32 0x494E53554646494349454E54204F55545055543A20476F740000000000000000 PUSH1 0x20 DUP6 ADD MSTORE PUSH1 0x40 MLOAD SWAP1 PUSH2 0x1335 DUP3 PUSH2 0xADC JUMP JUMPDEST PUSH1 0xA DUP3 MSTORE PUSH10 0x189D5D081B9959591959 PUSH1 0xB2 SHL PUSH1 0x20 DUP4 ADD MSTORE PUSH2 0x138F PUSH1 0x40 MLOAD SWAP5 DUP6 SWAP4 PUSH2 0x1378 PUSH1 0x20 DUP7 ADD SWAP9 PUSH4 0xC67EA9D1 PUSH1 0xE0 SHL DUP11 MSTORE PUSH1 0x80 PUSH1 0x24 DUP9 ADD MSTORE PUSH1 0xA4 DUP8 ADD SWAP1 PUSH2 0xC8D JUMP JUMPDEST SWAP2 PUSH1 0x44 DUP7 ADD MSTORE PUSH1 0x23 NOT DUP6 DUP4 SUB ADD PUSH1 0x64 DUP7 ADD MSTORE PUSH2 0xC8D JUMP JUMPDEST SWAP1 PUSH1 0x84 DUP4 ADD MSTORE SUB PUSH1 0x1F NOT DUP2 ADD DUP4 MSTORE DUP3 PUSH2 0xB2A JUMP JUMPDEST MLOAD SWAP1 PUSH11 0x636F6E736F6C652E6C6F67 GAS STATICCALL POP PUSH1 0x40 MLOAD PUSH3 0x461BCD PUSH1 0xE5 SHL DUP2 MSTORE PUSH1 0x20 PUSH1 0x4 DUP3 ADD MSTORE PUSH1 0x1A PUSH1 0x24 DUP3 ADD MSTORE PUSH32 0x496E73756666696369656E74206F757470757420616D6F756E74000000000000 PUSH1 0x44 DUP3 ADD MSTORE PUSH1 0x64 SWAP1 REVERT JUMPDEST SWAP1 SWAP2 POP RETURNDATASIZE DUP1 PUSH1 0x0 DUP4 RETURNDATACOPY PUSH2 0x140C DUP2 DUP4 PUSH2 0xB2A JUMP JUMPDEST DUP2 ADD PUSH1 0x20 DUP3 DUP3 SUB SLT PUSH2 0xA6B JUMPI DUP2 MLOAD PUSH8 0xFFFFFFFFFFFFFFFF SWAP3 DUP4 DUP3 GT PUSH2 0xA6B JUMPI ADD DUP2 PUSH1 0x1F DUP3 ADD SLT ISZERO PUSH2 0xA6B JUMPI DUP1 MLOAD SWAP3 DUP4 GT PUSH2 0xAF8 JUMPI DUP3 PUSH1 0x5 SHL SWAP1 PUSH1 0x40 MLOAD SWAP4 PUSH2 0x1456 PUSH1 0x20 DUP5 ADD DUP7 PUSH2 0xB2A JUMP JUMPDEST DUP5 MSTORE PUSH1 0x20 DUP1 DUP6 ADD SWAP3 DUP3 ADD ADD SWAP3 DUP4 GT PUSH2 0xA6B JUMPI PUSH1 0x20 ADD SWAP1 JUMPDEST DUP3 DUP3 LT PUSH2 0x147E JUMPI POP POP POP SWAP1 CODESIZE PUSH2 0x1112 JUMP JUMPDEST DUP2 MLOAD DUP2 MSTORE PUSH1 0x20 SWAP2 DUP3 ADD SWAP2 ADD PUSH2 0x146D JUMP JUMPDEST DUP3 MLOAD PUSH1 0x1 PUSH1 0x1 PUSH1 0xA0 SHL SUB AND DUP6 MSTORE DUP8 SWAP6 POP PUSH1 0x20 SWAP5 DUP6 ADD SWAP5 SWAP1 SWAP3 ADD SWAP2 PUSH1 0x1 ADD PUSH2 0x10E8 JUMP JUMPDEST PUSH4 0x4E487B71 PUSH1 0xE0 SHL PUSH1 0x0 MSTORE PUSH1 0x11 PUSH1 0x4 MSTORE PUSH1 0x24 PUSH1 0x0 REVERT JUMPDEST PUSH32 0x0 PUSH2 0x1061 JUMP JUMPDEST PUSH4 0x4E487B71 PUSH1 0xE0 SHL PUSH1 0x0 MSTORE PUSH1 0x21 PUSH1 0x4 MSTORE PUSH1 0x24 PUSH1 0x0 REVERT JUMPDEST DUP5 SWAP4 SWAP2 SWAP3 SWAP5 MLOAD PUSH1 0x6 DUP2 LT ISZERO PUSH2 0x14EC JUMPI PUSH1 0x1 SUB PUSH2 0x1AF8 JUMPI POP PUSH2 0x1557 PUSH1 0x40 MLOAD PUSH2 0x1528 DUP2 PUSH2 0xADC JUMP JUMPDEST PUSH1 0x17 DUP2 MSTORE PUSH32 0x5573696E6720556E697377617020563320726F75746572000000000000000000 PUSH1 0x20 DUP3 ADD MSTORE PUSH2 0x2629 JUMP JUMPDEST PUSH2 0x15B5 PUSH1 0x40 MLOAD PUSH2 0x1566 DUP2 PUSH2 0xADC JUMP JUMPDEST PUSH1 0x12 DUP2 MSTORE PUSH18 0x2B19902937BABA32B91030B2323932B9B99D PUSH1 0x71 SHL PUSH1 0x20 DUP3 ADD MSTORE PUSH32 0x0 PUSH1 0x1 PUSH1 0x1 PUSH1 0xA0 SHL SUB AND SWAP1 PUSH2 0x2704 JUMP JUMPDEST PUSH3 0xFFFFFF PUSH1 0xC0 DUP5 ADD PUSH2 0x15FF DUP3 DUP3 MLOAD AND PUSH1 0x40 MLOAD PUSH2 0x15D0 DUP2 PUSH2 0xADC JUMP JUMPDEST PUSH1 0x1C DUP2 MSTORE PUSH32 0x4372656174696E6720563320706172616D732077697468206665653A00000000 PUSH1 0x20 DUP3 ADD MSTORE PUSH2 0x2678 JUMP JUMPDEST MLOAD AND PUSH1 0x64 DUP2 SUB PUSH2 0x1A6E JUMPI POP PUSH1 0x64 SWAP2 JUMPDEST PUSH2 0x1648 PUSH1 0x40 MLOAD PUSH2 0x161D DUP2 PUSH2 0xADC JUMP JUMPDEST PUSH1 0x12 DUP2 MSTORE PUSH18 0x2334B730B6102B19903332B2903A34B2B91D PUSH1 0x71 SHL PUSH1 0x20 DUP3 ADD MSTORE PUSH3 0xFFFFFF DUP6 AND SWAP1 PUSH2 0x2678 JUMP JUMPDEST MLOAD SWAP1 MLOAD PUSH1 0x1 PUSH1 0x1 PUSH1 0xA0 SHL SUB SWAP1 DUP2 AND SWAP5 SWAP2 AND SWAP1 TIMESTAMP PUSH2 0x12C DUP2 ADD LT PUSH2 0x14B0 JUMPI MLOAD SWAP1 PUSH1 0x80 DUP5 ADD MLOAD SWAP3 PUSH1 0x40 MLOAD SWAP6 DUP7 PUSH2 0x100 DUP2 ADD LT PUSH8 0xFFFFFFFFFFFFFFFF PUSH2 0x100 DUP10 ADD GT OR PUSH2 0xAF8 JUMPI PUSH3 0xFFFFFF SWAP3 PUSH2 0x100 DUP9 ADD PUSH1 0x40 MSTORE DUP8 MSTORE PUSH1 0x20 DUP8 ADD MSTORE AND PUSH1 0x40 DUP6 ADD MSTORE ADDRESS PUSH1 0x60 DUP6 ADD MSTORE PUSH2 0x12C TIMESTAMP ADD PUSH1 0x80 DUP6 ADD MSTORE PUSH1 0xA0 DUP5 ADD MSTORE PUSH1 0xC0 DUP4 ADD MSTORE PUSH1 0x0 PUSH1 0xE0 DUP4 ADD MSTORE PUSH2 0x1716 PUSH1 0x40 MLOAD PUSH2 0x16D6 DUP2 PUSH2 0xB0E JUMP JUMPDEST PUSH1 0x28 DUP2 MSTORE PUSH32 0x563320706172616D7320636F6E666967757265642C20617474656D7074696E67 PUSH1 0x20 DUP3 ADD MSTORE PUSH8 0x1039BBB0B8171717 PUSH1 0xC1 SHL PUSH1 0x40 DUP3 ADD MSTORE PUSH2 0x2629 JUMP JUMPDEST DUP2 MLOAD PUSH1 0x40 MLOAD PUSH2 0x1758 SWAP2 PUSH1 0x1 PUSH1 0x1 PUSH1 0xA0 SHL SUB AND SWAP1 PUSH2 0x1732 DUP2 PUSH2 0xADC JUMP JUMPDEST PUSH1 0x14 DUP2 MSTORE PUSH20 0x2B19903830B930B6B99016903A37B5B2B724B71D PUSH1 0x61 SHL PUSH1 0x20 DUP3 ADD MSTORE PUSH2 0x2704 JUMP JUMPDEST PUSH1 0x20 DUP3 ADD MLOAD PUSH1 0x40 MLOAD PUSH2 0x179E SWAP2 PUSH1 0x1 PUSH1 0x1 PUSH1 0xA0 SHL SUB AND SWAP1 PUSH2 0x1777 DUP2 PUSH2 0xADC JUMP JUMPDEST PUSH1 0x15 DUP2 MSTORE PUSH21 0x2B19903830B930B6B99016903A37B5B2B727BABA1D PUSH1 0x59 SHL PUSH1 0x20 DUP3 ADD MSTORE PUSH2 0x2704 JUMP JUMPDEST PUSH2 0x17D9 PUSH3 0xFFFFFF PUSH1 0x40 DUP5 ADD MLOAD AND PUSH1 0x40 MLOAD PUSH2 0x17B7 DUP2 PUSH2 0xADC JUMP JUMPDEST PUSH1 0x10 DUP2 MSTORE PUSH16 0x2B19903830B930B6B99016903332B29D PUSH1 0x81 SHL PUSH1 0x20 DUP3 ADD MSTORE PUSH2 0x2678 JUMP JUMPDEST PUSH2 0x1814 PUSH1 0xA0 DUP4 ADD MLOAD PUSH1 0x40 MLOAD PUSH2 0x17ED DUP2 PUSH2 0xADC JUMP JUMPDEST PUSH1 0x15 DUP2 MSTORE PUSH21 0x2B19903830B930B6B990169030B6B7BAB73A24B71D PUSH1 0x59 SHL PUSH1 0x20 DUP3 ADD MSTORE PUSH2 0x2678 JUMP JUMPDEST PUSH2 0x1857 PUSH1 0xC0 DUP4 ADD MLOAD PUSH1 0x40 MLOAD PUSH2 0x1828 DUP2 PUSH2 0xADC JUMP JUMPDEST PUSH1 0x1D DUP2 MSTORE PUSH32 0x563320706172616D73202D20616D6F756E744F75744D696E696D756D3A000000 PUSH1 0x20 DUP3 ADD MSTORE PUSH2 0x2678 JUMP JUMPDEST PUSH1 0x40 DUP1 MLOAD PUSH4 0x414BF389 PUSH1 0xE0 SHL DUP2 MSTORE DUP4 MLOAD PUSH1 0x1 PUSH1 0x1 PUSH1 0xA0 SHL SUB SWAP1 DUP2 AND PUSH1 0x4 DUP4 ADD MSTORE PUSH1 0x20 DUP1 DUP7 ADD MLOAD DUP3 AND PUSH1 0x24 DUP5 ADD MSTORE SWAP3 DUP6 ADD MLOAD PUSH3 0xFFFFFF AND PUSH1 0x44 DUP4 ADD MSTORE PUSH1 0x60 DUP6 ADD MLOAD DUP2 AND PUSH1 0x64 DUP4 ADD MSTORE PUSH1 0x80 DUP6 ADD MLOAD PUSH1 0x84 DUP4 ADD MSTORE PUSH1 0xA0 DUP6 ADD MLOAD PUSH1 0xA4 DUP4 ADD MSTORE PUSH1 0xC0 DUP6 ADD MLOAD PUSH1 0xC4 DUP4 ADD MSTORE PUSH1 0xE0 SWAP1 SWAP5 ADD MLOAD DUP5 AND PUSH1 0xE4 DUP3 ADD MSTORE SWAP3 DUP4 SWAP1 PUSH2 0x104 SWAP1 DUP3 SWAP1 PUSH1 0x0 SWAP1 PUSH32 0x0 AND GAS CALL PUSH1 0x0 SWAP3 DUP2 PUSH2 0x1A3A JUMPI JUMPDEST POP PUSH2 0x19F3 JUMPI PUSH2 0x190F PUSH2 0xCCD JUMP JUMPDEST PUSH4 0x8C379A0 EQ PUSH2 0x199D JUMPI JUMPDEST PUSH2 0x1958 PUSH1 0x40 MLOAD PUSH2 0x1929 DUP2 PUSH2 0xADC JUMP JUMPDEST PUSH1 0x1E DUP2 MSTORE PUSH32 0x56332053776170204661696C65642077697468206E6F20726561736F6E210000 PUSH1 0x20 DUP3 ADD MSTORE PUSH2 0x2629 JUMP JUMPDEST PUSH1 0x40 MLOAD PUSH3 0x461BCD PUSH1 0xE5 SHL DUP2 MSTORE PUSH1 0x20 PUSH1 0x4 DUP3 ADD MSTORE PUSH1 0x1D PUSH1 0x24 DUP3 ADD MSTORE PUSH32 0x56332073776170206661696C65642077697468206E6F20726561736F6E000000 PUSH1 0x44 DUP3 ADD MSTORE PUSH1 0x64 SWAP1 REVERT JUMPDEST PUSH2 0x19A5 PUSH2 0xCEB JUMP JUMPDEST DUP1 PUSH2 0x19B0 JUMPI POP PUSH2 0x191A JUMP JUMPDEST DUP1 PUSH2 0x1203 PUSH2 0x1223 SWAP3 PUSH1 0x40 MLOAD PUSH2 0x19C4 DUP2 PUSH2 0xADC JUMP JUMPDEST PUSH1 0x17 DUP2 MSTORE PUSH32 0x56332053776170204661696C65642120526561736F6E3A000000000000000000 PUSH1 0x20 DUP3 ADD MSTORE PUSH2 0x26BD JUMP JUMPDEST PUSH1 0x80 SWAP1 PUSH2 0x1A35 DUP4 PUSH1 0x40 MLOAD PUSH2 0x1A06 DUP2 PUSH2 0xADC JUMP JUMPDEST PUSH1 0x1C DUP2 MSTORE PUSH32 0x5633205377617020537563636573732120416D6F756E74204F75743A00000000 PUSH1 0x20 DUP3 ADD MSTORE PUSH2 0x2678 JUMP JUMPDEST PUSH2 0x1273 JUMP JUMPDEST SWAP1 SWAP3 POP PUSH1 0x20 DUP2 RETURNDATASIZE PUSH1 0x20 GT PUSH2 0x1A66 JUMPI JUMPDEST DUP2 PUSH2 0x1A56 PUSH1 0x20 SWAP4 DUP4 PUSH2 0xB2A JUMP JUMPDEST DUP2 ADD SUB SLT PUSH2 0xA6B JUMPI MLOAD SWAP2 CODESIZE PUSH2 0x1902 JUMP JUMPDEST RETURNDATASIZE SWAP2 POP PUSH2 0x1A49 JUMP JUMPDEST PUSH2 0x1F4 SWAP1 DUP1 DUP3 SUB PUSH2 0x1A80 JUMPI POP SWAP2 PUSH2 0x160E JUMP JUMPDEST PUSH2 0xBB8 SWAP2 POP DUP2 DUP2 SUB PUSH2 0x1A93 JUMPI POP SWAP2 PUSH2 0x160E JUMP JUMPDEST PUSH2 0x2710 SWAP2 SWAP1 DUP3 SUB PUSH2 0x1AA5 JUMPI POP SWAP2 PUSH2 0x160E JUMP JUMPDEST SWAP1 POP PUSH2 0x1AF2 PUSH1 0x40 MLOAD PUSH2 0x1AB6 DUP2 PUSH2 0xB0E JUMP JUMPDEST PUSH1 0x24 DUP2 MSTORE PUSH32 0x496E76616C69642066656520746965722C207573696E672064656661756C7420 PUSH1 0x20 DUP3 ADD MSTORE PUSH4 0x3330303 PUSH1 0xE4 SHL PUSH1 0x40 DUP3 ADD MSTORE PUSH2 0x2629 JUMP JUMPDEST SWAP2 PUSH2 0x160E JUMP JUMPDEST DUP4 SWAP5 SWAP2 SWAP5 MLOAD PUSH1 0x6 DUP2 LT ISZERO PUSH2 0x14EC JUMPI PUSH1 0x3 SUB PUSH2 0x1E80 JUMPI POP PUSH2 0x1B44 PUSH1 0x40 MLOAD PUSH2 0x1B1D DUP2 PUSH2 0xADC JUMP JUMPDEST PUSH1 0x15 DUP2 MSTORE PUSH21 0x2AB9B4B733902130B630B731B2B9103937BABA32B9 PUSH1 0x59 SHL PUSH1 0x20 DUP3 ADD MSTORE PUSH2 0x2629 JUMP JUMPDEST PUSH1 0xA0 DUP4 ADD MLOAD SWAP2 MLOAD SWAP4 MLOAD SWAP1 MLOAD PUSH1 0x40 MLOAD SWAP5 PUSH8 0xFFFFFFFFFFFFFFFF SWAP4 SWAP2 SWAP3 PUSH1 0x1 PUSH1 0x1 PUSH1 0xA0 SHL SUB SWAP1 DUP2 AND SWAP3 SWAP2 AND SWAP1 PUSH1 0xC0 DUP8 ADD DUP6 DUP2 GT DUP9 DUP3 LT OR PUSH2 0xAF8 JUMPI PUSH1 0x40 MSTORE DUP7 MSTORE PUSH1 0x0 PUSH1 0x20 DUP8 ADD MSTORE PUSH1 0x40 DUP7 ADD MSTORE PUSH1 0x60 DUP6 ADD MSTORE PUSH1 0x80 DUP5 ADD MSTORE PUSH1 0x40 MLOAD PUSH1 0x20 DUP2 ADD DUP2 DUP2 LT DUP4 DUP3 GT OR PUSH2 0xAF8 JUMPI PUSH1 0x40 MSTORE PUSH1 0x0 DUP2 MSTORE PUSH1 0xA0 DUP5 ADD MSTORE PUSH1 0x40 MLOAD SWAP1 PUSH1 0x80 DUP3 ADD SWAP1 DUP3 DUP3 LT SWAP1 DUP3 GT OR PUSH2 0xAF8 JUMPI PUSH1 0x40 MSTORE ADDRESS DUP2 MSTORE PUSH1 0x0 PUSH1 0x20 DUP3 ADD MSTORE ADDRESS PUSH1 0x40 DUP3 ADD MSTORE PUSH1 0x0 PUSH1 0x60 DUP3 ADD MSTORE PUSH1 0x80 DUP3 ADD MLOAD SWAP1 PUSH2 0x12C TIMESTAMP ADD TIMESTAMP GT PUSH2 0x14B0 JUMPI PUSH1 0x40 MLOAD SWAP4 PUSH4 0x52BBBE29 PUSH1 0xE0 SHL DUP6 MSTORE PUSH1 0xE0 PUSH1 0x4 DUP7 ADD MSTORE DUP1 MLOAD PUSH1 0xE4 DUP7 ADD MSTORE PUSH1 0x20 DUP2 ADD MLOAD SWAP2 PUSH1 0x2 DUP4 LT ISZERO PUSH2 0x14EC JUMPI PUSH1 0x20 SWAP4 PUSH1 0x60 PUSH2 0x1C78 PUSH1 0xA0 DUP10 SWAP7 SWAP6 DUP8 SWAP7 PUSH2 0x104 DUP9 ADD MSTORE PUSH1 0x1 DUP1 DUP4 SHL SUB PUSH1 0x40 DUP3 ADD MLOAD AND PUSH2 0x124 DUP9 ADD MSTORE PUSH1 0x1 DUP1 DUP4 SHL SUB DUP5 DUP3 ADD MLOAD AND PUSH2 0x144 DUP9 ADD MSTORE PUSH1 0x80 DUP2 ADD MLOAD PUSH2 0x164 DUP9 ADD MSTORE ADD MLOAD PUSH1 0xC0 PUSH2 0x184 DUP8 ADD MSTORE PUSH2 0x1A4 DUP7 ADD SWAP1 PUSH2 0xC8D JUMP JUMPDEST DUP4 MLOAD PUSH1 0x1 PUSH1 0x1 PUSH1 0xA0 SHL SUB SWAP1 DUP2 AND PUSH1 0x24 DUP8 ADD MSTORE DUP8 DUP6 ADD MLOAD ISZERO ISZERO PUSH1 0x44 DUP8 ADD MSTORE PUSH1 0x40 DUP6 ADD MLOAD DUP2 AND PUSH1 0x64 DUP8 ADD MSTORE SWAP2 SWAP1 SWAP4 ADD MLOAD ISZERO ISZERO PUSH1 0x84 DUP6 ADD MSTORE PUSH1 0xA4 DUP5 ADD SWAP2 SWAP1 SWAP2 MSTORE TIMESTAMP PUSH2 0x12C ADD PUSH1 0xC4 DUP5 ADD MSTORE SWAP2 SWAP1 SUB SWAP1 DUP3 SWAP1 PUSH1 0x0 SWAP1 PUSH32 0x0 AND GAS CALL PUSH1 0x0 SWAP3 DUP2 PUSH2 0x1E4C JUMPI JUMPDEST POP PUSH2 0x1DFF JUMPI PUSH2 0x1D02 PUSH2 0xCCD JUMP JUMPDEST PUSH4 0x8C379A0 EQ PUSH2 0x1DA9 JUMPI JUMPDEST PUSH2 0x1D58 PUSH1 0x40 MLOAD PUSH2 0x1D1C DUP2 PUSH2 0xB0E JUMP JUMPDEST PUSH1 0x24 DUP2 MSTORE PUSH32 0x42616C616E6365722053776170204661696C65642077697468206E6F20726561 PUSH1 0x20 DUP3 ADD MSTORE PUSH4 0x736F6E21 PUSH1 0xE0 SHL PUSH1 0x40 DUP3 ADD MSTORE PUSH2 0x2629 JUMP JUMPDEST PUSH1 0x40 MLOAD PUSH3 0x461BCD PUSH1 0xE5 SHL DUP2 MSTORE PUSH1 0x20 PUSH1 0x4 DUP3 ADD MSTORE PUSH1 0x23 PUSH1 0x24 DUP3 ADD MSTORE PUSH32 0x42616C616E6365722073776170206661696C65642077697468206E6F20726561 PUSH1 0x44 DUP3 ADD MSTORE PUSH3 0x39B7B7 PUSH1 0xE9 SHL PUSH1 0x64 DUP3 ADD MSTORE PUSH1 0x84 SWAP1 REVERT JUMPDEST PUSH2 0x1DB1 PUSH2 0xCEB JUMP JUMPDEST DUP1 PUSH2 0x1DBC JUMPI POP PUSH2 0x1D0D JUMP JUMPDEST DUP1 PUSH2 0x1203 PUSH2 0x1223 SWAP3 PUSH1 0x40 MLOAD PUSH2 0x1DD0 DUP2 PUSH2 0xADC JUMP JUMPDEST PUSH1 0x1D DUP2 MSTORE PUSH32 0x42616C616E6365722053776170204661696C65642120526561736F6E3A000000 PUSH1 0x20 DUP3 ADD MSTORE PUSH2 0x26BD JUMP JUMPDEST PUSH1 0x80 SWAP1 PUSH2 0x1A35 DUP4 PUSH1 0x40 MLOAD PUSH2 0x1E12 DUP2 PUSH2 0xB0E JUMP JUMPDEST PUSH1 0x22 DUP2 MSTORE PUSH32 0x42616C616E636572205377617020537563636573732120416D6F756E74204F75 PUSH1 0x20 DUP3 ADD MSTORE PUSH2 0x3A1D PUSH1 0xF1 SHL PUSH1 0x40 DUP3 ADD MSTORE PUSH2 0x2678 JUMP JUMPDEST SWAP1 SWAP3 POP PUSH1 0x20 DUP2 RETURNDATASIZE PUSH1 0x20 GT PUSH2 0x1E78 JUMPI JUMPDEST DUP2 PUSH2 0x1E68 PUSH1 0x20 SWAP4 DUP4 PUSH2 0xB2A JUMP JUMPDEST DUP2 ADD SUB SLT PUSH2 0xA6B JUMPI MLOAD SWAP2 CODESIZE PUSH2 0x1CF5 JUMP JUMPDEST RETURNDATASIZE SWAP2 POP PUSH2 0x1E5B JUMP JUMPDEST SWAP2 POP SWAP3 POP DUP2 MLOAD PUSH1 0x6 DUP2 LT ISZERO PUSH2 0x14EC JUMPI PUSH1 0x4 SUB PUSH2 0x20CA JUMPI POP PUSH2 0x1EC8 PUSH1 0x40 MLOAD PUSH2 0x1EA6 DUP2 PUSH2 0xADC JUMP JUMPDEST PUSH1 0x10 DUP2 MSTORE PUSH16 0x155CDA5B99C810DD5C9D99481C1BDBDB PUSH1 0x82 SHL PUSH1 0x20 DUP3 ADD MSTORE PUSH2 0x2629 JUMP JUMPDEST PUSH1 0x20 PUSH1 0x1 DUP1 PUSH1 0xA0 SHL SUB PUSH1 0xA0 DUP4 ADD MLOAD AND SWAP3 PUSH2 0x1F0C DUP5 PUSH1 0x40 MLOAD PUSH2 0x1EE8 DUP2 PUSH2 0xADC JUMP JUMPDEST PUSH1 0x13 DUP2 MSTORE PUSH19 0x21BAB93B32903837B7B61030B2323932B9B99D PUSH1 0x69 SHL DUP6 DUP3 ADD MSTORE PUSH2 0x2704 JUMP JUMPDEST PUSH1 0x84 PUSH1 0xE0 DUP5 ADD MLOAD PUSH1 0xF SIGNEXTEND PUSH1 0x0 PUSH2 0x100 DUP7 ADD MLOAD PUSH1 0xF SIGNEXTEND SWAP4 MLOAD SWAP7 PUSH1 0x80 DUP8 ADD MLOAD PUSH1 0x40 MLOAD SWAP9 DUP10 SWAP7 DUP8 SWAP6 PUSH4 0xF7C0849 PUSH1 0xE2 SHL DUP8 MSTORE PUSH1 0x4 DUP8 ADD MSTORE PUSH1 0x24 DUP7 ADD MSTORE PUSH1 0x44 DUP6 ADD MSTORE PUSH1 0x64 DUP5 ADD MSTORE GAS CALL PUSH1 0x0 SWAP3 DUP2 PUSH2 0x2096 JUMPI JUMPDEST POP PUSH2 0x2054 JUMPI PUSH2 0x1F67 PUSH2 0xCCD JUMP JUMPDEST PUSH4 0x8C379A0 EQ PUSH2 0x1FFE JUMPI JUMPDEST PUSH2 0x1FBA PUSH1 0x40 MLOAD PUSH2 0x1F81 DUP2 PUSH2 0xB0E JUMP JUMPDEST PUSH1 0x21 DUP2 MSTORE PUSH32 0x43757276652053776170204661696C65642077697468206E6F20726561736F6E PUSH1 0x20 DUP3 ADD MSTORE PUSH1 0x21 PUSH1 0xF8 SHL PUSH1 0x40 DUP3 ADD MSTORE PUSH2 0x2629 JUMP JUMPDEST PUSH1 0x64 PUSH1 0x40 MLOAD PUSH3 0x461BCD PUSH1 0xE5 SHL DUP2 MSTORE PUSH1 0x20 PUSH1 0x4 DUP3 ADD MSTORE PUSH1 0x20 PUSH1 0x24 DUP3 ADD MSTORE PUSH32 0x43757276652073776170206661696C65642077697468206E6F20726561736F6E PUSH1 0x44 DUP3 ADD MSTORE REVERT JUMPDEST PUSH2 0x2006 PUSH2 0xCEB JUMP JUMPDEST DUP1 PUSH2 0x2011 JUMPI POP PUSH2 0x1F72 JUMP JUMPDEST DUP1 PUSH2 0x1203 PUSH2 0x1223 SWAP3 PUSH1 0x40 MLOAD PUSH2 0x2025 DUP2 PUSH2 0xADC JUMP JUMPDEST PUSH1 0x1A DUP2 MSTORE PUSH32 0x43757276652053776170204661696C65642120526561736F6E3A000000000000 PUSH1 0x20 DUP3 ADD MSTORE PUSH2 0x26BD JUMP JUMPDEST PUSH1 0x80 SWAP1 PUSH2 0x1A35 DUP4 PUSH1 0x40 MLOAD PUSH2 0x2067 DUP2 PUSH2 0xADC JUMP JUMPDEST PUSH1 0x1F DUP2 MSTORE PUSH32 0x4375727665205377617020537563636573732120416D6F756E74204F75743A00 PUSH1 0x20 DUP3 ADD MSTORE PUSH2 0x2678 JUMP JUMPDEST SWAP1 SWAP3 POP PUSH1 0x20 DUP2 RETURNDATASIZE PUSH1 0x20 GT PUSH2 0x20C2 JUMPI JUMPDEST DUP2 PUSH2 0x20B2 PUSH1 0x20 SWAP4 DUP4 PUSH2 0xB2A JUMP JUMPDEST DUP2 ADD SUB SLT PUSH2 0xA6B JUMPI MLOAD SWAP2 CODESIZE PUSH2 0x1F5A JUMP JUMPDEST RETURNDATASIZE SWAP2 POP PUSH2 0x20A5 JUMP JUMPDEST SWAP2 DUP2 MLOAD PUSH1 0x6 DUP2 LT ISZERO PUSH2 0x14EC JUMPI PUSH1 0x5 EQ PUSH2 0x20E7 JUMPI JUMPDEST POP PUSH1 0x80 SWAP1 PUSH2 0x1273 JUMP JUMPDEST PUSH2 0x2199 SWAP3 POP PUSH1 0x20 SWAP1 PUSH2 0x211E PUSH1 0x40 MLOAD PUSH2 0x20FE DUP2 PUSH2 0xADC JUMP JUMPDEST PUSH1 0xF DUP2 MSTORE PUSH15 0x155CDA5B99C81113D113C81C1BDBDB PUSH1 0x8A SHL DUP5 DUP3 ADD MSTORE PUSH2 0x2629 JUMP JUMPDEST PUSH1 0x1 DUP1 PUSH1 0xA0 SHL SUB PUSH1 0xA0 DUP5 ADD MLOAD AND SWAP1 PUSH2 0x215F DUP3 PUSH1 0x40 MLOAD PUSH2 0x213C DUP2 PUSH2 0xADC JUMP JUMPDEST PUSH1 0x12 DUP2 MSTORE PUSH18 0x2227A227903837B7B61030B2323932B9B99D PUSH1 0x71 SHL DUP7 DUP3 ADD MSTORE PUSH2 0x2704 JUMP JUMPDEST MLOAD SWAP1 PUSH2 0x120 DUP5 ADD MLOAD SWAP2 PUSH1 0x0 PUSH1 0x40 MLOAD DUP1 SWAP8 DUP2 SWAP6 DUP3 SWAP5 PUSH4 0x50DBCE0D PUSH1 0xE0 SHL DUP5 MSTORE ADDRESS PUSH1 0x4 DUP6 ADD MSTORE PUSH1 0x24 DUP5 ADD MSTORE PUSH1 0x60 PUSH1 0x44 DUP5 ADD MSTORE PUSH1 0x64 DUP4 ADD SWAP1 PUSH2 0xC8D JUMP JUMPDEST SUB SWAP3 GAS CALL PUSH1 0x0 SWAP3 DUP2 PUSH2 0x22DF JUMPI JUMPDEST POP PUSH2 0x2297 JUMPI PUSH2 0x21B3 PUSH2 0xCCD JUMP JUMPDEST PUSH4 0x8C379A0 EQ PUSH2 0x2241 JUMPI JUMPDEST PUSH2 0x21FC PUSH1 0x40 MLOAD PUSH2 0x21CD DUP2 PUSH2 0xADC JUMP JUMPDEST PUSH1 0x20 DUP2 MSTORE PUSH32 0x444F444F2053776170204661696C65642077697468206E6F20726561736F6E21 PUSH1 0x20 DUP3 ADD MSTORE PUSH2 0x2629 JUMP JUMPDEST PUSH1 0x40 MLOAD PUSH3 0x461BCD PUSH1 0xE5 SHL DUP2 MSTORE PUSH1 0x20 PUSH1 0x4 DUP3 ADD MSTORE PUSH1 0x1F PUSH1 0x24 DUP3 ADD MSTORE PUSH32 0x444F444F2073776170206661696C65642077697468206E6F20726561736F6E00 PUSH1 0x44 DUP3 ADD MSTORE PUSH1 0x64 SWAP1 REVERT JUMPDEST PUSH2 0x2249 PUSH2 0xCEB JUMP JUMPDEST DUP1 PUSH2 0x2254 JUMPI POP PUSH2 0x21BE JUMP JUMPDEST DUP1 PUSH2 0x1203 PUSH2 0x1223 SWAP3 PUSH1 0x40 MLOAD PUSH2 0x2268 DUP2 PUSH2 0xADC JUMP JUMPDEST PUSH1 0x19 DUP2 MSTORE PUSH32 0x444F444F2053776170204661696C65642120526561736F6E3A00000000000000 PUSH1 0x20 DUP3 ADD MSTORE PUSH2 0x26BD JUMP JUMPDEST PUSH1 0x80 SWAP1 PUSH2 0x22D9 DUP4 PUSH1 0x40 MLOAD PUSH2 0x22AA DUP2 PUSH2 0xADC JUMP JUMPDEST PUSH1 0x1E DUP2 MSTORE PUSH32 0x444F444F205377617020537563636573732120416D6F756E74204F75743A0000 PUSH1 0x20 DUP3 ADD MSTORE PUSH2 0x2678 JUMP JUMPDEST SWAP1 PUSH2 0x20DE JUMP JUMPDEST SWAP1 SWAP3 POP PUSH1 0x20 DUP2 RETURNDATASIZE PUSH1 0x20 GT PUSH2 0x230B JUMPI JUMPDEST DUP2 PUSH2 0x22FB PUSH1 0x20 SWAP4 DUP4 PUSH2 0xB2A JUMP JUMPDEST DUP2 ADD SUB SLT PUSH2 0xA6B JUMPI MLOAD SWAP2 CODESIZE PUSH2 0x21A6 JUMP JUMPDEST RETURNDATASIZE SWAP2 POP PUSH2 0x22EE JUMP JUMPDEST POP DUP5 MLOAD PUSH1 0x6 DUP2 LT ISZERO PUSH2 0x14EC JUMPI PUSH1 0x2 EQ PUSH2 0xF9D JUMP JUMPDEST PUSH2 0x233F SWAP1 PUSH1 0x20 RETURNDATASIZE PUSH1 0x20 GT PUSH2 0x81C JUMPI PUSH2 0x80D DUP2 DUP4 PUSH2 0xB2A JUMP JUMPDEST POP CODESIZE PUSH2 0xF49 JUMP JUMPDEST PUSH1 0x40 MLOAD RETURNDATASIZE PUSH1 0x0 DUP3 RETURNDATACOPY RETURNDATASIZE SWAP1 REVERT JUMPDEST PUSH1 0xC0 DUP5 ADD PUSH3 0xFFFFFF SWAP1 PUSH2 0x2393 DUP3 DUP3 MLOAD AND PUSH1 0x40 MLOAD PUSH2 0x236E DUP2 PUSH2 0xADC JUMP JUMPDEST PUSH1 0x13 DUP2 MSTORE PUSH19 0x2AB734B9BBB0B82B19902332B2902A34B2B91D PUSH1 0x69 SHL PUSH1 0x20 DUP3 ADD MSTORE PUSH2 0x2678 JUMP JUMPDEST MLOAD AND PUSH1 0x64 DUP2 EQ SWAP1 DUP2 ISZERO PUSH2 0x2411 JUMPI JUMPDEST DUP2 ISZERO PUSH2 0x2405 JUMPI JUMPDEST DUP2 ISZERO PUSH2 0x23F9 JUMPI JUMPDEST POP PUSH2 0xEE0 JUMPI PUSH1 0x40 MLOAD PUSH3 0x461BCD PUSH1 0xE5 SHL DUP2 MSTORE PUSH1 0x20 PUSH1 0x4 DUP3 ADD MSTORE PUSH1 0x1B PUSH1 0x24 DUP3 ADD MSTORE PUSH32 0x496E76616C696420556E69737761702056332066656520746965720000000000 PUSH1 0x44 DUP3 ADD MSTORE PUSH1 0x64 SWAP1 REVERT JUMPDEST PUSH2 0x2710 SWAP2 POP EQ CODESIZE PUSH2 0x23AF JUMP JUMPDEST PUSH2 0xBB8 DUP2 EQ SWAP2 POP PUSH2 0x23A8 JUMP JUMPDEST PUSH2 0x1F4 DUP2 EQ SWAP2 POP PUSH2 0x23A1 JUMP JUMPDEST PUSH1 0x6 DUP2 LT ISZERO PUSH2 0x14EC JUMPI DUP1 ISZERO PUSH2 0x2503 JUMPI PUSH1 0x1 DUP2 EQ PUSH2 0x24D5 JUMPI PUSH1 0x2 DUP2 EQ PUSH2 0x24A7 JUMPI PUSH1 0x3 EQ PUSH2 0x247A JUMPI PUSH1 0x40 MLOAD PUSH3 0x461BCD PUSH1 0xE5 SHL DUP2 MSTORE PUSH1 0x20 PUSH1 0x4 DUP3 ADD MSTORE PUSH1 0xF PUSH1 0x24 DUP3 ADD MSTORE PUSH15 0xAADCE6EAE0E0DEE4E8CAC840888AB PUSH1 0x8B SHL PUSH1 0x44 DUP3 ADD MSTORE PUSH1 0x64 SWAP1 REVERT JUMPDEST PUSH32 0x0 PUSH1 0x1 PUSH1 0x1 PUSH1 0xA0 SHL SUB AND SWAP1 JUMP JUMPDEST POP PUSH32 0x0 PUSH1 0x1 PUSH1 0x1 PUSH1 0xA0 SHL SUB AND SWAP1 JUMP JUMPDEST POP PUSH32 0x0 PUSH1 0x1 PUSH1 0x1 PUSH1 0xA0 SHL SUB AND SWAP1 JUMP JUMPDEST POP PUSH32 0x0 PUSH1 0x1 PUSH1 0x1 PUSH1 0xA0 SHL SUB AND SWAP1 JUMP JUMPDEST SWAP1 DUP2 CALLDATALOAD PUSH1 0x6 DUP2 LT ISZERO PUSH2 0xA6B JUMPI DUP2 MSTORE PUSH1 0x1 PUSH1 0x1 PUSH1 0xA0 SHL SUB DUP1 PUSH2 0x2554 PUSH1 0x20 DUP6 ADD PUSH2 0xA70 JUMP JUMPDEST AND PUSH1 0x20 DUP4 ADD MSTORE PUSH2 0x2566 PUSH1 0x40 DUP5 ADD PUSH2 0xA70 JUMP JUMPDEST AND PUSH1 0x40 DUP3 ADD MSTORE PUSH1 0x60 DUP3 ADD CALLDATALOAD PUSH1 0x60 DUP3 ADD MSTORE PUSH1 0x80 DUP3 ADD CALLDATALOAD PUSH1 0x80 DUP3 ADD MSTORE PUSH1 0xA0 DUP3 ADD CALLDATALOAD PUSH1 0xA0 DUP3 ADD MSTORE PUSH3 0xFFFFFF PUSH2 0x259A PUSH1 0xC0 DUP5 ADD PUSH2 0xB4C JUMP JUMPDEST AND PUSH1 0xC0 DUP3 ADD MSTORE PUSH2 0x25AC PUSH1 0xE0 DUP4 ADD PUSH2 0xB5C JUMP JUMPDEST PUSH1 0xF SIGNEXTEND PUSH1 0xE0 DUP3 ADD MSTORE PUSH2 0x100 PUSH2 0x25C2 DUP2 DUP5 ADD PUSH2 0xB5C JUMP JUMPDEST PUSH1 0xF SIGNEXTEND SWAP1 DUP3 ADD MSTORE PUSH2 0x120 SWAP2 DUP3 DUP2 ADD CALLDATALOAD PUSH1 0x1E NOT DUP3 CALLDATASIZE SUB ADD DUP2 SLT ISZERO PUSH2 0xA6B JUMPI ADD PUSH1 0x20 DUP2 CALLDATALOAD SWAP2 ADD SWAP3 PUSH8 0xFFFFFFFFFFFFFFFF DUP3 GT PUSH2 0xA6B JUMPI DUP2 CALLDATASIZE SUB DUP5 SGT PUSH2 0xA6B JUMPI DUP2 SWAP1 PUSH2 0x140 DUP1 SWAP2 DUP6 ADD MSTORE DUP4 ADD MSTORE DUP1 PUSH2 0x160 SWAP4 DUP5 DUP5 ADD CALLDATACOPY PUSH1 0x0 DUP3 DUP3 ADD DUP5 ADD MSTORE PUSH1 0x1F ADD PUSH1 0x1F NOT AND ADD ADD SWAP1 JUMP JUMPDEST PUSH1 0x0 DUP1 SWAP2 PUSH1 0x40 MLOAD PUSH2 0x2665 DUP2 PUSH2 0x2657 PUSH1 0x20 DUP3 ADD SWAP5 PUSH4 0x104C13EB PUSH1 0xE2 SHL DUP7 MSTORE PUSH1 0x20 PUSH1 0x24 DUP5 ADD MSTORE PUSH1 0x44 DUP4 ADD SWAP1 PUSH2 0xC8D JUMP JUMPDEST SUB PUSH1 0x1F NOT DUP2 ADD DUP4 MSTORE DUP3 PUSH2 0xB2A JUMP JUMPDEST MLOAD SWAP1 PUSH11 0x636F6E736F6C652E6C6F67 GAS STATICCALL POP JUMP JUMPDEST PUSH1 0x0 SWAP2 SWAP1 DUP3 SWAP2 PUSH2 0x2665 PUSH1 0x40 MLOAD DUP1 SWAP3 PUSH2 0x26A9 PUSH1 0x20 DUP4 ADD SWAP6 PUSH4 0x2D839CB3 PUSH1 0xE2 SHL DUP8 MSTORE PUSH1 0x40 PUSH1 0x24 DUP6 ADD MSTORE PUSH1 0x64 DUP5 ADD SWAP1 PUSH2 0xC8D JUMP JUMPDEST SWAP1 PUSH1 0x44 DUP4 ADD MSTORE SUB PUSH1 0x1F NOT DUP2 ADD DUP4 MSTORE DUP3 PUSH2 0xB2A JUMP JUMPDEST PUSH1 0x0 SWAP2 SWAP1 PUSH2 0x2657 PUSH2 0x2665 DUP5 SWAP4 PUSH1 0x40 MLOAD SWAP3 DUP4 SWAP2 PUSH2 0x26F2 PUSH1 0x20 DUP5 ADD SWAP7 PUSH4 0x4B5C4277 PUSH1 0xE0 SHL DUP9 MSTORE PUSH1 0x40 PUSH1 0x24 DUP7 ADD MSTORE PUSH1 0x64 DUP6 ADD SWAP1 PUSH2 0xC8D JUMP JUMPDEST DUP4 DUP2 SUB PUSH1 0x23 NOT ADD PUSH1 0x44 DUP6 ADD MSTORE SWAP1 PUSH2 0xC8D JUMP JUMPDEST PUSH1 0x0 SWAP2 SWAP1 DUP3 SWAP2 PUSH2 0x2665 PUSH1 0x40 MLOAD DUP1 SWAP3 PUSH2 0x2735 PUSH1 0x20 DUP4 ADD SWAP6 PUSH4 0x319AF333 PUSH1 0xE0 SHL DUP8 MSTORE PUSH1 0x40 PUSH1 0x24 DUP6 ADD MSTORE PUSH1 0x64 DUP5 ADD SWAP1 PUSH2 0xC8D JUMP JUMPDEST PUSH1 0x1 PUSH1 0x1 PUSH1 0xA0 SHL SUB SWAP2 SWAP1 SWAP2 AND PUSH1 0x44 DUP4 ADD MSTORE SUB PUSH1 0x1F NOT DUP2 ADD DUP4 MSTORE DUP3 PUSH2 0xB2A JUMP INVALID LOG2 PUSH5 0x6970667358 0x22 SLT KECCAK256 0xE3 PUSH28 0xCDF3C164184C4B7BEDEA5D9F792E363958FAD56CA6E82F89C7FA142 SWAP16 SGT PUSH5 0x736F6C6343 STOP ADDMOD EQ STOP CALLER "},"methodIdentifiers":{"ADDRESSES_PROVIDER()":"0542975c","BASIS_POINTS()":"e1f1c4a7","POOL()":"7535d246","aavePool()":"a03e4bc3","balancerVault()":"158274a5","executeArbitrage(address,uint256,(uint8,address,address,uint256,uint256,bytes32,uint24,int128,int128,bytes),(uint8,address,address,uint256,uint256,bytes32,uint24,int128,int128,bytes),address)":"6a135190","executeOperation(address,uint256,uint256,address,bytes)":"1b11d0ff","owner()":"8da5cb5b","profitRecipient()":"7e2bad1e","renounceOwnership()":"715018a6","setProfitRecipient(address)":"4795084f","setSlippageTolerance(uint256)":"117da1ee","slippageTolerance()":"d03153aa","sushiswapRouter()":"e9240c2d","transferOwnership(address)":"f2fde38b","uniswapV2Router()":"1694505e","uniswapV3Router()":"2c76d7a6"}}}}}