{"contracts/QuoterV2Interface.sol":{"QuoterV2Interface":{"abi":[{"inputs":[{"internalType":"address","name":"_factory","type":"address"}],"stateMutability":"nonpayable","type":"constructor"},{"inputs":[],"name":"factory","outputs":[{"internalType":"contract IUniswapV3Factory","name":"","type":"address"}],"stateMutability":"view","type":"function"},{"inputs":[{"components":[{"internalType":"address","name":"tokenIn","type":"address"},{"internalType":"address","name":"tokenOut","type":"address"},{"internalType":"uint24","name":"fee","type":"uint24"},{"internalType":"uint256","name":"amountIn","type":"uint256"},{"internalType":"uint160","name":"sqrtPriceLimitX96","type":"uint160"}],"internalType":"struct QuoterV2Interface.QuoteExactInputSingleParams","name":"params","type":"tuple"}],"name":"quoteExactInputSingle","outputs":[{"components":[{"internalType":"uint256","name":"amountOut","type":"uint256"},{"internalType":"uint160","name":"sqrtPriceX96After","type":"uint160"},{"internalType":"int24","name":"tickAfter","type":"int24"}],"internalType":"struct QuoterV2Interface.QuoteResult","name":"result","type":"tuple"}],"stateMutability":"view","type":"function"}],"evm":{"bytecode":{"linkReferences":{},"object":"60a03461007257601f61077a38819003918201601f19168301916001600160401b038311848410176100775780849260209460405283398101031261007257516001600160a01b03811690819003610072576080526040516106ec908161008e8239608051818181604801526101680152f35b600080fd5b634e487b7160e01b600052604160045260246000fdfe6080604052600436101561001257600080fd5b60003560e01c8063b3b11b7e1461007c5763c45a01551461003257600080fd5b34610077576000366003190112610077576040517f00000000000000000000000000000000000000000000000000000000000000006001600160a01b03168152602090f35b600080fd5b346100775760a03660031901126100775767ffffffffffffffff6101206040526004356001600160a01b0381168103610077576080526024356001600160a01b03811681036100775760a05260443562ffffff811681036100775760c05260643560e0526084356001600160a01b03811681036100775761010052604051906060820190811182821017610585576040908152600080835260208084018290528383019190915260805160a05160c0519351630b4c774160e11b81526001600160a01b039283166004820152908216602482015262ffffff9093166044840152919291839060649082907f0000000000000000000000000000000000000000000000000000000000000000165afa91821561041657600092610564575b506001600160a01b0382161561052957604051633850c7bd60e01b81529060e0826004816001600160a01b0387165afa92831561041657600092600094610491575b50604051630dfe168160e01b815290602090829060049082906001600160a01b03165afa90811561041657600091610462575b5060805160405163313ce56760e01b8152946001600160a01b0390911690602086600481855afa95861561041657600096610422575b5060a05160405163313ce56760e01b8152929190602090849060049082906001600160a01b03165afa928315610416576000936103da575b5060020b926001600160a01b0316036103cb5761029882610657565b905b60e05160c051620f4240916102b49162ffffff16906105f9565b60e0519190048103969087116103885760ff821660ff82168181146000146103235750505050906102ea604093926060966105f9565b851c935b8483526001600160a01b03908116602080850191825293850192835293519485529251909216908301525160020b6040820152f35b949594111561039e5761033d61034893926103429261060c565b610620565b956105f9565b918460601b94808604600160601b14901517156103885784156103725760609460409304936102ee565b634e487b7160e01b600052601260045260246000fd5b634e487b7160e01b600052601160045260246000fd5b956103be604095936103b861033d60609a6103c39661060c565b926105f9565b6105f9565b851c936102ee565b6103d482610693565b9061029a565b9092506020813d60201161040e575b816103f66020938361059b565b8101031261007757610407906105eb565b918761027c565b3d91506103e9565b6040513d6000823e3d90fd5b919095506020823d60201161045a575b8161043f6020938361059b565b81010312610077576104526004926105eb565b959091610244565b3d9150610432565b610484915060203d60201161048a575b61047c818361059b565b8101906105bd565b8461020e565b503d610472565b9250925060e0823d8211610521575b816104ad60e0938361059b565b810103126100775781516001600160a01b0381168103610077576020830151928360020b840361007757806104e6604060c093016105dc565b506104f3606082016105dc565b50610500608082016105dc565b5061050d60a082016105eb565b5001518015150361007757919260206101db565b3d91506104a0565b60405162461bcd60e51b8152602060048201526013602482015272141bdbdb08191bd95cc81b9bdd08195e1a5cdd606a1b6044820152606490fd5b61057e91925060203d60201161048a5761047c818361059b565b9082610199565b634e487b7160e01b600052604160045260246000fd5b90601f8019910116810190811067ffffffffffffffff82111761058557604052565b9081602091031261007757516001600160a01b03811681036100775790565b519061ffff8216820361007757565b519060ff8216820361007757565b8181029291811591840414171561038857565b9060ff8091169116039060ff821161038857565b60ff16604d811161038857600a0a90565b606081901b9190600160601b83050361038857565b600160ff1b81146103885760000390565b620186a09060008112156106865761067161067691610646565b610631565b05801561037257600160601b0490565b61068f90610631565b0590565b620186a09060008112156106ad5761067161068f91610646565b6106769061063156fea26469706673582212202085f09bde140c4eb8ea28d7302f0049eb658039aa849f875e751d659552692e64736f6c63430008140033","opcodes":"PUSH1 0xA0 CALLVALUE PUSH2 0x72 JUMPI PUSH1 0x1F PUSH2 0x77A CODESIZE DUP2 SWAP1 SUB SWAP2 DUP3 ADD PUSH1 0x1F NOT AND DUP4 ADD SWAP2 PUSH1 0x1 PUSH1 0x1 PUSH1 0x40 SHL SUB DUP4 GT DUP5 DUP5 LT OR PUSH2 0x77 JUMPI DUP1 DUP5 SWAP3 PUSH1 0x20 SWAP5 PUSH1 0x40 MSTORE DUP4 CODECOPY DUP2 ADD SUB SLT PUSH2 0x72 JUMPI MLOAD PUSH1 0x1 PUSH1 0x1 PUSH1 0xA0 SHL SUB DUP2 AND SWAP1 DUP2 SWAP1 SUB PUSH2 0x72 JUMPI PUSH1 0x80 MSTORE PUSH1 0x40 MLOAD PUSH2 0x6EC SWAP1 DUP2 PUSH2 0x8E DUP3 CODECOPY PUSH1 0x80 MLOAD DUP2 DUP2 DUP2 PUSH1 0x48 ADD MSTORE PUSH2 0x168 ADD MSTORE RETURN JUMPDEST PUSH1 0x0 DUP1 REVERT JUMPDEST PUSH4 0x4E487B71 PUSH1 0xE0 SHL PUSH1 0x0 MSTORE PUSH1 0x41 PUSH1 0x4 MSTORE PUSH1 0x24 PUSH1 0x0 REVERT INVALID PUSH1 0x80 PUSH1 0x40 MSTORE PUSH1 0x4 CALLDATASIZE LT ISZERO PUSH2 0x12 JUMPI PUSH1 0x0 DUP1 REVERT JUMPDEST PUSH1 0x0 CALLDATALOAD PUSH1 0xE0 SHR DUP1 PUSH4 0xB3B11B7E EQ PUSH2 0x7C JUMPI PUSH4 0xC45A0155 EQ PUSH2 0x32 JUMPI PUSH1 0x0 DUP1 REVERT JUMPDEST CALLVALUE PUSH2 0x77 JUMPI PUSH1 0x0 CALLDATASIZE PUSH1 0x3 NOT ADD SLT PUSH2 0x77 JUMPI PUSH1 0x40 MLOAD PUSH32 0x0 PUSH1 0x1 PUSH1 0x1 PUSH1 0xA0 SHL SUB AND DUP2 MSTORE PUSH1 0x20 SWAP1 RETURN JUMPDEST PUSH1 0x0 DUP1 REVERT JUMPDEST CALLVALUE PUSH2 0x77 JUMPI PUSH1 0xA0 CALLDATASIZE PUSH1 0x3 NOT ADD SLT PUSH2 0x77 JUMPI PUSH8 0xFFFFFFFFFFFFFFFF PUSH2 0x120 PUSH1 0x40 MSTORE PUSH1 0x4 CALLDATALOAD PUSH1 0x1 PUSH1 0x1 PUSH1 0xA0 SHL SUB DUP2 AND DUP2 SUB PUSH2 0x77 JUMPI PUSH1 0x80 MSTORE PUSH1 0x24 CALLDATALOAD PUSH1 0x1 PUSH1 0x1 PUSH1 0xA0 SHL SUB DUP2 AND DUP2 SUB PUSH2 0x77 JUMPI PUSH1 0xA0 MSTORE PUSH1 0x44 CALLDATALOAD PUSH3 0xFFFFFF DUP2 AND DUP2 SUB PUSH2 0x77 JUMPI PUSH1 0xC0 MSTORE PUSH1 0x64 CALLDATALOAD PUSH1 0xE0 MSTORE PUSH1 0x84 CALLDATALOAD PUSH1 0x1 PUSH1 0x1 PUSH1 0xA0 SHL SUB DUP2 AND DUP2 SUB PUSH2 0x77 JUMPI PUSH2 0x100 MSTORE PUSH1 0x40 MLOAD SWAP1 PUSH1 0x60 DUP3 ADD SWAP1 DUP2 GT DUP3 DUP3 LT OR PUSH2 0x585 JUMPI PUSH1 0x40 SWAP1 DUP2 MSTORE PUSH1 0x0 DUP1 DUP4 MSTORE PUSH1 0x20 DUP1 DUP5 ADD DUP3 SWAP1 MSTORE DUP4 DUP4 ADD SWAP2 SWAP1 SWAP2 MSTORE PUSH1 0x80 MLOAD PUSH1 0xA0 MLOAD PUSH1 0xC0 MLOAD SWAP4 MLOAD PUSH4 0xB4C7741 PUSH1 0xE1 SHL DUP2 MSTORE PUSH1 0x1 PUSH1 0x1 PUSH1 0xA0 SHL SUB SWAP3 DUP4 AND PUSH1 0x4 DUP3 ADD MSTORE SWAP1 DUP3 AND PUSH1 0x24 DUP3 ADD MSTORE PUSH3 0xFFFFFF SWAP1 SWAP4 AND PUSH1 0x44 DUP5 ADD MSTORE SWAP2 SWAP3 SWAP2 DUP4 SWAP1 PUSH1 0x64 SWAP1 DUP3 SWAP1 PUSH32 0x0 AND GAS STATICCALL SWAP2 DUP3 ISZERO PUSH2 0x416 JUMPI PUSH1 0x0 SWAP3 PUSH2 0x564 JUMPI JUMPDEST POP PUSH1 0x1 PUSH1 0x1 PUSH1 0xA0 SHL SUB DUP3 AND ISZERO PUSH2 0x529 JUMPI PUSH1 0x40 MLOAD PUSH4 0x3850C7BD PUSH1 0xE0 SHL DUP2 MSTORE SWAP1 PUSH1 0xE0 DUP3 PUSH1 0x4 DUP2 PUSH1 0x1 PUSH1 0x1 PUSH1 0xA0 SHL SUB DUP8 AND GAS STATICCALL SWAP3 DUP4 ISZERO PUSH2 0x416 JUMPI PUSH1 0x0 SWAP3 PUSH1 0x0 SWAP5 PUSH2 0x491 JUMPI JUMPDEST POP PUSH1 0x40 MLOAD PUSH4 0xDFE1681 PUSH1 0xE0 SHL DUP2 MSTORE SWAP1 PUSH1 0x20 SWAP1 DUP3 SWAP1 PUSH1 0x4 SWAP1 DUP3 SWAP1 PUSH1 0x1 PUSH1 0x1 PUSH1 0xA0 SHL SUB AND GAS STATICCALL SWAP1 DUP2 ISZERO PUSH2 0x416 JUMPI PUSH1 0x0 SWAP2 PUSH2 0x462 JUMPI JUMPDEST POP PUSH1 0x80 MLOAD PUSH1 0x40 MLOAD PUSH4 0x313CE567 PUSH1 0xE0 SHL DUP2 MSTORE SWAP5 PUSH1 0x1 PUSH1 0x1 PUSH1 0xA0 SHL SUB SWAP1 SWAP2 AND SWAP1 PUSH1 0x20 DUP7 PUSH1 0x4 DUP2 DUP6 GAS STATICCALL SWAP6 DUP7 ISZERO PUSH2 0x416 JUMPI PUSH1 0x0 SWAP7 PUSH2 0x422 JUMPI JUMPDEST POP PUSH1 0xA0 MLOAD PUSH1 0x40 MLOAD PUSH4 0x313CE567 PUSH1 0xE0 SHL DUP2 MSTORE SWAP3 SWAP2 SWAP1 PUSH1 0x20 SWAP1 DUP5 SWAP1 PUSH1 0x4 SWAP1 DUP3 SWAP1 PUSH1 0x1 PUSH1 0x1 PUSH1 0xA0 SHL SUB AND GAS STATICCALL SWAP3 DUP4 ISZERO PUSH2 0x416 JUMPI PUSH1 0x0 SWAP4 PUSH2 0x3DA JUMPI JUMPDEST POP PUSH1 0x2 SIGNEXTEND SWAP3 PUSH1 0x1 PUSH1 0x1 PUSH1 0xA0 SHL SUB AND SUB PUSH2 0x3CB JUMPI PUSH2 0x298 DUP3 PUSH2 0x657 JUMP JUMPDEST SWAP1 JUMPDEST PUSH1 0xE0 MLOAD PUSH1 0xC0 MLOAD PUSH3 0xF4240 SWAP2 PUSH2 0x2B4 SWAP2 PUSH3 0xFFFFFF AND SWAP1 PUSH2 0x5F9 JUMP JUMPDEST PUSH1 0xE0 MLOAD SWAP2 SWAP1 DIV DUP2 SUB SWAP7 SWAP1 DUP8 GT PUSH2 0x388 JUMPI PUSH1 0xFF DUP3 AND PUSH1 0xFF DUP3 AND DUP2 DUP2 EQ PUSH1 0x0 EQ PUSH2 0x323 JUMPI POP POP POP POP SWAP1 PUSH2 0x2EA PUSH1 0x40 SWAP4 SWAP3 PUSH1 0x60 SWAP7 PUSH2 0x5F9 JUMP JUMPDEST DUP6 SHR SWAP4 JUMPDEST DUP5 DUP4 MSTORE PUSH1 0x1 PUSH1 0x1 PUSH1 0xA0 SHL SUB SWAP1 DUP2 AND PUSH1 0x20 DUP1 DUP6 ADD SWAP2 DUP3 MSTORE SWAP4 DUP6 ADD SWAP3 DUP4 MSTORE SWAP4 MLOAD SWAP5 DUP6 MSTORE SWAP3 MLOAD SWAP1 SWAP3 AND SWAP1 DUP4 ADD MSTORE MLOAD PUSH1 0x2 SIGNEXTEND PUSH1 0x40 DUP3 ADD MSTORE RETURN JUMPDEST SWAP5 SWAP6 SWAP5 GT ISZERO PUSH2 0x39E JUMPI PUSH2 0x33D PUSH2 0x348 SWAP4 SWAP3 PUSH2 0x342 SWAP3 PUSH2 0x60C JUMP JUMPDEST PUSH2 0x620 JUMP JUMPDEST SWAP6 PUSH2 0x5F9 JUMP JUMPDEST SWAP2 DUP5 PUSH1 0x60 SHL SWAP5 DUP1 DUP7 DIV PUSH1 0x1 PUSH1 0x60 SHL EQ SWAP1 ISZERO OR ISZERO PUSH2 0x388 JUMPI DUP5 ISZERO PUSH2 0x372 JUMPI PUSH1 0x60 SWAP5 PUSH1 0x40 SWAP4 DIV SWAP4 PUSH2 0x2EE JUMP JUMPDEST PUSH4 0x4E487B71 PUSH1 0xE0 SHL PUSH1 0x0 MSTORE PUSH1 0x12 PUSH1 0x4 MSTORE PUSH1 0x24 PUSH1 0x0 REVERT JUMPDEST PUSH4 0x4E487B71 PUSH1 0xE0 SHL PUSH1 0x0 MSTORE PUSH1 0x11 PUSH1 0x4 MSTORE PUSH1 0x24 PUSH1 0x0 REVERT JUMPDEST SWAP6 PUSH2 0x3BE PUSH1 0x40 SWAP6 SWAP4 PUSH2 0x3B8 PUSH2 0x33D PUSH1 0x60 SWAP11 PUSH2 0x3C3 SWAP7 PUSH2 0x60C JUMP JUMPDEST SWAP3 PUSH2 0x5F9 JUMP JUMPDEST PUSH2 0x5F9 JUMP JUMPDEST DUP6 SHR SWAP4 PUSH2 0x2EE JUMP JUMPDEST PUSH2 0x3D4 DUP3 PUSH2 0x693 JUMP JUMPDEST SWAP1 PUSH2 0x29A JUMP JUMPDEST SWAP1 SWAP3 POP PUSH1 0x20 DUP2 RETURNDATASIZE PUSH1 0x20 GT PUSH2 0x40E JUMPI JUMPDEST DUP2 PUSH2 0x3F6 PUSH1 0x20 SWAP4 DUP4 PUSH2 0x59B JUMP JUMPDEST DUP2 ADD SUB SLT PUSH2 0x77 JUMPI PUSH2 0x407 SWAP1 PUSH2 0x5EB JUMP JUMPDEST SWAP2 DUP8 PUSH2 0x27C JUMP JUMPDEST RETURNDATASIZE SWAP2 POP PUSH2 0x3E9 JUMP JUMPDEST PUSH1 0x40 MLOAD RETURNDATASIZE PUSH1 0x0 DUP3 RETURNDATACOPY RETURNDATASIZE SWAP1 REVERT JUMPDEST SWAP2 SWAP1 SWAP6 POP PUSH1 0x20 DUP3 RETURNDATASIZE PUSH1 0x20 GT PUSH2 0x45A JUMPI JUMPDEST DUP2 PUSH2 0x43F PUSH1 0x20 SWAP4 DUP4 PUSH2 0x59B JUMP JUMPDEST DUP2 ADD SUB SLT PUSH2 0x77 JUMPI PUSH2 0x452 PUSH1 0x4 SWAP3 PUSH2 0x5EB JUMP JUMPDEST SWAP6 SWAP1 SWAP2 PUSH2 0x244 JUMP JUMPDEST RETURNDATASIZE SWAP2 POP PUSH2 0x432 JUMP JUMPDEST PUSH2 0x484 SWAP2 POP PUSH1 0x20 RETURNDATASIZE PUSH1 0x20 GT PUSH2 0x48A JUMPI JUMPDEST PUSH2 0x47C DUP2 DUP4 PUSH2 0x59B JUMP JUMPDEST DUP2 ADD SWAP1 PUSH2 0x5BD JUMP JUMPDEST DUP5 PUSH2 0x20E JUMP JUMPDEST POP RETURNDATASIZE PUSH2 0x472 JUMP JUMPDEST SWAP3 POP SWAP3 POP PUSH1 0xE0 DUP3 RETURNDATASIZE DUP3 GT PUSH2 0x521 JUMPI JUMPDEST DUP2 PUSH2 0x4AD PUSH1 0xE0 SWAP4 DUP4 PUSH2 0x59B JUMP JUMPDEST DUP2 ADD SUB SLT PUSH2 0x77 JUMPI DUP2 MLOAD PUSH1 0x1 PUSH1 0x1 PUSH1 0xA0 SHL SUB DUP2 AND DUP2 SUB PUSH2 0x77 JUMPI PUSH1 0x20 DUP4 ADD MLOAD SWAP3 DUP4 PUSH1 0x2 SIGNEXTEND DUP5 SUB PUSH2 0x77 JUMPI DUP1 PUSH2 0x4E6 PUSH1 0x40 PUSH1 0xC0 SWAP4 ADD PUSH2 0x5DC JUMP JUMPDEST POP PUSH2 0x4F3 PUSH1 0x60 DUP3 ADD PUSH2 0x5DC JUMP JUMPDEST POP PUSH2 0x500 PUSH1 0x80 DUP3 ADD PUSH2 0x5DC JUMP JUMPDEST POP PUSH2 0x50D PUSH1 0xA0 DUP3 ADD PUSH2 0x5EB JUMP JUMPDEST POP ADD MLOAD DUP1 ISZERO ISZERO SUB PUSH2 0x77 JUMPI SWAP2 SWAP3 PUSH1 0x20 PUSH2 0x1DB JUMP JUMPDEST RETURNDATASIZE SWAP2 POP PUSH2 0x4A0 JUMP JUMPDEST PUSH1 0x40 MLOAD PUSH3 0x461BCD PUSH1 0xE5 SHL DUP2 MSTORE PUSH1 0x20 PUSH1 0x4 DUP3 ADD MSTORE PUSH1 0x13 PUSH1 0x24 DUP3 ADD MSTORE PUSH19 0x141BDBDB08191BD95CC81B9BDD08195E1A5CDD PUSH1 0x6A SHL PUSH1 0x44 DUP3 ADD MSTORE PUSH1 0x64 SWAP1 REVERT JUMPDEST PUSH2 0x57E SWAP2 SWAP3 POP PUSH1 0x20 RETURNDATASIZE PUSH1 0x20 GT PUSH2 0x48A JUMPI PUSH2 0x47C DUP2 DUP4 PUSH2 0x59B JUMP JUMPDEST SWAP1 DUP3 PUSH2 0x199 JUMP JUMPDEST PUSH4 0x4E487B71 PUSH1 0xE0 SHL PUSH1 0x0 MSTORE PUSH1 0x41 PUSH1 0x4 MSTORE PUSH1 0x24 PUSH1 0x0 REVERT JUMPDEST SWAP1 PUSH1 0x1F DUP1 NOT SWAP2 ADD AND DUP2 ADD SWAP1 DUP2 LT PUSH8 0xFFFFFFFFFFFFFFFF DUP3 GT OR PUSH2 0x585 JUMPI PUSH1 0x40 MSTORE JUMP JUMPDEST SWAP1 DUP2 PUSH1 0x20 SWAP2 SUB SLT PUSH2 0x77 JUMPI MLOAD PUSH1 0x1 PUSH1 0x1 PUSH1 0xA0 SHL SUB DUP2 AND DUP2 SUB PUSH2 0x77 JUMPI SWAP1 JUMP JUMPDEST MLOAD SWAP1 PUSH2 0xFFFF DUP3 AND DUP3 SUB PUSH2 0x77 JUMPI JUMP JUMPDEST MLOAD SWAP1 PUSH1 0xFF DUP3 AND DUP3 SUB PUSH2 0x77 JUMPI JUMP JUMPDEST DUP2 DUP2 MUL SWAP3 SWAP2 DUP2 ISZERO SWAP2 DUP5 DIV EQ OR ISZERO PUSH2 0x388 JUMPI JUMP JUMPDEST SWAP1 PUSH1 0xFF DUP1 SWAP2 AND SWAP2 AND SUB SWAP1 PUSH1 0xFF DUP3 GT PUSH2 0x388 JUMPI JUMP JUMPDEST PUSH1 0xFF AND PUSH1 0x4D DUP2 GT PUSH2 0x388 JUMPI PUSH1 0xA EXP SWAP1 JUMP JUMPDEST PUSH1 0x60 DUP2 SWAP1 SHL SWAP2 SWAP1 PUSH1 0x1 PUSH1 0x60 SHL DUP4 SDIV SUB PUSH2 0x388 JUMPI JUMP JUMPDEST PUSH1 0x1 PUSH1 0xFF SHL DUP2 EQ PUSH2 0x388 JUMPI PUSH1 0x0 SUB SWAP1 JUMP JUMPDEST PUSH3 0x186A0 SWAP1 PUSH1 0x0 DUP2 SLT ISZERO PUSH2 0x686 JUMPI PUSH2 0x671 PUSH2 0x676 SWAP2 PUSH2 0x646 JUMP JUMPDEST PUSH2 0x631 JUMP JUMPDEST SDIV DUP1 ISZERO PUSH2 0x372 JUMPI PUSH1 0x1 PUSH1 0x60 SHL DIV SWAP1 JUMP JUMPDEST PUSH2 0x68F SWAP1 PUSH2 0x631 JUMP JUMPDEST SDIV SWAP1 JUMP JUMPDEST PUSH3 0x186A0 SWAP1 PUSH1 0x0 DUP2 SLT ISZERO PUSH2 0x6AD JUMPI PUSH2 0x671 PUSH2 0x68F SWAP2 PUSH2 0x646 JUMP JUMPDEST PUSH2 0x676 SWAP1 PUSH2 0x631 JUMP INVALID LOG2 PUSH5 0x6970667358 0x22 SLT KECCAK256 KECCAK256 DUP6 CREATE SWAP12 0xDE EQ 0xC 0x4E 0xB8 0xEA 0x28 0xD7 ADDRESS 0x2F STOP 0x49 0xEB PUSH6 0x8039AA849F87 0x5E PUSH22 0x1D659552692E64736F6C634300081400330000000000 "},"methodIdentifiers":{"factory()":"c45a0155","quoteExactInputSingle((address,address,uint24,uint256,uint160))":"b3b11b7e"}}}}}