{
    "contractName": "FlashLoanArbitrage",
    "abi": [
        {
            "inputs": [
                {
                    "internalType": "address",
                    "name": "_provider",
                    "type": "address"
                },
                {
                    "internalType": "address",
                    "name": "_uniRouter",
                    "type": "address"
                },
                {
                    "internalType": "address",
                    "name": "_sushiRouter",
                    "type": "address"
                }
            ],
            "stateMutability": "nonpayable",
            "type": "constructor"
        },
        {
            "anonymous": false,
            "inputs": [
                {
                    "indexed": false,
                    "internalType": "uint256",
                    "name": "profit",
                    "type": "uint256"
                }
            ],
            "name": "ArbitrageExecuted",
            "type": "event"
        },
        {
            "inputs": [],
            "name": "ADDRESSES_PROVIDER",
            "outputs": [
                {
                    "internalType": "contract IPoolAddressesProvider",
                    "name": "",
                    "type": "address"
                }
            ],
            "stateMutability": "view",
            "type": "function"
        },
        {
            "inputs": [],
            "name": "POOL",
            "outputs": [
                {
                    "internalType": "contract IPool",
                    "name": "",
                    "type": "address"
                }
            ],
            "stateMutability": "view",
            "type": "function"
        },
        {
            "inputs": [
                {
                    "internalType": "address",
                    "name": "asset",
                    "type": "address"
                },
                {
                    "internalType": "uint256",
                    "name": "amount",
                    "type": "uint256"
                },
                {
                    "internalType": "uint256",
                    "name": "premium",
                    "type": "uint256"
                },
                {
                    "internalType": "address",
                    "name": "initiator",
                    "type": "address"
                },
                {
                    "internalType": "bytes",
                    "name": "params",
                    "type": "bytes"
                }
            ],
            "name": "executeOperation",
            "outputs": [
                {
                    "internalType": "bool",
                    "name": "",
                    "type": "bool"
                }
            ],
            "stateMutability": "nonpayable",
            "type": "function"
        },
        {
            "inputs": [],
            "name": "owner",
            "outputs": [
                {
                    "internalType": "address payable",
                    "name": "",
                    "type": "address"
                }
            ],
            "stateMutability": "view",
            "type": "function"
        },
        {
            "inputs": [
                {
                    "internalType": "address",
                    "name": "asset",
                    "type": "address"
                },
                {
                    "internalType": "uint256",
                    "name": "amount",
                    "type": "uint256"
                },
                {
                    "internalType": "address[]",
                    "name": "path",
                    "type": "address[]"
                },
                {
                    "internalType": "bool",
                    "name": "buyOnUni",
                    "type": "bool"
                }
            ],
            "name": "requestFlashLoan",
            "outputs": [],
            "stateMutability": "nonpayable",
            "type": "function"
        },
        {
            "inputs": [],
            "name": "sushiswapRouter",
            "outputs": [
                {
                    "internalType": "contract IUniswapV2Router02",
                    "name": "",
                    "type": "address"
                }
            ],
            "stateMutability": "view",
            "type": "function"
        },
        {
            "inputs": [],
            "name": "uniswapRouter",
            "outputs": [
                {
                    "internalType": "contract IUniswapV2Router02",
                    "name": "",
                    "type": "address"
                }
            ],
            "stateMutability": "view",
            "type": "function"
        },
        {
            "stateMutability": "payable",
            "type": "receive"
        }
    ],
    "bytecode": "60c080604052346200012657606081620010bc80380380916200002382856200013e565b8339810103126200012657620000398162000176565b6200005560406200004d6020850162000176565b930162000176565b6001600160a01b03918216608081905260405163026b1d5f60e01b815290602090829060049082905afa8015620001335783915f91620000eb575b501660a0528160018060a01b03199333855f5416175f551683600154161760015516906002541617600255604051610f3090816200018c823960805181610d2f015260a05181818161015a015281816102df01526107460152f35b9150506020813d6020116200012a575b816200010a602093836200013e565b8101031262000126576200011f839162000176565b5f62000090565b5f80fd5b3d9150620000fb565b6040513d5f823e3d90fd5b601f909101601f19168101906001600160401b038211908210176200016257604052565b634e487b7160e01b5f52604160045260245ffd5b51906001600160a01b0382168203620001265756fe608080604052600436101561001c575b50361561001a575f80fd5b005b5f905f3560e01c9081630542975c14610d1d575080631b11d0ff14610336578063735de9f71461030e5780637535d246146102ca5780638da5cb5b146102a3578063b1946a561461009c5763e9240c2d0361000f57346100995780600319360112610099576002546040516001600160a01b039091168152602090f35b80fd5b503461023c57608036600319011261023c576100b6610d5e565b602467ffffffffffffffff60443581811161023c573660238201121561023c57806004013582811161023c5736848260051b8401011161023c5760643580151580910361023c575f546001600160a01b0393908416330361026657906040519182916020948060608501604060208701525288608085019301905f5b87828210610240575050505060408301520391610157601f1993848101845283610d88565b837f00000000000000000000000000000000000000000000000000000000000000001693843b1561023c576040516310ac2ddf60e21b81523060048201529716868801528535604488015260a06064880152815160a488018190525f94889490939092905b8287106102235750505f945060c4848093601f848985819786010152856084850152011681010301925af18015610218576101f5578380f35b9091809350116102055750604052005b634e487b7160e01b5f9081526041600452fd5b6040513d5f823e3d90fd5b8681018201518a880160c40152958101958995506101bc565b5f80fd5b83965060019294958a610254839496610d74565b16815201950191019185949392610132565b60405162461bcd60e51b815260206004820152601681880152754f6e6c79206f776e65722063616e206578656375746560501b6044820152606490fd5b3461023c575f36600319011261023c575f546040516001600160a01b039091168152602090f35b3461023c575f36600319011261023c576040517f00000000000000000000000000000000000000000000000000000000000000006001600160a01b03168152602090f35b3461023c575f36600319011261023c576001546040516001600160a01b039091168152602090f35b3461023c5760a036600319011261023c5761034f610d5e565b6064356001600160a01b0381160361023c5760843567ffffffffffffffff80821161023c573660238301121561023c57816004013581811161023c57820191602483019236841161023c5781604091031261023c57602481013582811161023c578101928060438501121561023c5760248401356103cc81610daa565b946103da6040519687610d88565b8186526044602087019260051b82010192831161023c57604401905b828210610d05575050506044013591821515830361023c576002815103610ccc5760784201421161083f57604051916060830190811183821017610cb8576040526002825260403660208401376001600160a01b0361045482610dc2565b511661045f83610de6565b526001600160a01b0361047182610de6565b511661047c83610dc2565b528215610c7b576001546040805163d06ca61f60e01b8152602480356004830152810191909152905f9082906001600160a01b031681806104c06044820188610e6d565b03915afa8015610218576104db915f9161093f575b50610dc2565b519260638402938085046063149015171561083f57156109e65760015460405163095ea7b360e01b81526001600160a01b0390911660048201526024803590820152602081806044810103815f6001600160a01b038a165af18015610218575f94859261057e926109c7575b5060018060a01b0360015416906040519687809481936338ed173960e01b8352607842019089606430920460243560048701610ec1565b03925af1928315610218576024936109ad575b5060206001600160a01b036105a583610dc2565b5116604051948580926370a0823160e01b82523060048301525afa928315610218575f93610978575b506106299060209084906001600160a01b03906105ea90610dc2565b5160025460405163095ea7b360e01b81526001600160a01b039091166004820152602481019390935291938492919091169082905f9082906044820190565b03925af1801561021857610959575b5060018060a01b03600254169160405163d06ca61f60e01b8152816004820152604060248201525f818061066f6044820187610e6d565b0381875afa80156102185761068a915f9161093f5750610dc2565b519260638402938085046063149015171561083f576106ce935f8094604051968795869485936338ed173960e01b8552607842019260643093049060048701610ec1565b03925af180156102185761091d575b505b6044356024350190816024351161083f576040516370a0823160e01b81523060048201526001600160a01b039190911691602082602481865afa918215610218575f926108e9575b508082106108a45760405163095ea7b360e01b81526001600160a01b037f0000000000000000000000000000000000000000000000000000000000000000166004820152602481018290526020816044815f885af1801561021857610885575b508082111561085357810390811161083f575f805460405163a9059cbb60e01b81526001600160a01b0390911660048201526024810183905292602091849160449183915af1908115610218577fc3dff9ec2a9266191f204f1e39b6d5cebfc2c3d718964dd6699f5e8e6d010fb092602092610812575b50604051908152a15b602060405160018152f35b61083190833d8511610838575b6108298183610d88565b810190610ea9565b50836107fe565b503d61081f565b634e487b7160e01b5f52601160045260245ffd5b5050507fc3dff9ec2a9266191f204f1e39b6d5cebfc2c3d718964dd6699f5e8e6d010fb060206040515f8152a1610807565b61089d9060203d602011610838576108298183610d88565b5083610787565b60405162461bcd60e51b815260206004820152601e60248201527f4e6f7420656e6f7567682066756e647320746f207265706179206c6f616e00006044820152606490fd5b9091506020813d602011610915575b8161090560209383610d88565b8101031261023c57519083610727565b3d91506108f8565b610938903d805f833e6109308183610d88565b810190610df3565b50816106dd565b61095391503d805f833e6109308183610d88565b866104d5565b6109719060203d602011610838576108298183610d88565b5083610638565b9092506020813d6020116109a5575b8161099460209383610d88565b8101031261023c57519160206105ce565b3d9150610987565b6109c0903d805f833e6109308183610d88565b5084610591565b6109df9060203d602011610838576108298183610d88565b5087610547565b60025460405163095ea7b360e01b81526001600160a01b0390911660048201526024803590820152602081806044810103815f6001600160a01b038a165af18015610218575f948592610a6f92610c5c575b5060018060a01b0360025416906040519687809481936338ed173960e01b8352607842019089606430920460243560048701610ec1565b03925af192831561021857602493610c42575b5060206001600160a01b03610a9683610dc2565b5116604051948580926370a0823160e01b82523060048301525afa928315610218575f93610c0d575b50610b1a9060209084906001600160a01b0390610adb90610dc2565b5160015460405163095ea7b360e01b81526001600160a01b039091166004820152602481019390935291938492919091169082905f9082906044820190565b03925af1801561021857610bee575b5060018060a01b03600154169160405163d06ca61f60e01b8152816004820152604060248201525f8180610b606044820187610e6d565b0381875afa801561021857610b7b915f9161093f5750610dc2565b519260638402938085046063149015171561083f57610bbf935f8094604051968795869485936338ed173960e01b8552607842019260643093049060048701610ec1565b03925af1801561021857610bd4575b506106df565b610be7903d805f833e6109308183610d88565b5081610bce565b610c069060203d602011610838576108298183610d88565b5083610b29565b9092506020813d602011610c3a575b81610c2960209383610d88565b8101031261023c5751916020610abf565b3d9150610c1c565b610c55903d805f833e6109308183610d88565b5084610a82565b610c749060203d602011610838576108298183610d88565b5087610a38565b6002546040805163d06ca61f60e01b8152602480356004830152810191909152905f9082906001600160a01b031681806104c06044820188610e6d565b634e487b7160e01b5f52604160045260245ffd5b60405162461bcd60e51b8152602060048201526011602482015270092dcecc2d8d2c840e6eec2e040e0c2e8d607b1b6044820152606490fd5b60208091610d1284610d74565b8152019101906103f6565b3461023c575f36600319011261023c577f00000000000000000000000000000000000000000000000000000000000000006001600160a01b03168152602090f35b600435906001600160a01b038216820361023c57565b35906001600160a01b038216820361023c57565b90601f8019910116810190811067ffffffffffffffff821117610cb857604052565b67ffffffffffffffff8111610cb85760051b60200190565b805160011015610dd25760400190565b634e487b7160e01b5f52603260045260245ffd5b805115610dd25760200190565b602090818184031261023c5780519067ffffffffffffffff821161023c57019180601f8401121561023c578251610e2981610daa565b93610e376040519586610d88565b818552838086019260051b82010192831161023c578301905b828210610e5e575050505090565b81518152908301908301610e50565b9081518082526020808093019301915f5b828110610e8c575050505090565b83516001600160a01b031685529381019392810192600101610e7e565b9081602091031261023c5751801515810361023c5790565b9192608093610ee692979695978452602084015260a0604084015260a0830190610e6d565b6001600160a01b039095166060820152015256fea26469706673582212202ab486334732f2f9348397d20479b3691d1f83f4a50220c2bfd6d8f7746ec7a864736f6c63430008160033",
    "sourcePath": "e:/Projects/flash-loan-arbitrage-bot/contracts/Arbitrage.sol",
    "compiler": {
        "name": "solc",
        "version": "0.8.22+commit.4fc1097e"
    },
    "functionHashes": {
        "ADDRESSES_PROVIDER()": "0542975c",
        "POOL()": "7535d246",
        "executeOperation(address,uint256,uint256,address,bytes)": "1b11d0ff",
        "owner()": "8da5cb5b",
        "requestFlashLoan(address,uint256,address[],bool)": "b1946a56",
        "sushiswapRouter()": "e9240c2d",
        "uniswapRouter()": "735de9f7"
    },
    "gasEstimates": {
        "creation": {
            "codeDepositCost": "777600",
            "executionCost": "infinite",
            "totalCost": "infinite"
        },
        "external": {
            "ADDRESSES_PROVIDER()": "infinite",
            "POOL()": "infinite",
            "executeOperation(address,uint256,uint256,address,bytes)": "infinite",
            "owner()": "2372",
            "requestFlashLoan(address,uint256,address[],bool)": "infinite",
            "sushiswapRouter()": "2414",
            "uniswapRouter()": "2329"
        }
    }
}