{
  "_format": "hh-sol-artifact-1",
  "contractName": "QuoterV2Interface",
  "sourceName": "contracts/QuoterV2Interface.sol",
  "abi": [
    {
      "inputs": [
        {
          "internalType": "address",
          "name": "_factory",
          "type": "address"
        }
      ],
      "stateMutability": "nonpayable",
      "type": "constructor"
    },
    {
      "inputs": [],
      "name": "factory",
      "outputs": [
        {
          "internalType": "contract IUniswapV3Factory",
          "name": "",
          "type": "address"
        }
      ],
      "stateMutability": "view",
      "type": "function"
    },
    {
      "inputs": [
        {
          "components": [
            {
              "internalType": "address",
              "name": "tokenIn",
              "type": "address"
            },
            {
              "internalType": "address",
              "name": "tokenOut",
              "type": "address"
            },
            {
              "internalType": "uint24",
              "name": "fee",
              "type": "uint24"
            },
            {
              "internalType": "uint256",
              "name": "amountIn",
              "type": "uint256"
            },
            {
              "internalType": "uint160",
              "name": "sqrtPriceLimitX96",
              "type": "uint160"
            }
          ],
          "internalType": "struct QuoterV2Interface.QuoteExactInputSingleParams",
          "name": "params",
          "type": "tuple"
        }
      ],
      "name": "quoteExactInputSingle",
      "outputs": [
        {
          "components": [
            {
              "internalType": "uint256",
              "name": "amountOut",
              "type": "uint256"
            },
            {
              "internalType": "uint160",
              "name": "sqrtPriceX96After",
              "type": "uint160"
            },
            {
              "internalType": "int24",
              "name": "tickAfter",
              "type": "int24"
            }
          ],
          "internalType": "struct QuoterV2Interface.QuoteResult",
          "name": "result",
          "type": "tuple"
        }
      ],
      "stateMutability": "view",
      "type": "function"
    }
  ],
  "bytecode": "0x60a03461007257601f61077a38819003918201601f19168301916001600160401b038311848410176100775780849260209460405283398101031261007257516001600160a01b03811690819003610072576080526040516106ec908161008e8239608051818181604801526101680152f35b600080fd5b634e487b7160e01b600052604160045260246000fdfe6080604052600436101561001257600080fd5b60003560e01c8063b3b11b7e1461007c5763c45a01551461003257600080fd5b34610077576000366003190112610077576040517f00000000000000000000000000000000000000000000000000000000000000006001600160a01b03168152602090f35b600080fd5b346100775760a03660031901126100775767ffffffffffffffff6101206040526004356001600160a01b0381168103610077576080526024356001600160a01b03811681036100775760a05260443562ffffff811681036100775760c05260643560e0526084356001600160a01b03811681036100775761010052604051906060820190811182821017610585576040908152600080835260208084018290528383019190915260805160a05160c0519351630b4c774160e11b81526001600160a01b039283166004820152908216602482015262ffffff9093166044840152919291839060649082907f0000000000000000000000000000000000000000000000000000000000000000165afa91821561041657600092610564575b506001600160a01b0382161561052957604051633850c7bd60e01b81529060e0826004816001600160a01b0387165afa92831561041657600092600094610491575b50604051630dfe168160e01b815290602090829060049082906001600160a01b03165afa90811561041657600091610462575b5060805160405163313ce56760e01b8152946001600160a01b0390911690602086600481855afa95861561041657600096610422575b5060a05160405163313ce56760e01b8152929190602090849060049082906001600160a01b03165afa928315610416576000936103da575b5060020b926001600160a01b0316036103cb5761029882610657565b905b60e05160c051620f4240916102b49162ffffff16906105f9565b60e0519190048103969087116103885760ff821660ff82168181146000146103235750505050906102ea604093926060966105f9565b851c935b8483526001600160a01b03908116602080850191825293850192835293519485529251909216908301525160020b6040820152f35b949594111561039e5761033d61034893926103429261060c565b610620565b956105f9565b918460601b94808604600160601b14901517156103885784156103725760609460409304936102ee565b634e487b7160e01b600052601260045260246000fd5b634e487b7160e01b600052601160045260246000fd5b956103be604095936103b861033d60609a6103c39661060c565b926105f9565b6105f9565b851c936102ee565b6103d482610693565b9061029a565b9092506020813d60201161040e575b816103f66020938361059b565b8101031261007757610407906105eb565b918761027c565b3d91506103e9565b6040513d6000823e3d90fd5b919095506020823d60201161045a575b8161043f6020938361059b565b81010312610077576104526004926105eb565b959091610244565b3d9150610432565b610484915060203d60201161048a575b61047c818361059b565b8101906105bd565b8461020e565b503d610472565b9250925060e0823d8211610521575b816104ad60e0938361059b565b810103126100775781516001600160a01b0381168103610077576020830151928360020b840361007757806104e6604060c093016105dc565b506104f3606082016105dc565b50610500608082016105dc565b5061050d60a082016105eb565b5001518015150361007757919260206101db565b3d91506104a0565b60405162461bcd60e51b8152602060048201526013602482015272141bdbdb08191bd95cc81b9bdd08195e1a5cdd606a1b6044820152606490fd5b61057e91925060203d60201161048a5761047c818361059b565b9082610199565b634e487b7160e01b600052604160045260246000fd5b90601f8019910116810190811067ffffffffffffffff82111761058557604052565b9081602091031261007757516001600160a01b03811681036100775790565b519061ffff8216820361007757565b519060ff8216820361007757565b8181029291811591840414171561038857565b9060ff8091169116039060ff821161038857565b60ff16604d811161038857600a0a90565b606081901b9190600160601b83050361038857565b600160ff1b81146103885760000390565b620186a09060008112156106865761067161067691610646565b610631565b05801561037257600160601b0490565b61068f90610631565b0590565b620186a09060008112156106ad5761067161068f91610646565b6106769061063156fea26469706673582212202085f09bde140c4eb8ea28d7302f0049eb658039aa849f875e751d659552692e64736f6c63430008140033",
  "linkReferences": {},
  "deployedLinkReferences": {}
}