{
  "_format": "hh-sol-artifact-1",
  "contractName": "Arbitrage",
  "sourceName": "contracts/Arbitrage.sol",
  "abi": [
    {
      "inputs": [
        {
          "internalType": "address",
          "name": "_provider",
          "type": "address"
        },
        {
          "internalType": "address",
          "name": "_uniV2Router",
          "type": "address"
        },
        {
          "internalType": "address",
          "name": "_uniV3Router",
          "type": "address"
        },
        {
          "internalType": "address",
          "name": "_sushiRouter",
          "type": "address"
        },
        {
          "internalType": "address",
          "name": "_balancerVault",
          "type": "address"
        }
      ],
      "stateMutability": "nonpayable",
      "type": "constructor"
    },
    {
      "anonymous": false,
      "inputs": [
        {
          "indexed": true,
          "internalType": "address",
          "name": "previousOwner",
          "type": "address"
        },
        {
          "indexed": true,
          "internalType": "address",
          "name": "newOwner",
          "type": "address"
        }
      ],
      "name": "OwnershipTransferred",
      "type": "event"
    },
    {
      "inputs": [],
      "name": "ADDRESSES_PROVIDER",
      "outputs": [
        {
          "internalType": "contract IPoolAddressesProvider",
          "name": "",
          "type": "address"
        }
      ],
      "stateMutability": "view",
      "type": "function"
    },
    {
      "inputs": [],
      "name": "BASIS_POINTS",
      "outputs": [
        {
          "internalType": "uint256",
          "name": "",
          "type": "uint256"
        }
      ],
      "stateMutability": "view",
      "type": "function"
    },
    {
      "inputs": [],
      "name": "POOL",
      "outputs": [
        {
          "internalType": "contract IPool",
          "name": "",
          "type": "address"
        }
      ],
      "stateMutability": "view",
      "type": "function"
    },
    {
      "inputs": [],
      "name": "aavePool",
      "outputs": [
        {
          "internalType": "contract IPool",
          "name": "",
          "type": "address"
        }
      ],
      "stateMutability": "view",
      "type": "function"
    },
    {
      "inputs": [],
      "name": "balancerVault",
      "outputs": [
        {
          "internalType": "contract IBalancerVault",
          "name": "",
          "type": "address"
        }
      ],
      "stateMutability": "view",
      "type": "function"
    },
    {
      "inputs": [
        {
          "internalType": "address",
          "name": "asset",
          "type": "address"
        },
        {
          "internalType": "uint256",
          "name": "amount",
          "type": "uint256"
        },
        {
          "components": [
            {
              "internalType": "enum Arbitrage.DEX",
              "name": "dex",
              "type": "uint8"
            },
            {
              "internalType": "address",
              "name": "tokenIn",
              "type": "address"
            },
            {
              "internalType": "address",
              "name": "tokenOut",
              "type": "address"
            },
            {
              "internalType": "uint256",
              "name": "amountIn",
              "type": "uint256"
            },
            {
              "internalType": "uint256",
              "name": "amountOutMin",
              "type": "uint256"
            },
            {
              "internalType": "bytes32",
              "name": "poolId",
              "type": "bytes32"
            },
            {
              "internalType": "uint24",
              "name": "fee",
              "type": "uint24"
            },
            {
              "internalType": "int128",
              "name": "i",
              "type": "int128"
            },
            {
              "internalType": "int128",
              "name": "j",
              "type": "int128"
            },
            {
              "internalType": "bytes",
              "name": "extraData",
              "type": "bytes"
            }
          ],
          "internalType": "struct Arbitrage.SwapParams",
          "name": "firstSwap",
          "type": "tuple"
        },
        {
          "components": [
            {
              "internalType": "enum Arbitrage.DEX",
              "name": "dex",
              "type": "uint8"
            },
            {
              "internalType": "address",
              "name": "tokenIn",
              "type": "address"
            },
            {
              "internalType": "address",
              "name": "tokenOut",
              "type": "address"
            },
            {
              "internalType": "uint256",
              "name": "amountIn",
              "type": "uint256"
            },
            {
              "internalType": "uint256",
              "name": "amountOutMin",
              "type": "uint256"
            },
            {
              "internalType": "bytes32",
              "name": "poolId",
              "type": "bytes32"
            },
            {
              "internalType": "uint24",
              "name": "fee",
              "type": "uint24"
            },
            {
              "internalType": "int128",
              "name": "i",
              "type": "int128"
            },
            {
              "internalType": "int128",
              "name": "j",
              "type": "int128"
            },
            {
              "internalType": "bytes",
              "name": "extraData",
              "type": "bytes"
            }
          ],
          "internalType": "struct Arbitrage.SwapParams",
          "name": "secondSwap",
          "type": "tuple"
        },
        {
          "internalType": "address",
          "name": "recipient",
          "type": "address"
        }
      ],
      "name": "executeArbitrage",
      "outputs": [],
      "stateMutability": "nonpayable",
      "type": "function"
    },
    {
      "inputs": [
        {
          "internalType": "address",
          "name": "asset",
          "type": "address"
        },
        {
          "internalType": "uint256",
          "name": "amount",
          "type": "uint256"
        },
        {
          "internalType": "uint256",
          "name": "premium",
          "type": "uint256"
        },
        {
          "internalType": "address",
          "name": "initiator",
          "type": "address"
        },
        {
          "internalType": "bytes",
          "name": "params",
          "type": "bytes"
        }
      ],
      "name": "executeOperation",
      "outputs": [
        {
          "internalType": "bool",
          "name": "",
          "type": "bool"
        }
      ],
      "stateMutability": "nonpayable",
      "type": "function"
    },
    {
      "inputs": [],
      "name": "owner",
      "outputs": [
        {
          "internalType": "address",
          "name": "",
          "type": "address"
        }
      ],
      "stateMutability": "view",
      "type": "function"
    },
    {
      "inputs": [],
      "name": "profitRecipient",
      "outputs": [
        {
          "internalType": "address",
          "name": "",
          "type": "address"
        }
      ],
      "stateMutability": "view",
      "type": "function"
    },
    {
      "inputs": [],
      "name": "renounceOwnership",
      "outputs": [],
      "stateMutability": "nonpayable",
      "type": "function"
    },
    {
      "inputs": [
        {
          "internalType": "address",
          "name": "_profitRecipient",
          "type": "address"
        }
      ],
      "name": "setProfitRecipient",
      "outputs": [],
      "stateMutability": "nonpayable",
      "type": "function"
    },
    {
      "inputs": [
        {
          "internalType": "uint256",
          "name": "_slippageTolerance",
          "type": "uint256"
        }
      ],
      "name": "setSlippageTolerance",
      "outputs": [],
      "stateMutability": "nonpayable",
      "type": "function"
    },
    {
      "inputs": [],
      "name": "slippageTolerance",
      "outputs": [
        {
          "internalType": "uint256",
          "name": "",
          "type": "uint256"
        }
      ],
      "stateMutability": "view",
      "type": "function"
    },
    {
      "inputs": [],
      "name": "sushiswapRouter",
      "outputs": [
        {
          "internalType": "contract IUniswapV2Router02",
          "name": "",
          "type": "address"
        }
      ],
      "stateMutability": "view",
      "type": "function"
    },
    {
      "inputs": [
        {
          "internalType": "address",
          "name": "newOwner",
          "type": "address"
        }
      ],
      "name": "transferOwnership",
      "outputs": [],
      "stateMutability": "nonpayable",
      "type": "function"
    },
    {
      "inputs": [],
      "name": "uniswapV2Router",
      "outputs": [
        {
          "internalType": "contract IUniswapV2Router02",
          "name": "",
          "type": "address"
        }
      ],
      "stateMutability": "view",
      "type": "function"
    },
    {
      "inputs": [],
      "name": "uniswapV3Router",
      "outputs": [
        {
          "internalType": "contract IUniswapV3Router",
          "name": "",
          "type": "address"
        }
      ],
      "stateMutability": "view",
      "type": "function"
    },
    {
      "stateMutability": "payable",
      "type": "receive"
    }
  ],
  "bytecode": "0x6101606040818152346200028b5760a08262002a6a803803809162000025828562000290565b8339810103126200028b576200003b82620002ca565b906020906200004c828501620002ca565b926200005a828601620002ca565b906200007760806200006f60608901620002ca565b9701620002ca565b6001600160a01b039182166080819052845163026b1d5f60e01b80825292979291908781600481855afa90811562000280579188939186959360009162000233575b509085600493921660a052600054918660018060a01b031999338b8616176000558b519889978896823391167f8be0079c531659141344cd1fd0a4f28419497f9722a3daafe3b4186f6b6457e0600080a360c86001551660c0521660e052876101009d168d52876101209c168c5282525afa9485156200022857600095620001e4575b50506101409316835233906002541617600255519161278a9384620002e0853960805184610a26015260a0518481816102e20152610626015260c05184818161092d015281816110410152612506015260e05184818161058701528181611587015281816118d701526124d80152518381816101c9015281816114c801526124aa01525182818161097101528181611cca015261247c01525181818161024d015261042f0152f35b8181969293963d831162000220575b620001ff818362000290565b810103126200021d57506200021490620002ca565b9238806200013c565b80fd5b503d620001f3565b84513d6000823e3d90fd5b8581949692939597503d831162000278575b62000251818362000290565b810103126200021d57508792859492856200026e600494620002ca565b91929350620000b9565b503d62000245565b87513d6000823e3d90fd5b600080fd5b601f909101601f19168101906001600160401b03821190821017620002b457604052565b634e487b7160e01b600052604160045260246000fd5b51906001600160a01b03821682036200028b5756fe60806040818152600480361015610021575b505050361561001f57600080fd5b005b600092833560e01c9081630542975c14610a1257508063117da1ee146109a0578063158274a51461095c5780631694505e146109185780631b11d0ff146105b65780632c76d7a6146105725780634795084f146104e05780636a1351901461036e578063715018a6146103115780637535d246146102cd5780637e2bad1e146102a45780638da5cb5b1461027c578063a03e4bc314610238578063d03153aa14610219578063e1f1c4a7146101fc578063e9240c2d146101b45763f2fde38b0361001157346101b05760203660031901126101b0576100fe610a55565b90610107610a84565b6001600160a01b0391821692831561015e575050600054826bffffffffffffffffffffffff60a01b821617600055167f8be0079c531659141344cd1fd0a4f28419497f9722a3daafe3b4186f6b6457e0600080a380f35b906020608492519162461bcd60e51b8352820152602660248201527f4f776e61626c653a206e6577206f776e657220697320746865207a65726f206160448201526564647265737360d01b6064820152fd5b8280fd5b5050346101f857816003193601126101f857517f00000000000000000000000000000000000000000000000000000000000000006001600160a01b03168152602090f35b5080fd5b5050346101f857816003193601126101f857602090516127108152f35b5050346101f857816003193601126101f8576020906001549051908152f35b5050346101f857816003193601126101f857517f00000000000000000000000000000000000000000000000000000000000000006001600160a01b03168152602090f35b5050346101f857816003193601126101f857905490516001600160a01b039091168152602090f35b5050346101f857816003193601126101f85760025490516001600160a01b039091168152602090f35b5050346101f857816003193601126101f857517f00000000000000000000000000000000000000000000000000000000000000006001600160a01b03168152602090f35b833461036b578060031936011261036b5761032a610a84565b600080546001600160a01b0319811682556001600160a01b03167f8be0079c531659141344cd1fd0a4f28419497f9722a3daafe3b4186f6b6457e08280a380f35b80fd5b5090346101b0576003199160a0368401126104d85761038b610a55565b928460443567ffffffffffffffff928382116101b057610140808284360301126104d857606435918583116104dc5782360301126101b0576001600160a01b039060843582811691908290036104dc576104069361042c926103eb610a84565b61041a8a519687936060602086015260808501908c01612531565b601f199485858303018d8601528b01612531565b90606083015203908101845283610b2a565b807f00000000000000000000000000000000000000000000000000000000000000001690813b156104d85783610493988851998a95869485936310ac2ddf60e21b8552308c860152166024840152602435604484015260a0606484015260a4830190610c8d565b82608483015203925af180156104ce576104ab578480f35b83116104bb575052388080808480f35b634e487b7160e01b845260419052602483fd5b83513d87823e3d90fd5b8380fd5b8480fd5b50346101b05760203660031901126101b0576104fa610a55565b610502610a84565b6001600160a01b031691821561052f5750506bffffffffffffffffffffffff60a01b600254161760025580f35b906020606492519162461bcd60e51b8352820152601760248201527f43616e6e6f7420736574207a65726f20616464726573730000000000000000006044820152fd5b5050346101f857816003193601126101f857517f00000000000000000000000000000000000000000000000000000000000000006001600160a01b03168152602090f35b50913461036b5760a036600319011261036b576105d1610a55565b60248035946001600160a01b039190606435838116036104dc576084359167ffffffffffffffff9788841161091457366023850112156109145783830135898111610910578401948286013681116108c657817f000000000000000000000000000000000000000000000000000000000000000016968733036108ce578660609103126108c657838601358b81116108ca57818561067192890101610b6a565b9a60448701359081116108ca576064918561068e92890101610b6a565b9501358181168091036108c65780156108ba57945b89519a6106af8c610adc565b60118c5260209b878d820170283937b334ba103932b1b4b834b2b73a1d60791b90526106da91612704565b6106e390610d83565b5060443583018093116108a8576106f990610d83565b9682881061086657895163095ea7b360e01b81526001600160a01b0390971685880190815260208101849052911695908a908290819060400103818b8a5af1801561085c5761083f575b50808611610755575b88885160018152f35b850394851161082e57509183918588946107a66107da98978a5161077881610adc565b601d81527f53656e64696e672070726f66697420746f20726563697069656e743a2000000089820152612678565b885163a9059cbb60e01b81526001600160a01b03909316908301908152602081019490945290958693849291839160400190565b03925af190811561082357506107f6575b80808080808061074c565b61081590833d851161081c575b61080d8183610b2a565b810190610c75565b50386107eb565b503d610803565b8351903d90823e3d90fd5b634e487b7160e01b86526011825285fd5b610855908a3d8c1161081c5761080d8183610b2a565b5038610743565b89513d8a823e3d90fd5b895162461bcd60e51b81528086018c9052601a818601527f496e73756666696369656e742072657475726e20616d6f756e740000000000006044820152606490fd5b634e487b7160e01b8952601185528389fd5b508060025416946106a3565b8880fd5b8980fd5b8a5162461bcd60e51b81526020818801526017818701527f43616c6c6261636b206f6e6c792066726f6d20504f4f4c0000000000000000006044820152606490fd5b8780fd5b8680fd5b5050346101f857816003193601126101f857517f00000000000000000000000000000000000000000000000000000000000000006001600160a01b03168152602090f35b5050346101f857816003193601126101f857517f00000000000000000000000000000000000000000000000000000000000000006001600160a01b03168152602090f35b50346101b05760203660031901126101b0578035916109bd610a84565b6127108310156109cf57505060015580f35b906020606492519162461bcd60e51b8352820152601a60248201527f496e76616c696420736c69707061676520746f6c6572616e63650000000000006044820152fd5b8490346101f857816003193601126101f8577f00000000000000000000000000000000000000000000000000000000000000006001600160a01b03168152602090f35b600435906001600160a01b0382168203610a6b57565b600080fd5b35906001600160a01b0382168203610a6b57565b6000546001600160a01b03163303610a9857565b606460405162461bcd60e51b815260206004820152602060248201527f4f776e61626c653a2063616c6c6572206973206e6f7420746865206f776e65726044820152fd5b6040810190811067ffffffffffffffff821117610af857604052565b634e487b7160e01b600052604160045260246000fd5b6060810190811067ffffffffffffffff821117610af857604052565b90601f8019910116810190811067ffffffffffffffff821117610af857604052565b359062ffffff82168203610a6b57565b359081600f0b8203610a6b57565b9190610140928381830312610a6b5760405167ffffffffffffffff94810185811182821017610af857604052809482356006811015610a6b5782526020610bb2818501610a70565b81840152610bc260408501610a70565b6040840152606084013560608401526080840135608084015260a084013560a0840152610bf160c08501610b4c565b60c0840152610c0260e08501610b5c565b60e0840152610100610c15818601610b5c565b90840152610120938481013590838211610a6b57019185601f84011215610a6b578235908111610af85760405195610c56601f8301601f1916840188610b2a565b818752828285010111610a6b5780826000940183880137850101520152565b90816020910312610a6b57518015158103610a6b5790565b919082519283825260005b848110610cb9575050826000602080949584010152601f8019910116010190565b602081830181015184830182015201610c98565b60009060033d11610cda57565b905060046000803e60005160e01c90565b600060443d10610d4957604051600319913d83016004833e815167ffffffffffffffff918282113d602484011117610d4c57818401948551938411610d54573d85010160208487010111610d4c5750610d4992910160200190610b2a565b90565b949350505050565b50949350505050565b805160011015610d6d5760400190565b634e487b7160e01b600052603260045260246000fd5b610dba604051610d9281610adc565b60168152753d3d3d20457865637574696e672053776170203d3d3d60501b6020820152612629565b805160068110156114ec57610df190604051610dd581610adc565b600a8152692222ac1034b73232bc1d60b11b6020820152612678565b602081018051604051610e2c916001600160a01b031690610e1181610adc565b60098152682a37b5b2b71024b71d60b91b6020820152612704565b6040820190610e6660018060a01b03835116604051610e4a81610adc565b600a8152692a37b5b2b71027baba1d60b11b6020820152612704565b6060830190610e988251604051610e7c81610adc565b600a81526920b6b7bab73a1024b71d60b11b6020820152612678565b610ecd6080850151604051610eac81610adc565b600f81526e20b6b7bab73a1027baba1026b4b71d60891b6020820152612678565b835160068110156114ec57600114612352575b60018060a01b03815116845160068110156114ec57610f3a91610f0460209261241d565b855160405163095ea7b360e01b81526001600160a01b039092166004830152602482015292839190829060009082906044820190565b03925af1801561234657612327575b50610f88604051610f5981610adc565b601b81527f417070726f766564207370656e64696e67206f6620746f6b656e7300000000006020820152612629565b6000845160068110156114ec57158015612313575b156115025750610feb604051610fb281610b0e565b602181527f5573696e6720556e69737761702056322f53757368697377617020726f7574656020820152603960f91b6040820152612629565b60405192610ff884610b0e565b60028452602084019160403684375184516001600160a01b039091169015610d6d578252516001600160a01b031661102f84610d5d565b52835160068110156114ec576114c6577f00000000000000000000000000000000000000000000000000000000000000005b60018060a01b03169161109b8360405161107a81610adc565b600f81526e2937baba32b91030b2323932b9b99d60891b6020820152612704565b519260808501519361012c4201918242116114b0576040516338ed173960e01b81526004810192909252602482019590955260a06044820152935160a48501819052849260c48401929160005b81811061148e575050506000838195938193306064840152608483015203925af1600091816113f9575b506112275761111f610ccd565b6308c379a0146111ad575b61116860405161113981610adc565b601e81527f56322053776170204661696c65642077697468206e6f20726561736f6e2100006020820152612629565b60405162461bcd60e51b815260206004820152601d60248201527f56322073776170206661696c65642077697468206e6f20726561736f6e0000006044820152606490fd5b6111b5610ceb565b806111c0575061112a565b80611203611223926040516111d481610adc565b601781527f56322053776170204661696c65642120526561736f6e3a00000000000000000060208201526126bd565b60405162461bcd60e51b8152602060048201529182916024830190610c8d565b0390fd5b611232608091610d5d565b51916112738360405161124481610adc565b601c81527f5632205377617020537563636573732120416d6f756e74204f75743a000000006020820152612678565b6112a68360405161128381610adc565b60118152702334b730b61030b6b7bab73a1037baba1d60791b6020820152612678565b6112dc828201516040516112b981610adc565b601181527026b4b734b6bab6903932b8bab4b932b21d60791b6020820152612678565b01518082106112e9575090565b60008091836113a3604051926112fe84610adc565b601884527f494e53554646494349454e54204f55545055543a20476f74000000000000000060208501526040519061133582610adc565b600a825269189d5d081b995959195960b21b602083015261138f604051948593611378602086019863c67ea9d160e01b8a526080602488015260a4870190610c8d565b916044860152602319858303016064860152610c8d565b90608483015203601f198101835282610b2a565b51906a636f6e736f6c652e6c6f675afa5060405162461bcd60e51b815260206004820152601a60248201527f496e73756666696369656e74206f757470757420616d6f756e740000000000006044820152606490fd5b9091503d806000833e61140c8183610b2a565b8101602082820312610a6b57815167ffffffffffffffff92838211610a6b570181601f82011215610a6b578051928311610af8578260051b90604051936114566020840186610b2a565b8452602080850192820101928311610a6b57602001905b82821061147e575050509038611112565b815181526020918201910161146d565b82516001600160a01b03168552879550602094850194909201916001016110e8565b634e487b7160e01b600052601160045260246000fd5b7f0000000000000000000000000000000000000000000000000000000000000000611061565b634e487b7160e01b600052602160045260246000fd5b84939192945160068110156114ec57600103611af8575061155760405161152881610adc565b601781527f5573696e6720556e697377617020563320726f757465720000000000000000006020820152612629565b6115b560405161156681610adc565b60128152712b19902937baba32b91030b2323932b9b99d60711b60208201527f00000000000000000000000000000000000000000000000000000000000000006001600160a01b031690612704565b62ffffff60c084016115ff828251166040516115d081610adc565b601c81527f4372656174696e6720563320706172616d732077697468206665653a000000006020820152612678565b511660648103611a6e57506064915b61164860405161161d81610adc565b60128152712334b730b6102b19903332b2903a34b2b91d60711b602082015262ffffff851690612678565b5190516001600160a01b03908116949116904261012c8101106114b0575190608084015192604051958661010081011067ffffffffffffffff61010089011117610af85762ffffff9261010088016040528752602087015216604085015230606085015261012c4201608085015260a084015260c0830152600060e08301526117166040516116d681610b0e565b602881527f563320706172616d7320636f6e666967757265642c20617474656d7074696e676020820152671039bbb0b817171760c11b6040820152612629565b8151604051611758916001600160a01b03169061173281610adc565b60148152732b19903830b930b6b99016903a37b5b2b724b71d60611b6020820152612704565b602082015160405161179e916001600160a01b03169061177781610adc565b60158152742b19903830b930b6b99016903a37b5b2b727baba1d60591b6020820152612704565b6117d962ffffff6040840151166040516117b781610adc565b601081526f2b19903830b930b6b99016903332b29d60811b6020820152612678565b61181460a08301516040516117ed81610adc565b60158152742b19903830b930b6b990169030b6b7bab73a24b71d60591b6020820152612678565b61185760c083015160405161182881610adc565b601d81527f563320706172616d73202d20616d6f756e744f75744d696e696d756d3a0000006020820152612678565b6040805163414bf38960e01b815283516001600160a01b039081166004830152602080860151821660248401529285015162ffffff1660448301526060850151811660648301526080850151608483015260a085015160a483015260c085015160c483015260e090940151841660e48201529283906101049082906000907f0000000000000000000000000000000000000000000000000000000000000000165af160009281611a3a575b506119f35761190f610ccd565b6308c379a01461199d575b61195860405161192981610adc565b601e81527f56332053776170204661696c65642077697468206e6f20726561736f6e2100006020820152612629565b60405162461bcd60e51b815260206004820152601d60248201527f56332073776170206661696c65642077697468206e6f20726561736f6e0000006044820152606490fd5b6119a5610ceb565b806119b0575061191a565b80611203611223926040516119c481610adc565b601781527f56332053776170204661696c65642120526561736f6e3a00000000000000000060208201526126bd565b608090611a3583604051611a0681610adc565b601c81527f5633205377617020537563636573732120416d6f756e74204f75743a000000006020820152612678565b611273565b9092506020813d602011611a66575b81611a5660209383610b2a565b81010312610a6b57519138611902565b3d9150611a49565b6101f490808203611a8057509161160e565b610bb89150818103611a9357509161160e565b61271091908203611aa557509161160e565b9050611af2604051611ab681610b0e565b602481527f496e76616c69642066656520746965722c207573696e672064656661756c74206020820152630333030360e41b6040820152612629565b9161160e565b839491945160068110156114ec57600303611e805750611b44604051611b1d81610adc565b60158152742ab9b4b733902130b630b731b2b9103937baba32b960591b6020820152612629565b60a08301519151935190516040519467ffffffffffffffff9391926001600160a01b039081169291169060c0870185811188821017610af8576040528652600060208701526040860152606085015260808401526040516020810181811083821117610af8576040526000815260a084015260405190608082019082821090821117610af857604052308152600060208201523060408201526000606082015260808201519061012c420142116114b057604051936352bbbe2960e01b855260e06004860152805160e486015260208101519160028310156114ec576020936060611c7860a08996958796610104880152600180831b03604082015116610124880152600180831b0384820151166101448801526080810151610164880152015160c06101848701526101a4860190610c8d565b83516001600160a01b039081166024870152878501511515604487015260408501518116606487015291909301511515608485015260a48401919091524261012c0160c48401529190039082906000907f0000000000000000000000000000000000000000000000000000000000000000165af160009281611e4c575b50611dff57611d02610ccd565b6308c379a014611da9575b611d58604051611d1c81610b0e565b602481527f42616c616e6365722053776170204661696c65642077697468206e6f20726561602082015263736f6e2160e01b6040820152612629565b60405162461bcd60e51b815260206004820152602360248201527f42616c616e6365722073776170206661696c65642077697468206e6f2072656160448201526239b7b760e91b6064820152608490fd5b611db1610ceb565b80611dbc5750611d0d565b8061120361122392604051611dd081610adc565b601d81527f42616c616e6365722053776170204661696c65642120526561736f6e3a00000060208201526126bd565b608090611a3583604051611e1281610b0e565b602281527f42616c616e636572205377617020537563636573732120416d6f756e74204f756020820152613a1d60f11b6040820152612678565b9092506020813d602011611e78575b81611e6860209383610b2a565b81010312610a6b57519138611cf5565b3d9150611e5b565b91509250815160068110156114ec576004036120ca5750611ec8604051611ea681610adc565b601081526f155cda5b99c810dd5c9d99481c1bdbdb60821b6020820152612629565b602060018060a01b0360a08301511692611f0c84604051611ee881610adc565b601381527221bab93b32903837b7b61030b2323932b9b99d60691b85820152612704565b608460e0840151600f0b6000610100860151600f0b93519660808701516040519889968795630f7c084960e21b875260048701526024860152604485015260648401525af160009281612096575b5061205457611f67610ccd565b6308c379a014611ffe575b611fba604051611f8181610b0e565b602181527f43757276652053776170204661696c65642077697468206e6f20726561736f6e6020820152602160f81b6040820152612629565b606460405162461bcd60e51b815260206004820152602060248201527f43757276652073776170206661696c65642077697468206e6f20726561736f6e6044820152fd5b612006610ceb565b806120115750611f72565b806112036112239260405161202581610adc565b601a81527f43757276652053776170204661696c65642120526561736f6e3a00000000000060208201526126bd565b608090611a358360405161206781610adc565b601f81527f4375727665205377617020537563636573732120416d6f756e74204f75743a006020820152612678565b9092506020813d6020116120c2575b816120b260209383610b2a565b81010312610a6b57519138611f5a565b3d91506120a5565b91815160068110156114ec576005146120e7575b50608090611273565b612199925060209061211e6040516120fe81610adc565b600f81526e155cda5b99c81113d113c81c1bdbdb608a1b84820152612629565b60018060a01b0360a0840151169061215f8260405161213c81610adc565b60128152712227a227903837b7b61030b2323932b9b99d60711b86820152612704565b51906101208401519160006040518097819582946350dbce0d60e01b84523060048501526024840152606060448401526064830190610c8d565b03925af1600092816122df575b50612297576121b3610ccd565b6308c379a014612241575b6121fc6040516121cd81610adc565b602081527f444f444f2053776170204661696c65642077697468206e6f20726561736f6e216020820152612629565b60405162461bcd60e51b815260206004820152601f60248201527f444f444f2073776170206661696c65642077697468206e6f20726561736f6e006044820152606490fd5b612249610ceb565b8061225457506121be565b806112036112239260405161226881610adc565b601981527f444f444f2053776170204661696c65642120526561736f6e3a0000000000000060208201526126bd565b6080906122d9836040516122aa81610adc565b601e81527f444f444f205377617020537563636573732120416d6f756e74204f75743a00006020820152612678565b906120de565b9092506020813d60201161230b575b816122fb60209383610b2a565b81010312610a6b575191386121a6565b3d91506122ee565b50845160068110156114ec57600214610f9d565b61233f9060203d60201161081c5761080d8183610b2a565b5038610f49565b6040513d6000823e3d90fd5b60c0840162ffffff906123938282511660405161236e81610adc565b60138152722ab734b9bbb0b82b19902332b2902a34b2b91d60691b6020820152612678565b511660648114908115612411575b8115612405575b81156123f9575b50610ee05760405162461bcd60e51b815260206004820152601b60248201527f496e76616c696420556e697377617020563320666565207469657200000000006044820152606490fd5b612710915014386123af565b610bb8811491506123a8565b6101f4811491506123a1565b60068110156114ec57801561250357600181146124d557600281146124a75760031461247a5760405162461bcd60e51b815260206004820152600f60248201526e0aadce6eae0e0dee4e8cac840888ab608b1b6044820152606490fd5b7f00000000000000000000000000000000000000000000000000000000000000006001600160a01b031690565b507f00000000000000000000000000000000000000000000000000000000000000006001600160a01b031690565b507f00000000000000000000000000000000000000000000000000000000000000006001600160a01b031690565b507f00000000000000000000000000000000000000000000000000000000000000006001600160a01b031690565b9081356006811015610a6b5781526001600160a01b038061255460208501610a70565b16602083015261256660408401610a70565b166040820152606082013560608201526080820135608082015260a082013560a082015262ffffff61259a60c08401610b4c565b1660c08201526125ac60e08301610b5c565b600f0b60e08201526101006125c2818401610b5c565b600f0b908201526101209182810135601e1982360301811215610a6b57016020813591019267ffffffffffffffff8211610a6b578136038413610a6b57819061014080918501528301528061016093848401376000828201840152601f01601f1916010190565b6000809160405161266581612657602082019463104c13eb60e21b8652602060248401526044830190610c8d565b03601f198101835282610b2a565b51906a636f6e736f6c652e6c6f675afa50565b60009190829161266560405180926126a96020830195632d839cb360e21b8752604060248501526064840190610c8d565b90604483015203601f198101835282610b2a565b6000919061265761266584936040519283916126f26020840196634b5c427760e01b8852604060248601526064850190610c8d565b83810360231901604485015290610c8d565b6000919082916126656040518092612735602083019563319af33360e01b8752604060248501526064840190610c8d565b6001600160a01b0391909116604483015203601f198101835282610b2a56fea2646970667358221220e37b0cdf3c164184c4b7bedea5d9f792e363958fad56ca6e82f89c7fa1429f1364736f6c63430008140033",
  "linkReferences": {},
  "deployedLinkReferences": {}
}