{
    "_format": "hh-sol-artifact-1",
    "contractName": "Arbitrage",
    "sourceName": "contracts/Arbitrage.sol",
    "abi": [
        {
            "inputs": [
                {
                    "internalType": "address",
                    "name": "_provider",
                    "type": "address"
                },
                {
                    "internalType": "address",
                    "name": "_uniRouter",
                    "type": "address"
                },
                {
                    "internalType": "address",
                    "name": "_sushiRouter",
                    "type": "address"
                }
            ],
            "stateMutability": "payable",
            "type": "constructor"
        },
        {
            "anonymous": false,
            "inputs": [
                {
                    "indexed": false,
                    "internalType": "uint256",
                    "name": "profit",
                    "type": "uint256"
                }
            ],
            "name": "ArbitrageExecuted",
            "type": "event"
        },
        {
            "inputs": [
                {
                    "internalType": "address",
                    "name": "asset",
                    "type": "address"
                },
                {
                    "internalType": "uint256",
                    "name": "amount",
                    "type": "uint256"
                },
                {
                    "internalType": "uint256",
                    "name": "premium",
                    "type": "uint256"
                },
                {
                    "internalType": "address",
                    "name": "initiator",
                    "type": "address"
                },
                {
                    "internalType": "bytes",
                    "name": "params",
                    "type": "bytes"
                }
            ],
            "name": "executeOperation",
            "outputs": [
                {
                    "internalType": "bool",
                    "name": "",
                    "type": "bool"
                }
            ],
            "stateMutability": "nonpayable",
            "type": "function"
        },
        {
            "inputs": [
                {
                    "internalType": "address",
                    "name": "asset",
                    "type": "address"
                },
                {
                    "internalType": "uint256",
                    "name": "amount",
                    "type": "uint256"
                },
                {
                    "internalType": "address[]",
                    "name": "path",
                    "type": "address[]"
                },
                {
                    "internalType": "bool",
                    "name": "buyOnUni",
                    "type": "bool"
                }
            ],
            "name": "requestFlashLoan",
            "outputs": [],
            "stateMutability": "nonpayable",
            "type": "function"
        },
        {
            "stateMutability": "payable",
            "type": "receive"
        },
        {
            "inputs": [],
            "name": "ADDRESSES_PROVIDER",
            "outputs": [
                {
                    "internalType": "contract IPoolAddressesProvider",
                    "name": "",
                    "type": "address"
                }
            ],
            "stateMutability": "view",
            "type": "function"
        },
        {
            "inputs": [],
            "name": "owner",
            "outputs": [
                {
                    "internalType": "address payable",
                    "name": "",
                    "type": "address"
                }
            ],
            "stateMutability": "view",
            "type": "function"
        },
        {
            "inputs": [],
            "name": "POOL",
            "outputs": [
                {
                    "internalType": "contract IPool",
                    "name": "",
                    "type": "address"
                }
            ],
            "stateMutability": "view",
            "type": "function"
        },
        {
            "inputs": [],
            "name": "sushiswapRouter",
            "outputs": [
                {
                    "internalType": "contract IUniswapV2Router02",
                    "name": "",
                    "type": "address"
                }
            ],
            "stateMutability": "view",
            "type": "function"
        },
        {
            "inputs": [],
            "name": "uniswapRouter",
            "outputs": [
                {
                    "internalType": "contract IUniswapV2Router02",
                    "name": "",
                    "type": "address"
                }
            ],
            "stateMutability": "view",
            "type": "function"
        }
    ],
    "bytecode": "0x608060405234801561001057600080fd5b506040516114f33803806114f3833981810160405281019061003291906101f6565b600160008190555033600160006101000a81548173ffffffffffffffffffffffffffffffffffffffff021916908373ffffffffffffffffffffffffffffffffffffffff16021790555080600260006101000a81548173ffffffffffffffffffffffffffffffffffffffff021916908373ffffffffffffffffffffffffffffffffffffffff160217905550600260009054906101000a900473ffffffffffffffffffffffffffffffffffffffff1673ffffffffffffffffffffffffffffffffffffffff16630261bf8b6040518163ffffffff1660e01b8152600401602060405180830381865afa158015610129573d6000803e3d6000fd5b505050506040513d601f19601f8201168201806040525081019061014d91906101f6565b600360006101000a81548173ffffffffffffffffffffffffffffffffffffffff021916908373ffffffffffffffffffffffffffffffffffffffff16021790555050610223565b600080fd5b600073ffffffffffffffffffffffffffffffffffffffff82169050919050565b60006101c382610198565b9050919050565b6101d3816101b8565b81146101de57600080fd5b50565b6000815190506101f0816101ca565b92915050565b60006020828403121561020c5761020b610193565b5b600061021a848285016101e1565b91505092915050565b6112c1806102326000396000f3fe608060405234801561001057600080fd5b50600436106100625760003560e01c80635e2c1b3a146100675780638da5cb5b14610083578063920f5c84146100a1578063a59a9973146100d1578063c72c4d10146100ef578063f3fef3a31461010d575b600080fd5b610081600480360381019061007c9190610908565b610129565b005b61008b6103fb565b6040516100989190610957565b60405180910390f35b6100bb60048036038101906100b69190610a83565b610421565b6040516100c89190610b9a565b60405180910390f35b6100d961068c565b6040516100e69190610c14565b60405180910390f35b6100f76106b2565b6040516101049190610c50565b60405180910390f35b61012760048036038101906101229190610908565b6106d8565b005b600160009054906101000a900473ffffffffffffffffffffffffffffffffffffffff1673ffffffffffffffffffffffffffffffffffffffff163373ffffffffffffffffffffffffffffffffffffffff16146101b9576040517f08c379a00000000000000000000000000000000000000000000000000000000081526004016101b090610cc8565b60405180910390fd5b6101c161080d565b6000600167ffffffffffffffff8111156101de576101dd610ce8565b5b60405190808252806020026020018201604052801561020c5781602001602082028036833780820191505090505b509050828160008151811061022457610223610d17565b5b602002602001019073ffffffffffffffffffffffffffffffffffffffff16908173ffffffffffffffffffffffffffffffffffffffff16815250506000600167ffffffffffffffff81111561027b5761027a610ce8565b5b6040519080825280602002602001820160405280156102a95781602001602082028036833780820191505090505b50905082816000815181106102c1576102c0610d17565b5b6020026020010181815250506000600167ffffffffffffffff8111156102ea576102e9610ce8565b5b6040519080825280602002602001820160405280156103185781602001602082028036833780820191505090505b50905060008160008151811061033157610330610d17565b5b6020026020010181815250506000604051806020016040528060008152509050600360009054906101000a900473ffffffffffffffffffffffffffffffffffffffff1673ffffffffffffffffffffffffffffffffffffffff1663ab9c4b5d30868686308760006040518863ffffffff1660e01b81526004016103b99796959493929190610f9b565b600060405180830381600087803b1580156103d357600080fd5b505af11580156103e7573d6000803e3d6000fd5b50505050505050506103f761085c565b5050565b600160009054906101000a900473ffffffffffffffffffffffffffffffffffffffff1681565b6000600360009054906101000a900473ffffffffffffffffffffffffffffffffffffffff1673ffffffffffffffffffffffffffffffffffffffff163373ffffffffffffffffffffffffffffffffffffffff16146104b3576040517f08c379a00000000000000000000000000000000000000000000000000000000081526004016104aa90611072565b60405180910390fd5b3073ffffffffffffffffffffffffffffffffffffffff168473ffffffffffffffffffffffffffffffffffffffff1614610521576040517f08c379a0000000000000000000000000000000000000000000000000000000008152600401610518906110de565b60405180910390fd5b61056d8a8a600081811061053857610537610d17565b5b905060200201602081019061054d91906110fe565b8989600081811061056157610560610d17565b5b90506020020135610866565b60008686600081811061058357610582610d17565b5b905060200201358989600081811061059e5761059d610d17565b5b905060200201356105af919061115a565b90508a8a60008181106105c5576105c4610d17565b5b90506020020160208101906105da91906110fe565b73ffffffffffffffffffffffffffffffffffffffff1663095ea7b3600360009054906101000a900473ffffffffffffffffffffffffffffffffffffffff16836040518363ffffffff1660e01b815260040161063692919061119d565b6020604051808303816000875af1158015610655573d6000803e3d6000fd5b505050506040513d601f19601f8201168201806040525081019061067991906111f2565b5060019150509998505050505050505050565b600360009054906101000a900473ffffffffffffffffffffffffffffffffffffffff1681565b600260009054906101000a900473ffffffffffffffffffffffffffffffffffffffff1681565b600160009054906101000a900473ffffffffffffffffffffffffffffffffffffffff1673ffffffffffffffffffffffffffffffffffffffff163373ffffffffffffffffffffffffffffffffffffffff1614610768576040517f08c379a000000000000000000000000000000000000000000000000000000000815260040161075f90610cc8565b60405180910390fd5b8173ffffffffffffffffffffffffffffffffffffffff1663a9059cbb600160009054906101000a900473ffffffffffffffffffffffffffffffffffffffff16836040518363ffffffff1660e01b81526004016107c592919061119d565b6020604051808303816000875af11580156107e4573d6000803e3d6000fd5b505050506040513d601f19601f8201168201806040525081019061080891906111f2565b505050565b600260005403610852576040517f08c379a00000000000000000000000000000000000000000000000000000000081526004016108499061126b565b60405180910390fd5b6002600081905550565b6001600081905550565b5050565b600080fd5b600080fd5b600073ffffffffffffffffffffffffffffffffffffffff82169050919050565b600061089f82610874565b9050919050565b6108af81610894565b81146108ba57600080fd5b50565b6000813590506108cc816108a6565b92915050565b6000819050919050565b6108e5816108d2565b81146108f057600080fd5b50565b600081359050610902816108dc565b92915050565b6000806040838503121561091f5761091e61086a565b5b600061092d858286016108bd565b925050602061093e858286016108f3565b9150509250929050565b61095181610894565b82525050565b600060208201905061096c6000830184610948565b92915050565b600080fd5b600080fd5b600080fd5b60008083601f84011261099757610996610972565b5b8235905067ffffffffffffffff8111156109b4576109b3610977565b5b6020830191508360208202830111156109d0576109cf61097c565b5b9250929050565b60008083601f8401126109ed576109ec610972565b5b8235905067ffffffffffffffff811115610a0a57610a09610977565b5b602083019150836020820283011115610a2657610a2561097c565b5b9250929050565b60008083601f840112610a4357610a42610972565b5b8235905067ffffffffffffffff811115610a6057610a5f610977565b5b602083019150836001820283011115610a7c57610a7b61097c565b5b9250929050565b600080600080600080600080600060a08a8c031215610aa557610aa461086a565b5b60008a013567ffffffffffffffff811115610ac357610ac261086f565b5b610acf8c828d01610981565b995099505060208a013567ffffffffffffffff811115610af257610af161086f565b5b610afe8c828d016109d7565b975097505060408a013567ffffffffffffffff811115610b2157610b2061086f565b5b610b2d8c828d016109d7565b95509550506060610b408c828d016108bd565b93505060808a013567ffffffffffffffff811115610b6157610b6061086f565b5b610b6d8c828d01610a2d565b92509250509295985092959850929598565b60008115159050919050565b610b9481610b7f565b82525050565b6000602082019050610baf6000830184610b8b565b92915050565b6000819050919050565b6000610bda610bd5610bd084610874565b610bb5565b610874565b9050919050565b6000610bec82610bbf565b9050919050565b6000610bfe82610be1565b9050919050565b610c0e81610bf3565b82525050565b6000602082019050610c296000830184610c05565b92915050565b6000610c3a82610be1565b9050919050565b610c4a81610c2f565b82525050565b6000602082019050610c656000830184610c41565b92915050565b600082825260208201905092915050565b7f4e6f7420617574686f72697a6564000000000000000000000000000000000000600082015250565b6000610cb2600e83610c6b565b9150610cbd82610c7c565b602082019050919050565b60006020820190508181036000830152610ce181610ca5565b9050919050565b7f4e487b7100000000000000000000000000000000000000000000000000000000600052604160045260246000fd5b7f4e487b7100000000000000000000000000000000000000000000000000000000600052603260045260246000fd5b600081519050919050565b600082825260208201905092915050565b6000819050602082019050919050565b610d7b81610894565b82525050565b6000610d8d8383610d72565b60208301905092915050565b6000602082019050919050565b6000610db182610d46565b610dbb8185610d51565b9350610dc683610d62565b8060005b83811015610df7578151610dde8882610d81565b9750610de983610d99565b925050600181019050610dca565b5085935050505092915050565b600081519050919050565b600082825260208201905092915050565b6000819050602082019050919050565b610e39816108d2565b82525050565b6000610e4b8383610e30565b60208301905092915050565b6000602082019050919050565b6000610e6f82610e04565b610e798185610e0f565b9350610e8483610e20565b8060005b83811015610eb5578151610e9c8882610e3f565b9750610ea783610e57565b925050600181019050610e88565b5085935050505092915050565b600081519050919050565b600082825260208201905092915050565b60005b83811015610efc578082015181840152602081019050610ee1565b60008484015250505050565b6000601f19601f8301169050919050565b6000610f2482610ec2565b610f2e8185610ecd565b9350610f3e818560208601610ede565b610f4781610f08565b840191505092915050565b6000819050919050565b600061ffff82169050919050565b6000610f85610f80610f7b84610f52565b610bb5565b610f5c565b9050919050565b610f9581610f6a565b82525050565b600060e082019050610fb0600083018a610948565b8181036020830152610fc28189610da6565b90508181036040830152610fd68188610e64565b90508181036060830152610fea8187610e64565b9050610ff96080830186610948565b81810360a083015261100b8185610f19565b905061101a60c0830184610f8c565b98975050505050505050565b7f43616c6c6572206973206e6f74206c656e64696e6720706f6f6c000000000000600082015250565b600061105c601a83610c6b565b915061106782611026565b602082019050919050565b6000602082019050818103600083015261108b8161104f565b9050919050565b7f4e6f7420696e69746961746564206279207468697320636f6e74726163740000600082015250565b60006110c8601e83610c6b565b91506110d382611092565b602082019050919050565b600060208201905081810360008301526110f7816110bb565b9050919050565b6000602082840312156111145761111361086a565b5b6000611122848285016108bd565b91505092915050565b7f4e487b7100000000000000000000000000000000000000000000000000000000600052601160045260246000fd5b6000611165826108d2565b9150611170836108d2565b92508282019050808211156111885761118761112b565b5b92915050565b611197816108d2565b82525050565b60006040820190506111b26000830185610948565b6111bf602083018461118e565b9392505050565b6111cf81610b7f565b81146111da57600080fd5b50565b6000815190506111ec816111c6565b92915050565b6000602082840312156112085761120761086a565b5b6000611216848285016111dd565b91505092915050565b7f5265656e7472616e637947756172643a207265656e7472616e742063616c6c00600082015250565b6000611255601f83610c6b565b91506112608261121f565b602082019050919050565b6000602082019050818103600083015261128481611248565b905091905056fea2646970667358221220459856d3f1cef5240fb9113618037883babe164d63a034b18d62497864b782c464736f6c634300081c0033",
    "linkReferences": {},
    "deployedLinkReferences": {}
}